{
  "contracts/TestCalls.sol": {
    "TestCalls": {
      "abi": [
        {
          "inputs": [],
          "name": "counter",
          "outputs": [
            {
              "internalType": "int256",
              "name": "",
              "type": "int256"
            }
          ],
          "stateMutability": "view",
          "type": "function"
        },
        {
          "inputs": [],
          "name": "read01",
          "outputs": [],
          "stateMutability": "pure",
          "type": "function"
        },
        {
          "inputs": [
            {
              "internalType": "int256",
              "name": "a",
              "type": "int256"
            }
          ],
          "name": "read02",
          "outputs": [
            {
              "internalType": "int256",
              "name": "a1",
              "type": "int256"
            }
          ],
          "stateMutability": "pure",
          "type": "function"
        },
        {
          "inputs": [
            {
              "internalType": "int256[4]",
              "name": "a",
              "type": "int256[4]"
            }
          ],
          "name": "read03",
          "outputs": [
            {
              "internalType": "int256[4]",
              "name": "a1",
              "type": "int256[4]"
            }
          ],
          "stateMutability": "pure",
          "type": "function"
        },
        {
          "inputs": [
            {
              "internalType": "int256[]",
              "name": "a",
              "type": "int256[]"
            }
          ],
          "name": "read04",
          "outputs": [
            {
              "internalType": "int256[]",
              "name": "a1",
              "type": "int256[]"
            }
          ],
          "stateMutability": "pure",
          "type": "function"
        },
        {
          "inputs": [
            {
              "internalType": "int256[4][4]",
              "name": "a",
              "type": "int256[4][4]"
            }
          ],
          "name": "read05",
          "outputs": [
            {
              "internalType": "int256[4][4]",
              "name": "a1",
              "type": "int256[4][4]"
            }
          ],
          "stateMutability": "pure",
          "type": "function"
        },
        {
          "inputs": [
            {
              "internalType": "int256[4][]",
              "name": "a",
              "type": "int256[4][]"
            }
          ],
          "name": "read06",
          "outputs": [
            {
              "internalType": "int256[4][]",
              "name": "a1",
              "type": "int256[4][]"
            }
          ],
          "stateMutability": "pure",
          "type": "function"
        },
        {
          "inputs": [
            {
              "internalType": "int256[][4]",
              "name": "a",
              "type": "int256[][4]"
            }
          ],
          "name": "read07",
          "outputs": [
            {
              "internalType": "int256[][4]",
              "name": "a1",
              "type": "int256[][4]"
            }
          ],
          "stateMutability": "pure",
          "type": "function"
        },
        {
          "inputs": [
            {
              "internalType": "int256[][]",
              "name": "a",
              "type": "int256[][]"
            }
          ],
          "name": "read08",
          "outputs": [
            {
              "internalType": "int256[][]",
              "name": "a1",
              "type": "int256[][]"
            }
          ],
          "stateMutability": "pure",
          "type": "function"
        },
        {
          "inputs": [
            {
              "components": [
                {
                  "internalType": "int256",
                  "name": "a",
                  "type": "int256"
                },
                {
                  "internalType": "uint256",
                  "name": "b",
                  "type": "uint256"
                }
              ],
              "internalType": "struct TestCalls.T1",
              "name": "a",
              "type": "tuple"
            }
          ],
          "name": "read09",
          "outputs": [
            {
              "components": [
                {
                  "internalType": "int256",
                  "name": "a",
                  "type": "int256"
                },
                {
                  "internalType": "uint256",
                  "name": "b",
                  "type": "uint256"
                }
              ],
              "internalType": "struct TestCalls.T1",
              "name": "a1",
              "type": "tuple"
            }
          ],
          "stateMutability": "pure",
          "type": "function"
        },
        {
          "inputs": [
            {
              "components": [
                {
                  "internalType": "int256",
                  "name": "a",
                  "type": "int256"
                },
                {
                  "internalType": "uint256",
                  "name": "b",
                  "type": "uint256"
                }
              ],
              "internalType": "struct TestCalls.T1[]",
              "name": "a",
              "type": "tuple[]"
            }
          ],
          "name": "read10",
          "outputs": [
            {
              "components": [
                {
                  "internalType": "int256",
                  "name": "a",
                  "type": "int256"
                },
                {
                  "internalType": "uint256",
                  "name": "b",
                  "type": "uint256"
                }
              ],
              "internalType": "struct TestCalls.T1[]",
              "name": "a1",
              "type": "tuple[]"
            }
          ],
          "stateMutability": "pure",
          "type": "function"
        },
        {
          "inputs": [
            {
              "components": [
                {
                  "components": [
                    {
                      "internalType": "int256",
                      "name": "a",
                      "type": "int256"
                    },
                    {
                      "internalType": "uint256",
                      "name": "b",
                      "type": "uint256"
                    }
                  ],
                  "internalType": "struct TestCalls.T1",
                  "name": "t1",
                  "type": "tuple"
                },
                {
                  "components": [
                    {
                      "internalType": "int256",
                      "name": "a",
                      "type": "int256"
                    },
                    {
                      "internalType": "uint256",
                      "name": "b",
                      "type": "uint256"
                    }
                  ],
                  "internalType": "struct TestCalls.T1[4]",
                  "name": "t2",
                  "type": "tuple[4]"
                },
                {
                  "components": [
                    {
                      "internalType": "int256",
                      "name": "a",
                      "type": "int256"
                    },
                    {
                      "internalType": "uint256",
                      "name": "b",
                      "type": "uint256"
                    }
                  ],
                  "internalType": "struct TestCalls.T1[]",
                  "name": "t3",
                  "type": "tuple[]"
                }
              ],
              "internalType": "struct TestCalls.T2[]",
              "name": "a",
              "type": "tuple[]"
            },
            {
              "internalType": "int256",
              "name": "b",
              "type": "int256"
            },
            {
              "internalType": "string",
              "name": "c",
              "type": "string"
            }
          ],
          "name": "read11",
          "outputs": [
            {
              "components": [
                {
                  "components": [
                    {
                      "internalType": "int256",
                      "name": "a",
                      "type": "int256"
                    },
                    {
                      "internalType": "uint256",
                      "name": "b",
                      "type": "uint256"
                    }
                  ],
                  "internalType": "struct TestCalls.T1",
                  "name": "t1",
                  "type": "tuple"
                },
                {
                  "components": [
                    {
                      "internalType": "int256",
                      "name": "a",
                      "type": "int256"
                    },
                    {
                      "internalType": "uint256",
                      "name": "b",
                      "type": "uint256"
                    }
                  ],
                  "internalType": "struct TestCalls.T1[4]",
                  "name": "t2",
                  "type": "tuple[4]"
                },
                {
                  "components": [
                    {
                      "internalType": "int256",
                      "name": "a",
                      "type": "int256"
                    },
                    {
                      "internalType": "uint256",
                      "name": "b",
                      "type": "uint256"
                    }
                  ],
                  "internalType": "struct TestCalls.T1[]",
                  "name": "t3",
                  "type": "tuple[]"
                }
              ],
              "internalType": "struct TestCalls.T2[]",
              "name": "a1",
              "type": "tuple[]"
            },
            {
              "internalType": "int256",
              "name": "b1",
              "type": "int256"
            },
            {
              "internalType": "string",
              "name": "c1",
              "type": "string"
            }
          ],
          "stateMutability": "pure",
          "type": "function"
        },
        {
          "inputs": [
            {
              "components": [
                {
                  "internalType": "int256",
                  "name": "a",
                  "type": "int256"
                },
                {
                  "internalType": "int8",
                  "name": "b",
                  "type": "int8"
                },
                {
                  "internalType": "uint256",
                  "name": "c",
                  "type": "uint256"
                },
                {
                  "internalType": "uint8",
                  "name": "d",
                  "type": "uint8"
                },
                {
                  "internalType": "address",
                  "name": "e",
                  "type": "address"
                },
                {
                  "internalType": "bool",
                  "name": "f",
                  "type": "bool"
                },
                {
                  "internalType": "bytes",
                  "name": "g",
                  "type": "bytes"
                },
                {
                  "internalType": "bytes8",
                  "name": "h",
                  "type": "bytes8"
                },
                {
                  "internalType": "string",
                  "name": "i",
                  "type": "string"
                }
              ],
              "internalType": "struct TestCalls.T3",
              "name": "a",
              "type": "tuple"
            }
          ],
          "name": "read12",
          "outputs": [
            {
              "components": [
                {
                  "internalType": "int256",
                  "name": "a",
                  "type": "int256"
                },
                {
                  "internalType": "int8",
                  "name": "b",
                  "type": "int8"
                },
                {
                  "internalType": "uint256",
                  "name": "c",
                  "type": "uint256"
                },
                {
                  "internalType": "uint8",
                  "name": "d",
                  "type": "uint8"
                },
                {
                  "internalType": "address",
                  "name": "e",
                  "type": "address"
                },
                {
                  "internalType": "bool",
                  "name": "f",
                  "type": "bool"
                },
                {
                  "internalType": "bytes",
                  "name": "g",
                  "type": "bytes"
                },
                {
                  "internalType": "bytes8",
                  "name": "h",
                  "type": "bytes8"
                },
                {
                  "internalType": "string",
                  "name": "i",
                  "type": "string"
                }
              ],
              "internalType": "struct TestCalls.T3",
              "name": "",
              "type": "tuple"
            }
          ],
          "stateMutability": "pure",
          "type": "function"
        },
        {
          "inputs": [],
          "name": "version",
          "outputs": [
            {
              "internalType": "string",
              "name": "",
              "type": "string"
            }
          ],
          "stateMutability": "view",
          "type": "function"
        },
        {
          "inputs": [],
          "name": "write01",
          "outputs": [],
          "stateMutability": "nonpayable",
          "type": "function"
        },
        {
          "inputs": [
            {
              "internalType": "int256",
              "name": "a",
              "type": "int256"
            }
          ],
          "name": "write02",
          "outputs": [
            {
              "internalType": "int256",
              "name": "a1",
              "type": "int256"
            }
          ],
          "stateMutability": "nonpayable",
          "type": "function"
        },
        {
          "inputs": [
            {
              "internalType": "int256[4]",
              "name": "a",
              "type": "int256[4]"
            }
          ],
          "name": "write03",
          "outputs": [
            {
              "internalType": "int256[4]",
              "name": "a1",
              "type": "int256[4]"
            }
          ],
          "stateMutability": "nonpayable",
          "type": "function"
        },
        {
          "inputs": [
            {
              "internalType": "int256[]",
              "name": "a",
              "type": "int256[]"
            }
          ],
          "name": "write04",
          "outputs": [
            {
              "internalType": "int256[]",
              "name": "a1",
              "type": "int256[]"
            }
          ],
          "stateMutability": "nonpayable",
          "type": "function"
        },
        {
          "inputs": [
            {
              "internalType": "int256[4][4]",
              "name": "a",
              "type": "int256[4][4]"
            }
          ],
          "name": "write05",
          "outputs": [
            {
              "internalType": "int256[4][4]",
              "name": "a1",
              "type": "int256[4][4]"
            }
          ],
          "stateMutability": "nonpayable",
          "type": "function"
        },
        {
          "inputs": [
            {
              "internalType": "int256[4][]",
              "name": "a",
              "type": "int256[4][]"
            }
          ],
          "name": "write06",
          "outputs": [
            {
              "internalType": "int256[4][]",
              "name": "a1",
              "type": "int256[4][]"
            }
          ],
          "stateMutability": "nonpayable",
          "type": "function"
        },
        {
          "inputs": [
            {
              "internalType": "int256[][4]",
              "name": "a",
              "type": "int256[][4]"
            }
          ],
          "name": "write07",
          "outputs": [
            {
              "internalType": "int256[][4]",
              "name": "a1",
              "type": "int256[][4]"
            }
          ],
          "stateMutability": "nonpayable",
          "type": "function"
        },
        {
          "inputs": [
            {
              "internalType": "int256[][]",
              "name": "a",
              "type": "int256[][]"
            }
          ],
          "name": "write08",
          "outputs": [
            {
              "internalType": "int256[][]",
              "name": "a1",
              "type": "int256[][]"
            }
          ],
          "stateMutability": "nonpayable",
          "type": "function"
        },
        {
          "inputs": [
            {
              "components": [
                {
                  "internalType": "int256",
                  "name": "a",
                  "type": "int256"
                },
                {
                  "internalType": "uint256",
                  "name": "b",
                  "type": "uint256"
                }
              ],
              "internalType": "struct TestCalls.T1",
              "name": "a",
              "type": "tuple"
            }
          ],
          "name": "write09",
          "outputs": [
            {
              "components": [
                {
                  "internalType": "int256",
                  "name": "a",
                  "type": "int256"
                },
                {
                  "internalType": "uint256",
                  "name": "b",
                  "type": "uint256"
                }
              ],
              "internalType": "struct TestCalls.T1",
              "name": "a1",
              "type": "tuple"
            }
          ],
          "stateMutability": "nonpayable",
          "type": "function"
        },
        {
          "inputs": [
            {
              "components": [
                {
                  "internalType": "int256",
                  "name": "a",
                  "type": "int256"
                },
                {
                  "internalType": "uint256",
                  "name": "b",
                  "type": "uint256"
                }
              ],
              "internalType": "struct TestCalls.T1[]",
              "name": "a",
              "type": "tuple[]"
            }
          ],
          "name": "write10",
          "outputs": [
            {
              "components": [
                {
                  "internalType": "int256",
                  "name": "a",
                  "type": "int256"
                },
                {
                  "internalType": "uint256",
                  "name": "b",
                  "type": "uint256"
                }
              ],
              "internalType": "struct TestCalls.T1[]",
              "name": "a1",
              "type": "tuple[]"
            }
          ],
          "stateMutability": "nonpayable",
          "type": "function"
        },
        {
          "inputs": [
            {
              "components": [
                {
                  "components": [
                    {
                      "internalType": "int256",
                      "name": "a",
                      "type": "int256"
                    },
                    {
                      "internalType": "uint256",
                      "name": "b",
                      "type": "uint256"
                    }
                  ],
                  "internalType": "struct TestCalls.T1",
                  "name": "t1",
                  "type": "tuple"
                },
                {
                  "components": [
                    {
                      "internalType": "int256",
                      "name": "a",
                      "type": "int256"
                    },
                    {
                      "internalType": "uint256",
                      "name": "b",
                      "type": "uint256"
                    }
                  ],
                  "internalType": "struct TestCalls.T1[4]",
                  "name": "t2",
                  "type": "tuple[4]"
                },
                {
                  "components": [
                    {
                      "internalType": "int256",
                      "name": "a",
                      "type": "int256"
                    },
                    {
                      "internalType": "uint256",
                      "name": "b",
                      "type": "uint256"
                    }
                  ],
                  "internalType": "struct TestCalls.T1[]",
                  "name": "t3",
                  "type": "tuple[]"
                }
              ],
              "internalType": "struct TestCalls.T2[]",
              "name": "a",
              "type": "tuple[]"
            },
            {
              "internalType": "int256",
              "name": "b",
              "type": "int256"
            },
            {
              "internalType": "string",
              "name": "c",
              "type": "string"
            }
          ],
          "name": "write11",
          "outputs": [
            {
              "components": [
                {
                  "components": [
                    {
                      "internalType": "int256",
                      "name": "a",
                      "type": "int256"
                    },
                    {
                      "internalType": "uint256",
                      "name": "b",
                      "type": "uint256"
                    }
                  ],
                  "internalType": "struct TestCalls.T1",
                  "name": "t1",
                  "type": "tuple"
                },
                {
                  "components": [
                    {
                      "internalType": "int256",
                      "name": "a",
                      "type": "int256"
                    },
                    {
                      "internalType": "uint256",
                      "name": "b",
                      "type": "uint256"
                    }
                  ],
                  "internalType": "struct TestCalls.T1[4]",
                  "name": "t2",
                  "type": "tuple[4]"
                },
                {
                  "components": [
                    {
                      "internalType": "int256",
                      "name": "a",
                      "type": "int256"
                    },
                    {
                      "internalType": "uint256",
                      "name": "b",
                      "type": "uint256"
                    }
                  ],
                  "internalType": "struct TestCalls.T1[]",
                  "name": "t3",
                  "type": "tuple[]"
                }
              ],
              "internalType": "struct TestCalls.T2[]",
              "name": "a1",
              "type": "tuple[]"
            },
            {
              "internalType": "int256",
              "name": "b1",
              "type": "int256"
            },
            {
              "internalType": "string",
              "name": "c1",
              "type": "string"
            },
            {
              "internalType": "uint256",
              "name": "value",
              "type": "uint256"
            }
          ],
          "stateMutability": "payable",
          "type": "function"
        },
        {
          "inputs": [
            {
              "components": [
                {
                  "internalType": "int256",
                  "name": "a",
                  "type": "int256"
                },
                {
                  "internalType": "int8",
                  "name": "b",
                  "type": "int8"
                },
                {
                  "internalType": "uint256",
                  "name": "c",
                  "type": "uint256"
                },
                {
                  "internalType": "uint8",
                  "name": "d",
                  "type": "uint8"
                },
                {
                  "internalType": "address",
                  "name": "e",
                  "type": "address"
                },
                {
                  "internalType": "bool",
                  "name": "f",
                  "type": "bool"
                },
                {
                  "internalType": "bytes",
                  "name": "g",
                  "type": "bytes"
                },
                {
                  "internalType": "bytes8",
                  "name": "h",
                  "type": "bytes8"
                },
                {
                  "internalType": "string",
                  "name": "i",
                  "type": "string"
                }
              ],
              "internalType": "struct TestCalls.T3",
              "name": "a",
              "type": "tuple"
            }
          ],
          "name": "write12",
          "outputs": [
            {
              "components": [
                {
                  "internalType": "int256",
                  "name": "a",
                  "type": "int256"
                },
                {
                  "internalType": "int8",
                  "name": "b",
                  "type": "int8"
                },
                {
                  "internalType": "uint256",
                  "name": "c",
                  "type": "uint256"
                },
                {
                  "internalType": "uint8",
                  "name": "d",
                  "type": "uint8"
                },
                {
                  "internalType": "address",
                  "name": "e",
                  "type": "address"
                },
                {
                  "internalType": "bool",
                  "name": "f",
                  "type": "bool"
                },
                {
                  "internalType": "bytes",
                  "name": "g",
                  "type": "bytes"
                },
                {
                  "internalType": "bytes8",
                  "name": "h",
                  "type": "bytes8"
                },
                {
                  "internalType": "string",
                  "name": "i",
                  "type": "string"
                }
              ],
              "internalType": "struct TestCalls.T3",
              "name": "",
              "type": "tuple"
            }
          ],
          "stateMutability": "nonpayable",
          "type": "function"
        }
      ],
      "evm": {
        "bytecode": {
          "linkReferences": {},
          "object": "60806040526040518060400160405280600581526020017f302e302e31000000000000000000000000000000000000000000000000000000815250600090816200004a9190620002de565b5060006001553480156200005d57600080fd5b50620003c5565b600081519050919050565b7f4e487b7100000000000000000000000000000000000000000000000000000000600052604160045260246000fd5b7f4e487b7100000000000000000000000000000000000000000000000000000000600052602260045260246000fd5b60006002820490506001821680620000e657607f821691505b602082108103620000fc57620000fb6200009e565b5b50919050565b60008190508160005260206000209050919050565b60006020601f8301049050919050565b600082821b905092915050565b600060088302620001667fffffffffffffffffffffffffffffffffffffffffffffffffffffffffffffffff8262000127565b62000172868362000127565b95508019841693508086168417925050509392505050565b6000819050919050565b6000819050919050565b6000620001bf620001b9620001b3846200018a565b62000194565b6200018a565b9050919050565b6000819050919050565b620001db836200019e565b620001f3620001ea82620001c6565b84845462000134565b825550505050565b600090565b6200020a620001fb565b62000217818484620001d0565b505050565b5b818110156200023f576200023360008262000200565b6001810190506200021d565b5050565b601f8211156200028e57620002588162000102565b620002638462000117565b8101602085101562000273578190505b6200028b620002828562000117565b8301826200021c565b50505b505050565b600082821c905092915050565b6000620002b36000198460080262000293565b1980831691505092915050565b6000620002ce8383620002a0565b9150826002028217905092915050565b620002e98262000064565b67ffffffffffffffff8111156200030557620003046200006f565b5b620003118254620000cd565b6200031e82828562000243565b600060209050601f83116001811462000356576000841562000341578287015190505b6200034d8582620002c0565b865550620003bd565b601f198416620003668662000102565b60005b82811015620003905784890151825560018201915060208501945060208101905062000369565b86831015620003b05784890151620003ac601f891682620002a0565b8355505b6001600288020188555050505b505050505050565b61221880620003d56000396000f3fe6080604052600436106101815760003560e01c80639298ad10116100d1578063b0a98b801161008a578063d45ed9df11610064578063d45ed9df14610656578063d81105aa14610693578063de7e5edb146106d1578063e2f6a2151461070f57610181565b8063b0a98b801461059e578063d1c0e899146105db578063d1d3886a1461061857610181565b80639298ad10146104515780639b027ce31461048e5780639b387437146104cb5780639e1601b514610509578063a5da5e2214610520578063b0344da81461056157610181565b80634c1807b21161013e57806361bc221a1161011857806361bc221a1461036d578063768458eb146103985780637eacd563146103d65780638993c7d11461041457610181565b80634c1807b2146102ee57806352dfbd2a1461032b57806354fd4d501461034257610181565b806302e453de146101865780632867926c146101c457806339006211146102015780633b28e253146102365780634238304b146102735780634b0b4927146102b1575b600080fd5b34801561019257600080fd5b506101ad60048036038101906101a89190610aab565b61074c565b6040516101bb929190610ca0565b60405180910390f35b3480156101d057600080fd5b506101eb60048036038101906101e69190610ce6565b61075c565b6040516101f89190610d7d565b60405180910390f35b61021b60048036038101906102169190610e44565b610765565b60405161022d969594939291906112e7565b60405180910390f35b34801561024257600080fd5b5061025d60048036038101906102589190610ce6565b6107a4565b60405161026a9190610d7d565b60405180910390f35b34801561027f57600080fd5b5061029a60048036038101906102959190611394565b6107c5565b6040516102a8929190611466565b60405180910390f35b3480156102bd57600080fd5b506102d860048036038101906102d391906114ac565b6107d5565b6040516102e59190611566565b60405180910390f35b3480156102fa57600080fd5b50610315600480360381019061031091906115a6565b6107f6565b6040516103229190611612565b60405180910390f35b34801561033757600080fd5b50610340610817565b005b34801561034e57600080fd5b50610357610831565b604051610364919061169b565b60405180910390f35b34801561037957600080fd5b506103826108bf565b60405161038f91906116bd565b60405180910390f35b3480156103a457600080fd5b506103bf60048036038101906103ba919061172e565b6108c5565b6040516103cd9291906117e9565b60405180910390f35b3480156103e257600080fd5b506103fd60048036038101906103f89190610aab565b6108ed565b60405161040b929190610ca0565b60405180910390f35b34801561042057600080fd5b5061043b6004803603810190610436919061182f565b610915565b6040516104489190611a0b565b60405180910390f35b34801561045d57600080fd5b5061047860048036038101906104739190611a2d565b610936565b60405161048591906116bd565b60405180910390f35b34801561049a57600080fd5b506104b560048036038101906104b0919061182f565b610958565b6040516104c29190611a0b565b60405180910390f35b3480156104d757600080fd5b506104f260048036038101906104ed9190611ab0565b610961565b604051610500929190611b9b565b60405180910390f35b34801561051557600080fd5b5061051e610971565b005b34801561052c57600080fd5b5061054760048036038101906105429190610e44565b610973565b604051610558959493929190611bbf565b60405180910390f35b34801561056d57600080fd5b50610588600480360381019061058391906114ac565b610996565b6040516105959190611566565b60405180910390f35b3480156105aa57600080fd5b506105c560048036038101906105c09190611a2d565b61099f565b6040516105d291906116bd565b60405180910390f35b3480156105e757600080fd5b5061060260048036038101906105fd9190611c28565b6109a9565b60405161060f91906120e9565b60405180910390f35b34801561062457600080fd5b5061063f600480360381019061063a919061172e565b6109b2565b60405161064d9291906117e9565b60405180910390f35b34801561066257600080fd5b5061067d60048036038101906106789190611c28565b6109c2565b60405161068a91906120e9565b60405180910390f35b34801561069f57600080fd5b506106ba60048036038101906106b59190611ab0565b6109e3565b6040516106c8929190611b9b565b60405180910390f35b3480156106dd57600080fd5b506106f860048036038101906106f39190611394565b610a0b565b604051610706929190611466565b60405180910390f35b34801561071b57600080fd5b50610736600480360381019061073191906115a6565b610a33565b6040516107439190611612565b60405180910390f35b3660008383915091509250929050565b36819050919050565b3660008036600080600160008154809291906107809061213a565b91905055508a8a8a8a8a349550955095509550955095509550955095509550955095565b36600160008154809291906107b89061213a565b9190505550819050919050565b3660008383915091509250929050565b36600160008154809291906107e99061213a565b9190505550819050919050565b366001600081548092919061080a9061213a565b9190505550819050919050565b6001600081548092919061082a9061213a565b9190505550565b6000805461083e906121b1565b80601f016020809104026020016040519081016040528092919081815260200182805461086a906121b1565b80156108b75780601f1061088c576101008083540402835291602001916108b7565b820191906000526020600020905b81548152906001019060200180831161089a57829003601f168201915b505050505081565b60015481565b366000600160008154809291906108db9061213a565b91905055508383915091509250929050565b366000600160008154809291906109039061213a565b91905055508383915091509250929050565b36600160008154809291906109299061213a565b9190505550819050919050565b60006001600081548092919061094b9061213a565b9190505550819050919050565b36819050919050565b3660008383915091509250929050565b565b366000803660008989898989945094509450945094509550955095509550959050565b36819050919050565b6000819050919050565b36819050919050565b3660008383915091509250929050565b36600160008154809291906109d69061213a565b9190505550819050919050565b366000600160008154809291906109f99061213a565b91905055508383915091509250929050565b36600060016000815480929190610a219061213a565b91905055508383915091509250929050565b36819050919050565b600080fd5b600080fd5b600080fd5b600080fd5b600080fd5b60008083601f840112610a6b57610a6a610a46565b5b8235905067ffffffffffffffff811115610a8857610a87610a4b565b5b602083019150836080820283011115610aa457610aa3610a50565b5b9250929050565b60008060208385031215610ac257610ac1610a3c565b5b600083013567ffffffffffffffff811115610ae057610adf610a41565b5b610aec85828601610a55565b92509250509250929050565b600082825260208201905092915050565b6000819050919050565b600060049050919050565b600081905092915050565b6000819050919050565b6000819050919050565b610b4681610b33565b82525050565b6000610b588383610b3d565b60208301905092915050565b610b6d81610b33565b8114610b7857600080fd5b50565b600081359050610b8a81610b64565b92915050565b6000610b9f6020840184610b7b565b905092915050565b6000602082019050919050565b610bbd81610b13565b610bc78184610b1e565b9250610bd282610b29565b8060005b83811015610c0b57610be88284610b90565b610bf28782610b4c565b9650610bfd83610ba7565b925050600181019050610bd6565b505050505050565b6000610c1f8383610bb4565b60808301905092915050565b600082905092915050565b6000608082019050919050565b6000610c4f8385610af8565b9350610c5a82610b09565b8060005b85811015610c9357610c708284610c2b565b610c7a8882610c13565b9750610c8583610c36565b925050600181019050610c5e565b5085925050509392505050565b60006020820190508181036000830152610cbb818486610c43565b90509392505050565b600081905082602060040282011115610ce057610cdf610a50565b5b92915050565b600060808284031215610cfc57610cfb610a3c565b5b6000610d0a84828501610cc4565b91505092915050565b600081905092915050565b610d2781610b13565b610d318184610d13565b9250610d3c82610b29565b8060005b83811015610d7557610d528284610b90565b610d5c8782610b4c565b9650610d6783610ba7565b925050600181019050610d40565b505050505050565b6000608082019050610d926000830184610d1e565b92915050565b60008083601f840112610dae57610dad610a46565b5b8235905067ffffffffffffffff811115610dcb57610dca610a4b565b5b602083019150836020820283011115610de757610de6610a50565b5b9250929050565b60008083601f840112610e0457610e03610a46565b5b8235905067ffffffffffffffff811115610e2157610e20610a4b565b5b602083019150836001820283011115610e3d57610e3c610a50565b5b9250929050565b600080600080600060608688031215610e6057610e5f610a3c565b5b600086013567ffffffffffffffff811115610e7e57610e7d610a41565b5b610e8a88828901610d98565b95509550506020610e9d88828901610b7b565b935050604086013567ffffffffffffffff811115610ebe57610ebd610a41565b5b610eca88828901610dee565b92509250509295509295909350565b600082825260208201905092915050565b6000819050919050565b600082905092915050565b6000819050919050565b610f1281610eff565b8114610f1d57600080fd5b50565b600081359050610f2f81610f09565b92915050565b6000610f446020840184610f20565b905092915050565b610f5581610eff565b82525050565b60408201610f6c6000830183610b90565b610f796000850182610b3d565b50610f876020830183610f35565b610f946020850182610f4c565b50505050565b600082905092915050565b600060049050919050565b600081905092915050565b6000819050919050565b6000610fd18383610f5b565b60408301905092915050565b6000604082019050919050565b610ff381610fa5565b610ffd8184610fb0565b925061100882610fbb565b8060005b838110156110415761101e8284610ef4565b6110288782610fc5565b965061103383610fdd565b92505060018101905061100c565b505050505050565b600080fd5b600080fd5b600080fd5b6000808335600160200384360303811261107557611074611053565b5b83810192508235915060208301925067ffffffffffffffff82111561109d5761109c611049565b5b6040820236038313156110b3576110b261104e565b5b509250929050565b600082825260208201905092915050565b6000819050919050565b6000604082019050919050565b60006110ef83856110bb565b93506110fa826110cc565b8060005b85811015611133576111108284610ef4565b61111a8882610fc5565b9750611125836110d6565b9250506001810190506110fe565b5085925050509392505050565b600061016083016111546000840184610ef4565b6111616000860182610f5b565b5061116f6040840184610f9a565b61117c6040860182610fea565b5061118b610140840184611058565b85830361014087015261119f8382846110e3565b925050508091505092915050565b60006111b98383611140565b905092915050565b600082356001610160038336030381126111de576111dd611053565b5b82810191505092915050565b6000602082019050919050565b60006112038385610ed9565b93508360208402850161121584610eea565b8060005b8781101561125957848403895261123082846111c1565b61123a85826111ad565b9450611245836111ea565b925060208a01995050600181019050611219565b50829750879450505050509392505050565b61127481610b33565b82525050565b600082825260208201905092915050565b82818337600083830152505050565b6000601f19601f8301169050919050565b60006112b7838561127a565b93506112c483858461128b565b6112cd8361129a565b840190509392505050565b6112e181610eff565b82525050565b6000608082019050818103600083015261130281888a6111f7565b9050611311602083018761126b565b81810360408301526113248185876112ab565b905061133360608301846112d8565b979650505050505050565b60008083601f84011261135457611353610a46565b5b8235905067ffffffffffffffff81111561137157611370610a4b565b5b60208301915083602082028301111561138d5761138c610a50565b5b9250929050565b600080602083850312156113ab576113aa610a3c565b5b600083013567ffffffffffffffff8111156113c9576113c8610a41565b5b6113d58582860161133e565b92509250509250929050565b600082825260208201905092915050565b6000819050919050565b6000602082019050919050565b600061141583856113e1565b9350611420826113f2565b8060005b85811015611459576114368284610b90565b6114408882610b4c565b975061144b836113fc565b925050600181019050611424565b5085925050509392505050565b60006020820190508181036000830152611481818486611409565b90509392505050565b6000819050826080600402820111156114a6576114a5610a50565b5b92915050565b600061020082840312156114c3576114c2610a3c565b5b60006114d18482850161148a565b91505092915050565b600060049050919050565b600081905092915050565b6000819050919050565b6000608082019050919050565b611510816114da565b61151a81846114e5565b9250611525826114f0565b8060005b8381101561155e5761153b8284610c2b565b6115458782610c13565b9650611550836114fa565b925050600181019050611529565b505050505050565b60006102008201905061157c6000830184611507565b92915050565b600080fd5b60006040828403121561159d5761159c611582565b5b81905092915050565b6000604082840312156115bc576115bb610a3c565b5b60006115ca84828501611587565b91505092915050565b604082016115e46000830183610b90565b6115f16000850182610b3d565b506115ff6020830183610f35565b61160c6020850182610f4c565b50505050565b600060408201905061162760008301846115d3565b92915050565b600081519050919050565b60005b8381101561165657808201518184015260208101905061163b565b60008484015250505050565b600061166d8261162d565b611677818561127a565b9350611687818560208601611638565b6116908161129a565b840191505092915050565b600060208201905081810360008301526116b58184611662565b905092915050565b60006020820190506116d2600083018461126b565b92915050565b60008083601f8401126116ee576116ed610a46565b5b8235905067ffffffffffffffff81111561170b5761170a610a4b565b5b60208301915083604082028301111561172757611726610a50565b5b9250929050565b6000806020838503121561174557611744610a3c565b5b600083013567ffffffffffffffff81111561176357611762610a41565b5b61176f858286016116d8565b92509250509250929050565b600082825260208201905092915050565b6000611798838561177b565b93506117a3826110cc565b8060005b858110156117dc576117b98284610ef4565b6117c38882610fc5565b97506117ce836110d6565b9250506001810190506117a7565b5085925050509392505050565b6000602082019050818103600083015261180481848661178c565b90509392505050565b60008190508260206004028201111561182957611828610a50565b5b92915050565b60006020828403121561184557611844610a3c565b5b600082013567ffffffffffffffff81111561186357611862610a41565b5b61186f8482850161180d565b91505092915050565b600060049050919050565b600081905092915050565b6000819050919050565b600082825260208201905092915050565b60006118b58385611898565b93506118c0826113f2565b8060005b858110156118f9576118d68284610b90565b6118e08882610b4c565b97506118eb836113fc565b9250506001810190506118c4565b5085925050509392505050565b60006119138484846118a9565b90509392505050565b6000808335600160200384360303811261193957611938611053565b5b83810192508235915060208301925067ffffffffffffffff82111561196157611960611049565b5b6020820236038313156119775761197661104e565b5b509250929050565b6000602082019050919050565b600061199782611878565b6119a18185611883565b9350836020820285016119b38561188e565b8060005b858110156119f95784840389526119ce828461191c565b6119d9868284611906565b95506119e48461197f565b935060208b019a5050506001810190506119b7565b50829750879550505050505092915050565b60006020820190508181036000830152611a25818461198c565b905092915050565b600060208284031215611a4357611a42610a3c565b5b6000611a5184828501610b7b565b91505092915050565b60008083601f840112611a7057611a6f610a46565b5b8235905067ffffffffffffffff811115611a8d57611a8c610a4b565b5b602083019150836020820283011115611aa957611aa8610a50565b5b9250929050565b60008060208385031215611ac757611ac6610a3c565b5b600083013567ffffffffffffffff811115611ae557611ae4610a41565b5b611af185828601611a5a565b92509250509250929050565b600082825260208201905092915050565b6000819050919050565b6000602082019050919050565b6000611b318385611afd565b935083602084028501611b4384611b0e565b8060005b87811015611b89578484038952611b5e828461191c565b611b69868284611906565b9550611b7484611b18565b935060208b019a505050600181019050611b47565b50829750879450505050509392505050565b60006020820190508181036000830152611bb6818486611b25565b90509392505050565b60006060820190508181036000830152611bda8187896111f7565b9050611be9602083018661126b565b8181036040830152611bfc8184866112ab565b90509695505050505050565b60006101208284031215611c1f57611c1e611582565b5b81905092915050565b600060208284031215611c3e57611c3d610a3c565b5b600082013567ffffffffffffffff811115611c5c57611c5b610a41565b5b611c6884828501611c08565b91505092915050565b60008160000b9050919050565b611c8781611c71565b8114611c9257600080fd5b50565b600081359050611ca481611c7e565b92915050565b6000611cb96020840184611c95565b905092915050565b611cca81611c71565b82525050565b600060ff82169050919050565b611ce681611cd0565b8114611cf157600080fd5b50565b600081359050611d0381611cdd565b92915050565b6000611d186020840184611cf4565b905092915050565b611d2981611cd0565b82525050565b600073ffffffffffffffffffffffffffffffffffffffff82169050919050565b6000611d5a82611d2f565b9050919050565b611d6a81611d4f565b8114611d7557600080fd5b50565b600081359050611d8781611d61565b92915050565b6000611d9c6020840184611d78565b905092915050565b611dad81611d4f565b82525050565b60008115159050919050565b611dc881611db3565b8114611dd357600080fd5b50565b600081359050611de581611dbf565b92915050565b6000611dfa6020840184611dd6565b905092915050565b611e0b81611db3565b82525050565b60008083356001602003843603038112611e2e57611e2d611053565b5b83810192508235915060208301925067ffffffffffffffff821115611e5657611e55611049565b5b600182023603831315611e6c57611e6b61104e565b5b509250929050565b600082825260208201905092915050565b6000611e918385611e74565b9350611e9e83858461128b565b611ea78361129a565b840190509392505050565b60007fffffffffffffffff00000000000000000000000000000000000000000000000082169050919050565b611ee781611eb2565b8114611ef257600080fd5b50565b600081359050611f0481611ede565b92915050565b6000611f196020840184611ef5565b905092915050565b611f2a81611eb2565b82525050565b60008083356001602003843603038112611f4d57611f4c611053565b5b83810192508235915060208301925067ffffffffffffffff821115611f7557611f74611049565b5b600182023603831315611f8b57611f8a61104e565b5b509250929050565b600082825260208201905092915050565b6000611fb08385611f93565b9350611fbd83858461128b565b611fc68361129a565b840190509392505050565b60006101208301611fe56000840184610b90565b611ff26000860182610b3d565b506120006020840184611caa565b61200d6020860182611cc1565b5061201b6040840184610f35565b6120286040860182610f4c565b506120366060840184611d09565b6120436060860182611d20565b506120516080840184611d8d565b61205e6080860182611da4565b5061206c60a0840184611deb565b61207960a0860182611e02565b5061208760c0840184611e11565b85830360c087015261209a838284611e85565b925050506120ab60e0840184611f0a565b6120b860e0860182611f21565b506120c7610100840184611f30565b8583036101008701526120db838284611fa4565b925050508091505092915050565b600060208201905081810360008301526121038184611fd1565b905092915050565b7f4e487b7100000000000000000000000000000000000000000000000000000000600052601160045260246000fd5b600061214582610b33565b91507f7fffffffffffffffffffffffffffffffffffffffffffffffffffffffffffffff82036121775761217661210b565b5b600182019050919050565b7f4e487b7100000000000000000000000000000000000000000000000000000000600052602260045260246000fd5b600060028204905060018216806121c957607f821691505b6020821081036121dc576121db612182565b5b5091905056fea2646970667358221220845c632adcdf8c44e92de624cc2e3c8f6d58629bb50816d188c4aa3b81ea773c64736f6c63430008180033",
          "opcodes": "PUSH1 0x80 PUSH1 0x40 MSTORE PUSH1 0x40 MLOAD DUP1 PUSH1 0x40 ADD PUSH1 0x40 MSTORE DUP1 PUSH1 0x5 DUP2 MSTORE PUSH1 0x20 ADD PUSH32 0x302E302E31000000000000000000000000000000000000000000000000000000 DUP2 MSTORE POP PUSH1 0x0 SWAP1 DUP2 PUSH3 0x4A SWAP2 SWAP1 PUSH3 0x2DE JUMP JUMPDEST POP PUSH1 0x0 PUSH1 0x1 SSTORE CALLVALUE DUP1 ISZERO PUSH3 0x5D JUMPI PUSH1 0x0 DUP1 REVERT JUMPDEST POP PUSH3 0x3C5 JUMP JUMPDEST PUSH1 0x0 DUP2 MLOAD SWAP1 POP SWAP2 SWAP1 POP JUMP JUMPDEST PUSH32 0x4E487B7100000000000000000000000000000000000000000000000000000000 PUSH1 0x0 MSTORE PUSH1 0x41 PUSH1 0x4 MSTORE PUSH1 0x24 PUSH1 0x0 REVERT JUMPDEST PUSH32 0x4E487B7100000000000000000000000000000000000000000000000000000000 PUSH1 0x0 MSTORE PUSH1 0x22 PUSH1 0x4 MSTORE PUSH1 0x24 PUSH1 0x0 REVERT JUMPDEST PUSH1 0x0 PUSH1 0x2 DUP3 DIV SWAP1 POP PUSH1 0x1 DUP3 AND DUP1 PUSH3 0xE6 JUMPI PUSH1 0x7F DUP3 AND SWAP2 POP JUMPDEST PUSH1 0x20 DUP3 LT DUP2 SUB PUSH3 0xFC JUMPI PUSH3 0xFB PUSH3 0x9E JUMP JUMPDEST JUMPDEST POP SWAP2 SWAP1 POP JUMP JUMPDEST PUSH1 0x0 DUP2 SWAP1 POP DUP2 PUSH1 0x0 MSTORE PUSH1 0x20 PUSH1 0x0 KECCAK256 SWAP1 POP SWAP2 SWAP1 POP JUMP JUMPDEST PUSH1 0x0 PUSH1 0x20 PUSH1 0x1F DUP4 ADD DIV SWAP1 POP SWAP2 SWAP1 POP JUMP JUMPDEST PUSH1 0x0 DUP3 DUP3 SHL SWAP1 POP SWAP3 SWAP2 POP POP JUMP JUMPDEST PUSH1 0x0 PUSH1 0x8 DUP4 MUL PUSH3 0x166 PUSH32 0xFFFFFFFFFFFFFFFFFFFFFFFFFFFFFFFFFFFFFFFFFFFFFFFFFFFFFFFFFFFFFFFF DUP3 PUSH3 0x127 JUMP JUMPDEST PUSH3 0x172 DUP7 DUP4 PUSH3 0x127 JUMP JUMPDEST SWAP6 POP DUP1 NOT DUP5 AND SWAP4 POP DUP1 DUP7 AND DUP5 OR SWAP3 POP POP POP SWAP4 SWAP3 POP POP POP JUMP JUMPDEST PUSH1 0x0 DUP2 SWAP1 POP SWAP2 SWAP1 POP JUMP JUMPDEST PUSH1 0x0 DUP2 SWAP1 POP SWAP2 SWAP1 POP JUMP JUMPDEST PUSH1 0x0 PUSH3 0x1BF PUSH3 0x1B9 PUSH3 0x1B3 DUP5 PUSH3 0x18A JUMP JUMPDEST PUSH3 0x194 JUMP JUMPDEST PUSH3 0x18A JUMP JUMPDEST SWAP1 POP SWAP2 SWAP1 POP JUMP JUMPDEST PUSH1 0x0 DUP2 SWAP1 POP SWAP2 SWAP1 POP JUMP JUMPDEST PUSH3 0x1DB DUP4 PUSH3 0x19E JUMP JUMPDEST PUSH3 0x1F3 PUSH3 0x1EA DUP3 PUSH3 0x1C6 JUMP JUMPDEST DUP5 DUP5 SLOAD PUSH3 0x134 JUMP JUMPDEST DUP3 SSTORE POP POP POP POP JUMP JUMPDEST PUSH1 0x0 SWAP1 JUMP JUMPDEST PUSH3 0x20A PUSH3 0x1FB JUMP JUMPDEST PUSH3 0x217 DUP2 DUP5 DUP5 PUSH3 0x1D0 JUMP JUMPDEST POP POP POP JUMP JUMPDEST JUMPDEST DUP2 DUP2 LT ISZERO PUSH3 0x23F JUMPI PUSH3 0x233 PUSH1 0x0 DUP3 PUSH3 0x200 JUMP JUMPDEST PUSH1 0x1 DUP2 ADD SWAP1 POP PUSH3 0x21D JUMP JUMPDEST POP POP JUMP JUMPDEST PUSH1 0x1F DUP3 GT ISZERO PUSH3 0x28E JUMPI PUSH3 0x258 DUP2 PUSH3 0x102 JUMP JUMPDEST PUSH3 0x263 DUP5 PUSH3 0x117 JUMP JUMPDEST DUP2 ADD PUSH1 0x20 DUP6 LT ISZERO PUSH3 0x273 JUMPI DUP2 SWAP1 POP JUMPDEST PUSH3 0x28B PUSH3 0x282 DUP6 PUSH3 0x117 JUMP JUMPDEST DUP4 ADD DUP3 PUSH3 0x21C JUMP JUMPDEST POP POP JUMPDEST POP POP POP JUMP JUMPDEST PUSH1 0x0 DUP3 DUP3 SHR SWAP1 POP SWAP3 SWAP2 POP POP JUMP JUMPDEST PUSH1 0x0 PUSH3 0x2B3 PUSH1 0x0 NOT DUP5 PUSH1 0x8 MUL PUSH3 0x293 JUMP JUMPDEST NOT DUP1 DUP4 AND SWAP2 POP POP SWAP3 SWAP2 POP POP JUMP JUMPDEST PUSH1 0x0 PUSH3 0x2CE DUP4 DUP4 PUSH3 0x2A0 JUMP JUMPDEST SWAP2 POP DUP3 PUSH1 0x2 MUL DUP3 OR SWAP1 POP SWAP3 SWAP2 POP POP JUMP JUMPDEST PUSH3 0x2E9 DUP3 PUSH3 0x64 JUMP JUMPDEST PUSH8 0xFFFFFFFFFFFFFFFF DUP2 GT ISZERO PUSH3 0x305 JUMPI PUSH3 0x304 PUSH3 0x6F JUMP JUMPDEST JUMPDEST PUSH3 0x311 DUP3 SLOAD PUSH3 0xCD JUMP JUMPDEST PUSH3 0x31E DUP3 DUP3 DUP6 PUSH3 0x243 JUMP JUMPDEST PUSH1 0x0 PUSH1 0x20 SWAP1 POP PUSH1 0x1F DUP4 GT PUSH1 0x1 DUP2 EQ PUSH3 0x356 JUMPI PUSH1 0x0 DUP5 ISZERO PUSH3 0x341 JUMPI DUP3 DUP8 ADD MLOAD SWAP1 POP JUMPDEST PUSH3 0x34D DUP6 DUP3 PUSH3 0x2C0 JUMP JUMPDEST DUP7 SSTORE POP PUSH3 0x3BD JUMP JUMPDEST PUSH1 0x1F NOT DUP5 AND PUSH3 0x366 DUP7 PUSH3 0x102 JUMP JUMPDEST PUSH1 0x0 JUMPDEST DUP3 DUP2 LT ISZERO PUSH3 0x390 JUMPI DUP5 DUP10 ADD MLOAD DUP3 SSTORE PUSH1 0x1 DUP3 ADD SWAP2 POP PUSH1 0x20 DUP6 ADD SWAP5 POP PUSH1 0x20 DUP2 ADD SWAP1 POP PUSH3 0x369 JUMP JUMPDEST DUP7 DUP4 LT ISZERO PUSH3 0x3B0 JUMPI DUP5 DUP10 ADD MLOAD PUSH3 0x3AC PUSH1 0x1F DUP10 AND DUP3 PUSH3 0x2A0 JUMP JUMPDEST DUP4 SSTORE POP JUMPDEST PUSH1 0x1 PUSH1 0x2 DUP9 MUL ADD DUP9 SSTORE POP POP POP JUMPDEST POP POP POP POP POP POP JUMP JUMPDEST PUSH2 0x2218 DUP1 PUSH3 0x3D5 PUSH1 0x0 CODECOPY PUSH1 0x0 RETURN INVALID PUSH1 0x80 PUSH1 0x40 MSTORE PUSH1 0x4 CALLDATASIZE LT PUSH2 0x181 JUMPI PUSH1 0x0 CALLDATALOAD PUSH1 0xE0 SHR DUP1 PUSH4 0x9298AD10 GT PUSH2 0xD1 JUMPI DUP1 PUSH4 0xB0A98B80 GT PUSH2 0x8A JUMPI DUP1 PUSH4 0xD45ED9DF GT PUSH2 0x64 JUMPI DUP1 PUSH4 0xD45ED9DF EQ PUSH2 0x656 JUMPI DUP1 PUSH4 0xD81105AA EQ PUSH2 0x693 JUMPI DUP1 PUSH4 0xDE7E5EDB EQ PUSH2 0x6D1 JUMPI DUP1 PUSH4 0xE2F6A215 EQ PUSH2 0x70F JUMPI PUSH2 0x181 JUMP JUMPDEST DUP1 PUSH4 0xB0A98B80 EQ PUSH2 0x59E JUMPI DUP1 PUSH4 0xD1C0E899 EQ PUSH2 0x5DB JUMPI DUP1 PUSH4 0xD1D3886A EQ PUSH2 0x618 JUMPI PUSH2 0x181 JUMP JUMPDEST DUP1 PUSH4 0x9298AD10 EQ PUSH2 0x451 JUMPI DUP1 PUSH4 0x9B027CE3 EQ PUSH2 0x48E JUMPI DUP1 PUSH4 0x9B387437 EQ PUSH2 0x4CB JUMPI DUP1 PUSH4 0x9E1601B5 EQ PUSH2 0x509 JUMPI DUP1 PUSH4 0xA5DA5E22 EQ PUSH2 0x520 JUMPI DUP1 PUSH4 0xB0344DA8 EQ PUSH2 0x561 JUMPI PUSH2 0x181 JUMP JUMPDEST DUP1 PUSH4 0x4C1807B2 GT PUSH2 0x13E JUMPI DUP1 PUSH4 0x61BC221A GT PUSH2 0x118 JUMPI DUP1 PUSH4 0x61BC221A EQ PUSH2 0x36D JUMPI DUP1 PUSH4 0x768458EB EQ PUSH2 0x398 JUMPI DUP1 PUSH4 0x7EACD563 EQ PUSH2 0x3D6 JUMPI DUP1 PUSH4 0x8993C7D1 EQ PUSH2 0x414 JUMPI PUSH2 0x181 JUMP JUMPDEST DUP1 PUSH4 0x4C1807B2 EQ PUSH2 0x2EE JUMPI DUP1 PUSH4 0x52DFBD2A EQ PUSH2 0x32B JUMPI DUP1 PUSH4 0x54FD4D50 EQ PUSH2 0x342 JUMPI PUSH2 0x181 JUMP JUMPDEST DUP1 PUSH4 0x2E453DE EQ PUSH2 0x186 JUMPI DUP1 PUSH4 0x2867926C EQ PUSH2 0x1C4 JUMPI DUP1 PUSH4 0x39006211 EQ PUSH2 0x201 JUMPI DUP1 PUSH4 0x3B28E253 EQ PUSH2 0x236 JUMPI DUP1 PUSH4 0x4238304B EQ PUSH2 0x273 JUMPI DUP1 PUSH4 0x4B0B4927 EQ PUSH2 0x2B1 JUMPI JUMPDEST PUSH1 0x0 DUP1 REVERT JUMPDEST CALLVALUE DUP1 ISZERO PUSH2 0x192 JUMPI PUSH1 0x0 DUP1 REVERT JUMPDEST POP PUSH2 0x1AD PUSH1 0x4 DUP1 CALLDATASIZE SUB DUP2 ADD SWAP1 PUSH2 0x1A8 SWAP2 SWAP1 PUSH2 0xAAB JUMP JUMPDEST PUSH2 0x74C JUMP JUMPDEST PUSH1 0x40 MLOAD PUSH2 0x1BB SWAP3 SWAP2 SWAP1 PUSH2 0xCA0 JUMP JUMPDEST PUSH1 0x40 MLOAD DUP1 SWAP2 SUB SWAP1 RETURN JUMPDEST CALLVALUE DUP1 ISZERO PUSH2 0x1D0 JUMPI PUSH1 0x0 DUP1 REVERT JUMPDEST POP PUSH2 0x1EB PUSH1 0x4 DUP1 CALLDATASIZE SUB DUP2 ADD SWAP1 PUSH2 0x1E6 SWAP2 SWAP1 PUSH2 0xCE6 JUMP JUMPDEST PUSH2 0x75C JUMP JUMPDEST PUSH1 0x40 MLOAD PUSH2 0x1F8 SWAP2 SWAP1 PUSH2 0xD7D JUMP JUMPDEST PUSH1 0x40 MLOAD DUP1 SWAP2 SUB SWAP1 RETURN JUMPDEST PUSH2 0x21B PUSH1 0x4 DUP1 CALLDATASIZE SUB DUP2 ADD SWAP1 PUSH2 0x216 SWAP2 SWAP1 PUSH2 0xE44 JUMP JUMPDEST PUSH2 0x765 JUMP JUMPDEST PUSH1 0x40 MLOAD PUSH2 0x22D SWAP7 SWAP6 SWAP5 SWAP4 SWAP3 SWAP2 SWAP1 PUSH2 0x12E7 JUMP JUMPDEST PUSH1 0x40 MLOAD DUP1 SWAP2 SUB SWAP1 RETURN JUMPDEST CALLVALUE DUP1 ISZERO PUSH2 0x242 JUMPI PUSH1 0x0 DUP1 REVERT JUMPDEST POP PUSH2 0x25D PUSH1 0x4 DUP1 CALLDATASIZE SUB DUP2 ADD SWAP1 PUSH2 0x258 SWAP2 SWAP1 PUSH2 0xCE6 JUMP JUMPDEST PUSH2 0x7A4 JUMP JUMPDEST PUSH1 0x40 MLOAD PUSH2 0x26A SWAP2 SWAP1 PUSH2 0xD7D JUMP JUMPDEST PUSH1 0x40 MLOAD DUP1 SWAP2 SUB SWAP1 RETURN JUMPDEST CALLVALUE DUP1 ISZERO PUSH2 0x27F JUMPI PUSH1 0x0 DUP1 REVERT JUMPDEST POP PUSH2 0x29A PUSH1 0x4 DUP1 CALLDATASIZE SUB DUP2 ADD SWAP1 PUSH2 0x295 SWAP2 SWAP1 PUSH2 0x1394 JUMP JUMPDEST PUSH2 0x7C5 JUMP JUMPDEST PUSH1 0x40 MLOAD PUSH2 0x2A8 SWAP3 SWAP2 SWAP1 PUSH2 0x1466 JUMP JUMPDEST PUSH1 0x40 MLOAD DUP1 SWAP2 SUB SWAP1 RETURN JUMPDEST CALLVALUE DUP1 ISZERO PUSH2 0x2BD JUMPI PUSH1 0x0 DUP1 REVERT JUMPDEST POP PUSH2 0x2D8 PUSH1 0x4 DUP1 CALLDATASIZE SUB DUP2 ADD SWAP1 PUSH2 0x2D3 SWAP2 SWAP1 PUSH2 0x14AC JUMP JUMPDEST PUSH2 0x7D5 JUMP JUMPDEST PUSH1 0x40 MLOAD PUSH2 0x2E5 SWAP2 SWAP1 PUSH2 0x1566 JUMP JUMPDEST PUSH1 0x40 MLOAD DUP1 SWAP2 SUB SWAP1 RETURN JUMPDEST CALLVALUE DUP1 ISZERO PUSH2 0x2FA JUMPI PUSH1 0x0 DUP1 REVERT JUMPDEST POP PUSH2 0x315 PUSH1 0x4 DUP1 CALLDATASIZE SUB DUP2 ADD SWAP1 PUSH2 0x310 SWAP2 SWAP1 PUSH2 0x15A6 JUMP JUMPDEST PUSH2 0x7F6 JUMP JUMPDEST PUSH1 0x40 MLOAD PUSH2 0x322 SWAP2 SWAP1 PUSH2 0x1612 JUMP JUMPDEST PUSH1 0x40 MLOAD DUP1 SWAP2 SUB SWAP1 RETURN JUMPDEST CALLVALUE DUP1 ISZERO PUSH2 0x337 JUMPI PUSH1 0x0 DUP1 REVERT JUMPDEST POP PUSH2 0x340 PUSH2 0x817 JUMP JUMPDEST STOP JUMPDEST CALLVALUE DUP1 ISZERO PUSH2 0x34E JUMPI PUSH1 0x0 DUP1 REVERT JUMPDEST POP PUSH2 0x357 PUSH2 0x831 JUMP JUMPDEST PUSH1 0x40 MLOAD PUSH2 0x364 SWAP2 SWAP1 PUSH2 0x169B JUMP JUMPDEST PUSH1 0x40 MLOAD DUP1 SWAP2 SUB SWAP1 RETURN JUMPDEST CALLVALUE DUP1 ISZERO PUSH2 0x379 JUMPI PUSH1 0x0 DUP1 REVERT JUMPDEST POP PUSH2 0x382 PUSH2 0x8BF JUMP JUMPDEST PUSH1 0x40 MLOAD PUSH2 0x38F SWAP2 SWAP1 PUSH2 0x16BD JUMP JUMPDEST PUSH1 0x40 MLOAD DUP1 SWAP2 SUB SWAP1 RETURN JUMPDEST CALLVALUE DUP1 ISZERO PUSH2 0x3A4 JUMPI PUSH1 0x0 DUP1 REVERT JUMPDEST POP PUSH2 0x3BF PUSH1 0x4 DUP1 CALLDATASIZE SUB DUP2 ADD SWAP1 PUSH2 0x3BA SWAP2 SWAP1 PUSH2 0x172E JUMP JUMPDEST PUSH2 0x8C5 JUMP JUMPDEST PUSH1 0x40 MLOAD PUSH2 0x3CD SWAP3 SWAP2 SWAP1 PUSH2 0x17E9 JUMP JUMPDEST PUSH1 0x40 MLOAD DUP1 SWAP2 SUB SWAP1 RETURN JUMPDEST CALLVALUE DUP1 ISZERO PUSH2 0x3E2 JUMPI PUSH1 0x0 DUP1 REVERT JUMPDEST POP PUSH2 0x3FD PUSH1 0x4 DUP1 CALLDATASIZE SUB DUP2 ADD SWAP1 PUSH2 0x3F8 SWAP2 SWAP1 PUSH2 0xAAB JUMP JUMPDEST PUSH2 0x8ED JUMP JUMPDEST PUSH1 0x40 MLOAD PUSH2 0x40B SWAP3 SWAP2 SWAP1 PUSH2 0xCA0 JUMP JUMPDEST PUSH1 0x40 MLOAD DUP1 SWAP2 SUB SWAP1 RETURN JUMPDEST CALLVALUE DUP1 ISZERO PUSH2 0x420 JUMPI PUSH1 0x0 DUP1 REVERT JUMPDEST POP PUSH2 0x43B PUSH1 0x4 DUP1 CALLDATASIZE SUB DUP2 ADD SWAP1 PUSH2 0x436 SWAP2 SWAP1 PUSH2 0x182F JUMP JUMPDEST PUSH2 0x915 JUMP JUMPDEST PUSH1 0x40 MLOAD PUSH2 0x448 SWAP2 SWAP1 PUSH2 0x1A0B JUMP JUMPDEST PUSH1 0x40 MLOAD DUP1 SWAP2 SUB SWAP1 RETURN JUMPDEST CALLVALUE DUP1 ISZERO PUSH2 0x45D JUMPI PUSH1 0x0 DUP1 REVERT JUMPDEST POP PUSH2 0x478 PUSH1 0x4 DUP1 CALLDATASIZE SUB DUP2 ADD SWAP1 PUSH2 0x473 SWAP2 SWAP1 PUSH2 0x1A2D JUMP JUMPDEST PUSH2 0x936 JUMP JUMPDEST PUSH1 0x40 MLOAD PUSH2 0x485 SWAP2 SWAP1 PUSH2 0x16BD JUMP JUMPDEST PUSH1 0x40 MLOAD DUP1 SWAP2 SUB SWAP1 RETURN JUMPDEST CALLVALUE DUP1 ISZERO PUSH2 0x49A JUMPI PUSH1 0x0 DUP1 REVERT JUMPDEST POP PUSH2 0x4B5 PUSH1 0x4 DUP1 CALLDATASIZE SUB DUP2 ADD SWAP1 PUSH2 0x4B0 SWAP2 SWAP1 PUSH2 0x182F JUMP JUMPDEST PUSH2 0x958 JUMP JUMPDEST PUSH1 0x40 MLOAD PUSH2 0x4C2 SWAP2 SWAP1 PUSH2 0x1A0B JUMP JUMPDEST PUSH1 0x40 MLOAD DUP1 SWAP2 SUB SWAP1 RETURN JUMPDEST CALLVALUE DUP1 ISZERO PUSH2 0x4D7 JUMPI PUSH1 0x0 DUP1 REVERT JUMPDEST POP PUSH2 0x4F2 PUSH1 0x4 DUP1 CALLDATASIZE SUB DUP2 ADD SWAP1 PUSH2 0x4ED SWAP2 SWAP1 PUSH2 0x1AB0 JUMP JUMPDEST PUSH2 0x961 JUMP JUMPDEST PUSH1 0x40 MLOAD PUSH2 0x500 SWAP3 SWAP2 SWAP1 PUSH2 0x1B9B JUMP JUMPDEST PUSH1 0x40 MLOAD DUP1 SWAP2 SUB SWAP1 RETURN JUMPDEST CALLVALUE DUP1 ISZERO PUSH2 0x515 JUMPI PUSH1 0x0 DUP1 REVERT JUMPDEST POP PUSH2 0x51E PUSH2 0x971 JUMP JUMPDEST STOP JUMPDEST CALLVALUE DUP1 ISZERO PUSH2 0x52C JUMPI PUSH1 0x0 DUP1 REVERT JUMPDEST POP PUSH2 0x547 PUSH1 0x4 DUP1 CALLDATASIZE SUB DUP2 ADD SWAP1 PUSH2 0x542 SWAP2 SWAP1 PUSH2 0xE44 JUMP JUMPDEST PUSH2 0x973 JUMP JUMPDEST PUSH1 0x40 MLOAD PUSH2 0x558 SWAP6 SWAP5 SWAP4 SWAP3 SWAP2 SWAP1 PUSH2 0x1BBF JUMP JUMPDEST PUSH1 0x40 MLOAD DUP1 SWAP2 SUB SWAP1 RETURN JUMPDEST CALLVALUE DUP1 ISZERO PUSH2 0x56D JUMPI PUSH1 0x0 DUP1 REVERT JUMPDEST POP PUSH2 0x588 PUSH1 0x4 DUP1 CALLDATASIZE SUB DUP2 ADD SWAP1 PUSH2 0x583 SWAP2 SWAP1 PUSH2 0x14AC JUMP JUMPDEST PUSH2 0x996 JUMP JUMPDEST PUSH1 0x40 MLOAD PUSH2 0x595 SWAP2 SWAP1 PUSH2 0x1566 JUMP JUMPDEST PUSH1 0x40 MLOAD DUP1 SWAP2 SUB SWAP1 RETURN JUMPDEST CALLVALUE DUP1 ISZERO PUSH2 0x5AA JUMPI PUSH1 0x0 DUP1 REVERT JUMPDEST POP PUSH2 0x5C5 PUSH1 0x4 DUP1 CALLDATASIZE SUB DUP2 ADD SWAP1 PUSH2 0x5C0 SWAP2 SWAP1 PUSH2 0x1A2D JUMP JUMPDEST PUSH2 0x99F JUMP JUMPDEST PUSH1 0x40 MLOAD PUSH2 0x5D2 SWAP2 SWAP1 PUSH2 0x16BD JUMP JUMPDEST PUSH1 0x40 MLOAD DUP1 SWAP2 SUB SWAP1 RETURN JUMPDEST CALLVALUE DUP1 ISZERO PUSH2 0x5E7 JUMPI PUSH1 0x0 DUP1 REVERT JUMPDEST POP PUSH2 0x602 PUSH1 0x4 DUP1 CALLDATASIZE SUB DUP2 ADD SWAP1 PUSH2 0x5FD SWAP2 SWAP1 PUSH2 0x1C28 JUMP JUMPDEST PUSH2 0x9A9 JUMP JUMPDEST PUSH1 0x40 MLOAD PUSH2 0x60F SWAP2 SWAP1 PUSH2 0x20E9 JUMP JUMPDEST PUSH1 0x40 MLOAD DUP1 SWAP2 SUB SWAP1 RETURN JUMPDEST CALLVALUE DUP1 ISZERO PUSH2 0x624 JUMPI PUSH1 0x0 DUP1 REVERT JUMPDEST POP PUSH2 0x63F PUSH1 0x4 DUP1 CALLDATASIZE SUB DUP2 ADD SWAP1 PUSH2 0x63A SWAP2 SWAP1 PUSH2 0x172E JUMP JUMPDEST PUSH2 0x9B2 JUMP JUMPDEST PUSH1 0x40 MLOAD PUSH2 0x64D SWAP3 SWAP2 SWAP1 PUSH2 0x17E9 JUMP JUMPDEST PUSH1 0x40 MLOAD DUP1 SWAP2 SUB SWAP1 RETURN JUMPDEST CALLVALUE DUP1 ISZERO PUSH2 0x662 JUMPI PUSH1 0x0 DUP1 REVERT JUMPDEST POP PUSH2 0x67D PUSH1 0x4 DUP1 CALLDATASIZE SUB DUP2 ADD SWAP1 PUSH2 0x678 SWAP2 SWAP1 PUSH2 0x1C28 JUMP JUMPDEST PUSH2 0x9C2 JUMP JUMPDEST PUSH1 0x40 MLOAD PUSH2 0x68A SWAP2 SWAP1 PUSH2 0x20E9 JUMP JUMPDEST PUSH1 0x40 MLOAD DUP1 SWAP2 SUB SWAP1 RETURN JUMPDEST CALLVALUE DUP1 ISZERO PUSH2 0x69F JUMPI PUSH1 0x0 DUP1 REVERT JUMPDEST POP PUSH2 0x6BA PUSH1 0x4 DUP1 CALLDATASIZE SUB DUP2 ADD SWAP1 PUSH2 0x6B5 SWAP2 SWAP1 PUSH2 0x1AB0 JUMP JUMPDEST PUSH2 0x9E3 JUMP JUMPDEST PUSH1 0x40 MLOAD PUSH2 0x6C8 SWAP3 SWAP2 SWAP1 PUSH2 0x1B9B JUMP JUMPDEST PUSH1 0x40 MLOAD DUP1 SWAP2 SUB SWAP1 RETURN JUMPDEST CALLVALUE DUP1 ISZERO PUSH2 0x6DD JUMPI PUSH1 0x0 DUP1 REVERT JUMPDEST POP PUSH2 0x6F8 PUSH1 0x4 DUP1 CALLDATASIZE SUB DUP2 ADD SWAP1 PUSH2 0x6F3 SWAP2 SWAP1 PUSH2 0x1394 JUMP JUMPDEST PUSH2 0xA0B JUMP JUMPDEST PUSH1 0x40 MLOAD PUSH2 0x706 SWAP3 SWAP2 SWAP1 PUSH2 0x1466 JUMP JUMPDEST PUSH1 0x40 MLOAD DUP1 SWAP2 SUB SWAP1 RETURN JUMPDEST CALLVALUE DUP1 ISZERO PUSH2 0x71B JUMPI PUSH1 0x0 DUP1 REVERT JUMPDEST POP PUSH2 0x736 PUSH1 0x4 DUP1 CALLDATASIZE SUB DUP2 ADD SWAP1 PUSH2 0x731 SWAP2 SWAP1 PUSH2 0x15A6 JUMP JUMPDEST PUSH2 0xA33 JUMP JUMPDEST PUSH1 0x40 MLOAD PUSH2 0x743 SWAP2 SWAP1 PUSH2 0x1612 JUMP JUMPDEST PUSH1 0x40 MLOAD DUP1 SWAP2 SUB SWAP1 RETURN JUMPDEST CALLDATASIZE PUSH1 0x0 DUP4 DUP4 SWAP2 POP SWAP2 POP SWAP3 POP SWAP3 SWAP1 POP JUMP JUMPDEST CALLDATASIZE DUP2 SWAP1 POP SWAP2 SWAP1 POP JUMP JUMPDEST CALLDATASIZE PUSH1 0x0 DUP1 CALLDATASIZE PUSH1 0x0 DUP1 PUSH1 0x1 PUSH1 0x0 DUP2 SLOAD DUP1 SWAP3 SWAP2 SWAP1 PUSH2 0x780 SWAP1 PUSH2 0x213A JUMP JUMPDEST SWAP2 SWAP1 POP SSTORE POP DUP11 DUP11 DUP11 DUP11 DUP11 CALLVALUE SWAP6 POP SWAP6 POP SWAP6 POP SWAP6 POP SWAP6 POP SWAP6 POP SWAP6 POP SWAP6 POP SWAP6 POP SWAP6 POP SWAP6 POP SWAP6 JUMP JUMPDEST CALLDATASIZE PUSH1 0x1 PUSH1 0x0 DUP2 SLOAD DUP1 SWAP3 SWAP2 SWAP1 PUSH2 0x7B8 SWAP1 PUSH2 0x213A JUMP JUMPDEST SWAP2 SWAP1 POP SSTORE POP DUP2 SWAP1 POP SWAP2 SWAP1 POP JUMP JUMPDEST CALLDATASIZE PUSH1 0x0 DUP4 DUP4 SWAP2 POP SWAP2 POP SWAP3 POP SWAP3 SWAP1 POP JUMP JUMPDEST CALLDATASIZE PUSH1 0x1 PUSH1 0x0 DUP2 SLOAD DUP1 SWAP3 SWAP2 SWAP1 PUSH2 0x7E9 SWAP1 PUSH2 0x213A JUMP JUMPDEST SWAP2 SWAP1 POP SSTORE POP DUP2 SWAP1 POP SWAP2 SWAP1 POP JUMP JUMPDEST CALLDATASIZE PUSH1 0x1 PUSH1 0x0 DUP2 SLOAD DUP1 SWAP3 SWAP2 SWAP1 PUSH2 0x80A SWAP1 PUSH2 0x213A JUMP JUMPDEST SWAP2 SWAP1 POP SSTORE POP DUP2 SWAP1 POP SWAP2 SWAP1 POP JUMP JUMPDEST PUSH1 0x1 PUSH1 0x0 DUP2 SLOAD DUP1 SWAP3 SWAP2 SWAP1 PUSH2 0x82A SWAP1 PUSH2 0x213A JUMP JUMPDEST SWAP2 SWAP1 POP SSTORE POP JUMP JUMPDEST PUSH1 0x0 DUP1 SLOAD PUSH2 0x83E SWAP1 PUSH2 0x21B1 JUMP JUMPDEST DUP1 PUSH1 0x1F ADD PUSH1 0x20 DUP1 SWAP2 DIV MUL PUSH1 0x20 ADD PUSH1 0x40 MLOAD SWAP1 DUP2 ADD PUSH1 0x40 MSTORE DUP1 SWAP3 SWAP2 SWAP1 DUP2 DUP2 MSTORE PUSH1 0x20 ADD DUP3 DUP1 SLOAD PUSH2 0x86A SWAP1 PUSH2 0x21B1 JUMP JUMPDEST DUP1 ISZERO PUSH2 0x8B7 JUMPI DUP1 PUSH1 0x1F LT PUSH2 0x88C JUMPI PUSH2 0x100 DUP1 DUP4 SLOAD DIV MUL DUP4 MSTORE SWAP2 PUSH1 0x20 ADD SWAP2 PUSH2 0x8B7 JUMP JUMPDEST DUP3 ADD SWAP2 SWAP1 PUSH1 0x0 MSTORE PUSH1 0x20 PUSH1 0x0 KECCAK256 SWAP1 JUMPDEST DUP2 SLOAD DUP2 MSTORE SWAP1 PUSH1 0x1 ADD SWAP1 PUSH1 0x20 ADD DUP1 DUP4 GT PUSH2 0x89A JUMPI DUP3 SWAP1 SUB PUSH1 0x1F AND DUP3 ADD SWAP2 JUMPDEST POP POP POP POP POP DUP2 JUMP JUMPDEST PUSH1 0x1 SLOAD DUP2 JUMP JUMPDEST CALLDATASIZE PUSH1 0x0 PUSH1 0x1 PUSH1 0x0 DUP2 SLOAD DUP1 SWAP3 SWAP2 SWAP1 PUSH2 0x8DB SWAP1 PUSH2 0x213A JUMP JUMPDEST SWAP2 SWAP1 POP SSTORE POP DUP4 DUP4 SWAP2 POP SWAP2 POP SWAP3 POP SWAP3 SWAP1 POP JUMP JUMPDEST CALLDATASIZE PUSH1 0x0 PUSH1 0x1 PUSH1 0x0 DUP2 SLOAD DUP1 SWAP3 SWAP2 SWAP1 PUSH2 0x903 SWAP1 PUSH2 0x213A JUMP JUMPDEST SWAP2 SWAP1 POP SSTORE POP DUP4 DUP4 SWAP2 POP SWAP2 POP SWAP3 POP SWAP3 SWAP1 POP JUMP JUMPDEST CALLDATASIZE PUSH1 0x1 PUSH1 0x0 DUP2 SLOAD DUP1 SWAP3 SWAP2 SWAP1 PUSH2 0x929 SWAP1 PUSH2 0x213A JUMP JUMPDEST SWAP2 SWAP1 POP SSTORE POP DUP2 SWAP1 POP SWAP2 SWAP1 POP JUMP JUMPDEST PUSH1 0x0 PUSH1 0x1 PUSH1 0x0 DUP2 SLOAD DUP1 SWAP3 SWAP2 SWAP1 PUSH2 0x94B SWAP1 PUSH2 0x213A JUMP JUMPDEST SWAP2 SWAP1 POP SSTORE POP DUP2 SWAP1 POP SWAP2 SWAP1 POP JUMP JUMPDEST CALLDATASIZE DUP2 SWAP1 POP SWAP2 SWAP1 POP JUMP JUMPDEST CALLDATASIZE PUSH1 0x0 DUP4 DUP4 SWAP2 POP SWAP2 POP SWAP3 POP SWAP3 SWAP1 POP JUMP JUMPDEST JUMP JUMPDEST CALLDATASIZE PUSH1 0x0 DUP1 CALLDATASIZE PUSH1 0x0 DUP10 DUP10 DUP10 DUP10 DUP10 SWAP5 POP SWAP5 POP SWAP5 POP SWAP5 POP SWAP5 POP SWAP6 POP SWAP6 POP SWAP6 POP SWAP6 POP SWAP6 SWAP1 POP JUMP JUMPDEST CALLDATASIZE DUP2 SWAP1 POP SWAP2 SWAP1 POP JUMP JUMPDEST PUSH1 0x0 DUP2 SWAP1 POP SWAP2 SWAP1 POP JUMP JUMPDEST CALLDATASIZE DUP2 SWAP1 POP SWAP2 SWAP1 POP JUMP JUMPDEST CALLDATASIZE PUSH1 0x0 DUP4 DUP4 SWAP2 POP SWAP2 POP SWAP3 POP SWAP3 SWAP1 POP JUMP JUMPDEST CALLDATASIZE PUSH1 0x1 PUSH1 0x0 DUP2 SLOAD DUP1 SWAP3 SWAP2 SWAP1 PUSH2 0x9D6 SWAP1 PUSH2 0x213A JUMP JUMPDEST SWAP2 SWAP1 POP SSTORE POP DUP2 SWAP1 POP SWAP2 SWAP1 POP JUMP JUMPDEST CALLDATASIZE PUSH1 0x0 PUSH1 0x1 PUSH1 0x0 DUP2 SLOAD DUP1 SWAP3 SWAP2 SWAP1 PUSH2 0x9F9 SWAP1 PUSH2 0x213A JUMP JUMPDEST SWAP2 SWAP1 POP SSTORE POP DUP4 DUP4 SWAP2 POP SWAP2 POP SWAP3 POP SWAP3 SWAP1 POP JUMP JUMPDEST CALLDATASIZE PUSH1 0x0 PUSH1 0x1 PUSH1 0x0 DUP2 SLOAD DUP1 SWAP3 SWAP2 SWAP1 PUSH2 0xA21 SWAP1 PUSH2 0x213A JUMP JUMPDEST SWAP2 SWAP1 POP SSTORE POP DUP4 DUP4 SWAP2 POP SWAP2 POP SWAP3 POP SWAP3 SWAP1 POP JUMP JUMPDEST CALLDATASIZE DUP2 SWAP1 POP SWAP2 SWAP1 POP JUMP JUMPDEST PUSH1 0x0 DUP1 REVERT JUMPDEST PUSH1 0x0 DUP1 REVERT JUMPDEST PUSH1 0x0 DUP1 REVERT JUMPDEST PUSH1 0x0 DUP1 REVERT JUMPDEST PUSH1 0x0 DUP1 REVERT JUMPDEST PUSH1 0x0 DUP1 DUP4 PUSH1 0x1F DUP5 ADD SLT PUSH2 0xA6B JUMPI PUSH2 0xA6A PUSH2 0xA46 JUMP JUMPDEST JUMPDEST DUP3 CALLDATALOAD SWAP1 POP PUSH8 0xFFFFFFFFFFFFFFFF DUP2 GT ISZERO PUSH2 0xA88 JUMPI PUSH2 0xA87 PUSH2 0xA4B JUMP JUMPDEST JUMPDEST PUSH1 0x20 DUP4 ADD SWAP2 POP DUP4 PUSH1 0x80 DUP3 MUL DUP4 ADD GT ISZERO PUSH2 0xAA4 JUMPI PUSH2 0xAA3 PUSH2 0xA50 JUMP JUMPDEST JUMPDEST SWAP3 POP SWAP3 SWAP1 POP JUMP JUMPDEST PUSH1 0x0 DUP1 PUSH1 0x20 DUP4 DUP6 SUB SLT ISZERO PUSH2 0xAC2 JUMPI PUSH2 0xAC1 PUSH2 0xA3C JUMP JUMPDEST JUMPDEST PUSH1 0x0 DUP4 ADD CALLDATALOAD PUSH8 0xFFFFFFFFFFFFFFFF DUP2 GT ISZERO PUSH2 0xAE0 JUMPI PUSH2 0xADF PUSH2 0xA41 JUMP JUMPDEST JUMPDEST PUSH2 0xAEC DUP6 DUP3 DUP7 ADD PUSH2 0xA55 JUMP JUMPDEST SWAP3 POP SWAP3 POP POP SWAP3 POP SWAP3 SWAP1 POP JUMP JUMPDEST PUSH1 0x0 DUP3 DUP3 MSTORE PUSH1 0x20 DUP3 ADD SWAP1 POP SWAP3 SWAP2 POP POP JUMP JUMPDEST PUSH1 0x0 DUP2 SWAP1 POP SWAP2 SWAP1 POP JUMP JUMPDEST PUSH1 0x0 PUSH1 0x4 SWAP1 POP SWAP2 SWAP1 POP JUMP JUMPDEST PUSH1 0x0 DUP2 SWAP1 POP SWAP3 SWAP2 POP POP JUMP JUMPDEST PUSH1 0x0 DUP2 SWAP1 POP SWAP2 SWAP1 POP JUMP JUMPDEST PUSH1 0x0 DUP2 SWAP1 POP SWAP2 SWAP1 POP JUMP JUMPDEST PUSH2 0xB46 DUP2 PUSH2 0xB33 JUMP JUMPDEST DUP3 MSTORE POP POP JUMP JUMPDEST PUSH1 0x0 PUSH2 0xB58 DUP4 DUP4 PUSH2 0xB3D JUMP JUMPDEST PUSH1 0x20 DUP4 ADD SWAP1 POP SWAP3 SWAP2 POP POP JUMP JUMPDEST PUSH2 0xB6D DUP2 PUSH2 0xB33 JUMP JUMPDEST DUP2 EQ PUSH2 0xB78 JUMPI PUSH1 0x0 DUP1 REVERT JUMPDEST POP JUMP JUMPDEST PUSH1 0x0 DUP2 CALLDATALOAD SWAP1 POP PUSH2 0xB8A DUP2 PUSH2 0xB64 JUMP JUMPDEST SWAP3 SWAP2 POP POP JUMP JUMPDEST PUSH1 0x0 PUSH2 0xB9F PUSH1 0x20 DUP5 ADD DUP5 PUSH2 0xB7B JUMP JUMPDEST SWAP1 POP SWAP3 SWAP2 POP POP JUMP JUMPDEST PUSH1 0x0 PUSH1 0x20 DUP3 ADD SWAP1 POP SWAP2 SWAP1 POP JUMP JUMPDEST PUSH2 0xBBD DUP2 PUSH2 0xB13 JUMP JUMPDEST PUSH2 0xBC7 DUP2 DUP5 PUSH2 0xB1E JUMP JUMPDEST SWAP3 POP PUSH2 0xBD2 DUP3 PUSH2 0xB29 JUMP JUMPDEST DUP1 PUSH1 0x0 JUMPDEST DUP4 DUP2 LT ISZERO PUSH2 0xC0B JUMPI PUSH2 0xBE8 DUP3 DUP5 PUSH2 0xB90 JUMP JUMPDEST PUSH2 0xBF2 DUP8 DUP3 PUSH2 0xB4C JUMP JUMPDEST SWAP7 POP PUSH2 0xBFD DUP4 PUSH2 0xBA7 JUMP JUMPDEST SWAP3 POP POP PUSH1 0x1 DUP2 ADD SWAP1 POP PUSH2 0xBD6 JUMP JUMPDEST POP POP POP POP POP POP JUMP JUMPDEST PUSH1 0x0 PUSH2 0xC1F DUP4 DUP4 PUSH2 0xBB4 JUMP JUMPDEST PUSH1 0x80 DUP4 ADD SWAP1 POP SWAP3 SWAP2 POP POP JUMP JUMPDEST PUSH1 0x0 DUP3 SWAP1 POP SWAP3 SWAP2 POP POP JUMP JUMPDEST PUSH1 0x0 PUSH1 0x80 DUP3 ADD SWAP1 POP SWAP2 SWAP1 POP JUMP JUMPDEST PUSH1 0x0 PUSH2 0xC4F DUP4 DUP6 PUSH2 0xAF8 JUMP JUMPDEST SWAP4 POP PUSH2 0xC5A DUP3 PUSH2 0xB09 JUMP JUMPDEST DUP1 PUSH1 0x0 JUMPDEST DUP6 DUP2 LT ISZERO PUSH2 0xC93 JUMPI PUSH2 0xC70 DUP3 DUP5 PUSH2 0xC2B JUMP JUMPDEST PUSH2 0xC7A DUP9 DUP3 PUSH2 0xC13 JUMP JUMPDEST SWAP8 POP PUSH2 0xC85 DUP4 PUSH2 0xC36 JUMP JUMPDEST SWAP3 POP POP PUSH1 0x1 DUP2 ADD SWAP1 POP PUSH2 0xC5E JUMP JUMPDEST POP DUP6 SWAP3 POP POP POP SWAP4 SWAP3 POP POP POP JUMP JUMPDEST PUSH1 0x0 PUSH1 0x20 DUP3 ADD SWAP1 POP DUP2 DUP2 SUB PUSH1 0x0 DUP4 ADD MSTORE PUSH2 0xCBB DUP2 DUP5 DUP7 PUSH2 0xC43 JUMP JUMPDEST SWAP1 POP SWAP4 SWAP3 POP POP POP JUMP JUMPDEST PUSH1 0x0 DUP2 SWAP1 POP DUP3 PUSH1 0x20 PUSH1 0x4 MUL DUP3 ADD GT ISZERO PUSH2 0xCE0 JUMPI PUSH2 0xCDF PUSH2 0xA50 JUMP JUMPDEST JUMPDEST SWAP3 SWAP2 POP POP JUMP JUMPDEST PUSH1 0x0 PUSH1 0x80 DUP3 DUP5 SUB SLT ISZERO PUSH2 0xCFC JUMPI PUSH2 0xCFB PUSH2 0xA3C JUMP JUMPDEST JUMPDEST PUSH1 0x0 PUSH2 0xD0A DUP5 DUP3 DUP6 ADD PUSH2 0xCC4 JUMP JUMPDEST SWAP2 POP POP SWAP3 SWAP2 POP POP JUMP JUMPDEST PUSH1 0x0 DUP2 SWAP1 POP SWAP3 SWAP2 POP POP JUMP JUMPDEST PUSH2 0xD27 DUP2 PUSH2 0xB13 JUMP JUMPDEST PUSH2 0xD31 DUP2 DUP5 PUSH2 0xD13 JUMP JUMPDEST SWAP3 POP PUSH2 0xD3C DUP3 PUSH2 0xB29 JUMP JUMPDEST DUP1 PUSH1 0x0 JUMPDEST DUP4 DUP2 LT ISZERO PUSH2 0xD75 JUMPI PUSH2 0xD52 DUP3 DUP5 PUSH2 0xB90 JUMP JUMPDEST PUSH2 0xD5C DUP8 DUP3 PUSH2 0xB4C JUMP JUMPDEST SWAP7 POP PUSH2 0xD67 DUP4 PUSH2 0xBA7 JUMP JUMPDEST SWAP3 POP POP PUSH1 0x1 DUP2 ADD SWAP1 POP PUSH2 0xD40 JUMP JUMPDEST POP POP POP POP POP POP JUMP JUMPDEST PUSH1 0x0 PUSH1 0x80 DUP3 ADD SWAP1 POP PUSH2 0xD92 PUSH1 0x0 DUP4 ADD DUP5 PUSH2 0xD1E JUMP JUMPDEST SWAP3 SWAP2 POP POP JUMP JUMPDEST PUSH1 0x0 DUP1 DUP4 PUSH1 0x1F DUP5 ADD SLT PUSH2 0xDAE JUMPI PUSH2 0xDAD PUSH2 0xA46 JUMP JUMPDEST JUMPDEST DUP3 CALLDATALOAD SWAP1 POP PUSH8 0xFFFFFFFFFFFFFFFF DUP2 GT ISZERO PUSH2 0xDCB JUMPI PUSH2 0xDCA PUSH2 0xA4B JUMP JUMPDEST JUMPDEST PUSH1 0x20 DUP4 ADD SWAP2 POP DUP4 PUSH1 0x20 DUP3 MUL DUP4 ADD GT ISZERO PUSH2 0xDE7 JUMPI PUSH2 0xDE6 PUSH2 0xA50 JUMP JUMPDEST JUMPDEST SWAP3 POP SWAP3 SWAP1 POP JUMP JUMPDEST PUSH1 0x0 DUP1 DUP4 PUSH1 0x1F DUP5 ADD SLT PUSH2 0xE04 JUMPI PUSH2 0xE03 PUSH2 0xA46 JUMP JUMPDEST JUMPDEST DUP3 CALLDATALOAD SWAP1 POP PUSH8 0xFFFFFFFFFFFFFFFF DUP2 GT ISZERO PUSH2 0xE21 JUMPI PUSH2 0xE20 PUSH2 0xA4B JUMP JUMPDEST JUMPDEST PUSH1 0x20 DUP4 ADD SWAP2 POP DUP4 PUSH1 0x1 DUP3 MUL DUP4 ADD GT ISZERO PUSH2 0xE3D JUMPI PUSH2 0xE3C PUSH2 0xA50 JUMP JUMPDEST JUMPDEST SWAP3 POP SWAP3 SWAP1 POP JUMP JUMPDEST PUSH1 0x0 DUP1 PUSH1 0x0 DUP1 PUSH1 0x0 PUSH1 0x60 DUP7 DUP9 SUB SLT ISZERO PUSH2 0xE60 JUMPI PUSH2 0xE5F PUSH2 0xA3C JUMP JUMPDEST JUMPDEST PUSH1 0x0 DUP7 ADD CALLDATALOAD PUSH8 0xFFFFFFFFFFFFFFFF DUP2 GT ISZERO PUSH2 0xE7E JUMPI PUSH2 0xE7D PUSH2 0xA41 JUMP JUMPDEST JUMPDEST PUSH2 0xE8A DUP9 DUP3 DUP10 ADD PUSH2 0xD98 JUMP JUMPDEST SWAP6 POP SWAP6 POP POP PUSH1 0x20 PUSH2 0xE9D DUP9 DUP3 DUP10 ADD PUSH2 0xB7B JUMP JUMPDEST SWAP4 POP POP PUSH1 0x40 DUP7 ADD CALLDATALOAD PUSH8 0xFFFFFFFFFFFFFFFF DUP2 GT ISZERO PUSH2 0xEBE JUMPI PUSH2 0xEBD PUSH2 0xA41 JUMP JUMPDEST JUMPDEST PUSH2 0xECA DUP9 DUP3 DUP10 ADD PUSH2 0xDEE JUMP JUMPDEST SWAP3 POP SWAP3 POP POP SWAP3 SWAP6 POP SWAP3 SWAP6 SWAP1 SWAP4 POP JUMP JUMPDEST PUSH1 0x0 DUP3 DUP3 MSTORE PUSH1 0x20 DUP3 ADD SWAP1 POP SWAP3 SWAP2 POP POP JUMP JUMPDEST PUSH1 0x0 DUP2 SWAP1 POP SWAP2 SWAP1 POP JUMP JUMPDEST PUSH1 0x0 DUP3 SWAP1 POP SWAP3 SWAP2 POP POP JUMP JUMPDEST PUSH1 0x0 DUP2 SWAP1 POP SWAP2 SWAP1 POP JUMP JUMPDEST PUSH2 0xF12 DUP2 PUSH2 0xEFF JUMP JUMPDEST DUP2 EQ PUSH2 0xF1D JUMPI PUSH1 0x0 DUP1 REVERT JUMPDEST POP JUMP JUMPDEST PUSH1 0x0 DUP2 CALLDATALOAD SWAP1 POP PUSH2 0xF2F DUP2 PUSH2 0xF09 JUMP JUMPDEST SWAP3 SWAP2 POP POP JUMP JUMPDEST PUSH1 0x0 PUSH2 0xF44 PUSH1 0x20 DUP5 ADD DUP5 PUSH2 0xF20 JUMP JUMPDEST SWAP1 POP SWAP3 SWAP2 POP POP JUMP JUMPDEST PUSH2 0xF55 DUP2 PUSH2 0xEFF JUMP JUMPDEST DUP3 MSTORE POP POP JUMP JUMPDEST PUSH1 0x40 DUP3 ADD PUSH2 0xF6C PUSH1 0x0 DUP4 ADD DUP4 PUSH2 0xB90 JUMP JUMPDEST PUSH2 0xF79 PUSH1 0x0 DUP6 ADD DUP3 PUSH2 0xB3D JUMP JUMPDEST POP PUSH2 0xF87 PUSH1 0x20 DUP4 ADD DUP4 PUSH2 0xF35 JUMP JUMPDEST PUSH2 0xF94 PUSH1 0x20 DUP6 ADD DUP3 PUSH2 0xF4C JUMP JUMPDEST POP POP POP POP JUMP JUMPDEST PUSH1 0x0 DUP3 SWAP1 POP SWAP3 SWAP2 POP POP JUMP JUMPDEST PUSH1 0x0 PUSH1 0x4 SWAP1 POP SWAP2 SWAP1 POP JUMP JUMPDEST PUSH1 0x0 DUP2 SWAP1 POP SWAP3 SWAP2 POP POP JUMP JUMPDEST PUSH1 0x0 DUP2 SWAP1 POP SWAP2 SWAP1 POP JUMP JUMPDEST PUSH1 0x0 PUSH2 0xFD1 DUP4 DUP4 PUSH2 0xF5B JUMP JUMPDEST PUSH1 0x40 DUP4 ADD SWAP1 POP SWAP3 SWAP2 POP POP JUMP JUMPDEST PUSH1 0x0 PUSH1 0x40 DUP3 ADD SWAP1 POP SWAP2 SWAP1 POP JUMP JUMPDEST PUSH2 0xFF3 DUP2 PUSH2 0xFA5 JUMP JUMPDEST PUSH2 0xFFD DUP2 DUP5 PUSH2 0xFB0 JUMP JUMPDEST SWAP3 POP PUSH2 0x1008 DUP3 PUSH2 0xFBB JUMP JUMPDEST DUP1 PUSH1 0x0 JUMPDEST DUP4 DUP2 LT ISZERO PUSH2 0x1041 JUMPI PUSH2 0x101E DUP3 DUP5 PUSH2 0xEF4 JUMP JUMPDEST PUSH2 0x1028 DUP8 DUP3 PUSH2 0xFC5 JUMP JUMPDEST SWAP7 POP PUSH2 0x1033 DUP4 PUSH2 0xFDD JUMP JUMPDEST SWAP3 POP POP PUSH1 0x1 DUP2 ADD SWAP1 POP PUSH2 0x100C JUMP JUMPDEST POP POP POP POP POP POP JUMP JUMPDEST PUSH1 0x0 DUP1 REVERT JUMPDEST PUSH1 0x0 DUP1 REVERT JUMPDEST PUSH1 0x0 DUP1 REVERT JUMPDEST PUSH1 0x0 DUP1 DUP4 CALLDATALOAD PUSH1 0x1 PUSH1 0x20 SUB DUP5 CALLDATASIZE SUB SUB DUP2 SLT PUSH2 0x1075 JUMPI PUSH2 0x1074 PUSH2 0x1053 JUMP JUMPDEST JUMPDEST DUP4 DUP2 ADD SWAP3 POP DUP3 CALLDATALOAD SWAP2 POP PUSH1 0x20 DUP4 ADD SWAP3 POP PUSH8 0xFFFFFFFFFFFFFFFF DUP3 GT ISZERO PUSH2 0x109D JUMPI PUSH2 0x109C PUSH2 0x1049 JUMP JUMPDEST JUMPDEST PUSH1 0x40 DUP3 MUL CALLDATASIZE SUB DUP4 SGT ISZERO PUSH2 0x10B3 JUMPI PUSH2 0x10B2 PUSH2 0x104E JUMP JUMPDEST JUMPDEST POP SWAP3 POP SWAP3 SWAP1 POP JUMP JUMPDEST PUSH1 0x0 DUP3 DUP3 MSTORE PUSH1 0x20 DUP3 ADD SWAP1 POP SWAP3 SWAP2 POP POP JUMP JUMPDEST PUSH1 0x0 DUP2 SWAP1 POP SWAP2 SWAP1 POP JUMP JUMPDEST PUSH1 0x0 PUSH1 0x40 DUP3 ADD SWAP1 POP SWAP2 SWAP1 POP JUMP JUMPDEST PUSH1 0x0 PUSH2 0x10EF DUP4 DUP6 PUSH2 0x10BB JUMP JUMPDEST SWAP4 POP PUSH2 0x10FA DUP3 PUSH2 0x10CC JUMP JUMPDEST DUP1 PUSH1 0x0 JUMPDEST DUP6 DUP2 LT ISZERO PUSH2 0x1133 JUMPI PUSH2 0x1110 DUP3 DUP5 PUSH2 0xEF4 JUMP JUMPDEST PUSH2 0x111A DUP9 DUP3 PUSH2 0xFC5 JUMP JUMPDEST SWAP8 POP PUSH2 0x1125 DUP4 PUSH2 0x10D6 JUMP JUMPDEST SWAP3 POP POP PUSH1 0x1 DUP2 ADD SWAP1 POP PUSH2 0x10FE JUMP JUMPDEST POP DUP6 SWAP3 POP POP POP SWAP4 SWAP3 POP POP POP JUMP JUMPDEST PUSH1 0x0 PUSH2 0x160 DUP4 ADD PUSH2 0x1154 PUSH1 0x0 DUP5 ADD DUP5 PUSH2 0xEF4 JUMP JUMPDEST PUSH2 0x1161 PUSH1 0x0 DUP7 ADD DUP3 PUSH2 0xF5B JUMP JUMPDEST POP PUSH2 0x116F PUSH1 0x40 DUP5 ADD DUP5 PUSH2 0xF9A JUMP JUMPDEST PUSH2 0x117C PUSH1 0x40 DUP7 ADD DUP3 PUSH2 0xFEA JUMP JUMPDEST POP PUSH2 0x118B PUSH2 0x140 DUP5 ADD DUP5 PUSH2 0x1058 JUMP JUMPDEST DUP6 DUP4 SUB PUSH2 0x140 DUP8 ADD MSTORE PUSH2 0x119F DUP4 DUP3 DUP5 PUSH2 0x10E3 JUMP JUMPDEST SWAP3 POP POP POP DUP1 SWAP2 POP POP SWAP3 SWAP2 POP POP JUMP JUMPDEST PUSH1 0x0 PUSH2 0x11B9 DUP4 DUP4 PUSH2 0x1140 JUMP JUMPDEST SWAP1 POP SWAP3 SWAP2 POP POP JUMP JUMPDEST PUSH1 0x0 DUP3 CALLDATALOAD PUSH1 0x1 PUSH2 0x160 SUB DUP4 CALLDATASIZE SUB SUB DUP2 SLT PUSH2 0x11DE JUMPI PUSH2 0x11DD PUSH2 0x1053 JUMP JUMPDEST JUMPDEST DUP3 DUP2 ADD SWAP2 POP POP SWAP3 SWAP2 POP POP JUMP JUMPDEST PUSH1 0x0 PUSH1 0x20 DUP3 ADD SWAP1 POP SWAP2 SWAP1 POP JUMP JUMPDEST PUSH1 0x0 PUSH2 0x1203 DUP4 DUP6 PUSH2 0xED9 JUMP JUMPDEST SWAP4 POP DUP4 PUSH1 0x20 DUP5 MUL DUP6 ADD PUSH2 0x1215 DUP5 PUSH2 0xEEA JUMP JUMPDEST DUP1 PUSH1 0x0 JUMPDEST DUP8 DUP2 LT ISZERO PUSH2 0x1259 JUMPI DUP5 DUP5 SUB DUP10 MSTORE PUSH2 0x1230 DUP3 DUP5 PUSH2 0x11C1 JUMP JUMPDEST PUSH2 0x123A DUP6 DUP3 PUSH2 0x11AD JUMP JUMPDEST SWAP5 POP PUSH2 0x1245 DUP4 PUSH2 0x11EA JUMP JUMPDEST SWAP3 POP PUSH1 0x20 DUP11 ADD SWAP10 POP POP PUSH1 0x1 DUP2 ADD SWAP1 POP PUSH2 0x1219 JUMP JUMPDEST POP DUP3 SWAP8 POP DUP8 SWAP5 POP POP POP POP POP SWAP4 SWAP3 POP POP POP JUMP JUMPDEST PUSH2 0x1274 DUP2 PUSH2 0xB33 JUMP JUMPDEST DUP3 MSTORE POP POP JUMP JUMPDEST PUSH1 0x0 DUP3 DUP3 MSTORE PUSH1 0x20 DUP3 ADD SWAP1 POP SWAP3 SWAP2 POP POP JUMP JUMPDEST DUP3 DUP2 DUP4 CALLDATACOPY PUSH1 0x0 DUP4 DUP4 ADD MSTORE POP POP POP JUMP JUMPDEST PUSH1 0x0 PUSH1 0x1F NOT PUSH1 0x1F DUP4 ADD AND SWAP1 POP SWAP2 SWAP1 POP JUMP JUMPDEST PUSH1 0x0 PUSH2 0x12B7 DUP4 DUP6 PUSH2 0x127A JUMP JUMPDEST SWAP4 POP PUSH2 0x12C4 DUP4 DUP6 DUP5 PUSH2 0x128B JUMP JUMPDEST PUSH2 0x12CD DUP4 PUSH2 0x129A JUMP JUMPDEST DUP5 ADD SWAP1 POP SWAP4 SWAP3 POP POP POP JUMP JUMPDEST PUSH2 0x12E1 DUP2 PUSH2 0xEFF JUMP JUMPDEST DUP3 MSTORE POP POP JUMP JUMPDEST PUSH1 0x0 PUSH1 0x80 DUP3 ADD SWAP1 POP DUP2 DUP2 SUB PUSH1 0x0 DUP4 ADD MSTORE PUSH2 0x1302 DUP2 DUP9 DUP11 PUSH2 0x11F7 JUMP JUMPDEST SWAP1 POP PUSH2 0x1311 PUSH1 0x20 DUP4 ADD DUP8 PUSH2 0x126B JUMP JUMPDEST DUP2 DUP2 SUB PUSH1 0x40 DUP4 ADD MSTORE PUSH2 0x1324 DUP2 DUP6 DUP8 PUSH2 0x12AB JUMP JUMPDEST SWAP1 POP PUSH2 0x1333 PUSH1 0x60 DUP4 ADD DUP5 PUSH2 0x12D8 JUMP JUMPDEST SWAP8 SWAP7 POP POP POP POP POP POP POP JUMP JUMPDEST PUSH1 0x0 DUP1 DUP4 PUSH1 0x1F DUP5 ADD SLT PUSH2 0x1354 JUMPI PUSH2 0x1353 PUSH2 0xA46 JUMP JUMPDEST JUMPDEST DUP3 CALLDATALOAD SWAP1 POP PUSH8 0xFFFFFFFFFFFFFFFF DUP2 GT ISZERO PUSH2 0x1371 JUMPI PUSH2 0x1370 PUSH2 0xA4B JUMP JUMPDEST JUMPDEST PUSH1 0x20 DUP4 ADD SWAP2 POP DUP4 PUSH1 0x20 DUP3 MUL DUP4 ADD GT ISZERO PUSH2 0x138D JUMPI PUSH2 0x138C PUSH2 0xA50 JUMP JUMPDEST JUMPDEST SWAP3 POP SWAP3 SWAP1 POP JUMP JUMPDEST PUSH1 0x0 DUP1 PUSH1 0x20 DUP4 DUP6 SUB SLT ISZERO PUSH2 0x13AB JUMPI PUSH2 0x13AA PUSH2 0xA3C JUMP JUMPDEST JUMPDEST PUSH1 0x0 DUP4 ADD CALLDATALOAD PUSH8 0xFFFFFFFFFFFFFFFF DUP2 GT ISZERO PUSH2 0x13C9 JUMPI PUSH2 0x13C8 PUSH2 0xA41 JUMP JUMPDEST JUMPDEST PUSH2 0x13D5 DUP6 DUP3 DUP7 ADD PUSH2 0x133E JUMP JUMPDEST SWAP3 POP SWAP3 POP POP SWAP3 POP SWAP3 SWAP1 POP JUMP JUMPDEST PUSH1 0x0 DUP3 DUP3 MSTORE PUSH1 0x20 DUP3 ADD SWAP1 POP SWAP3 SWAP2 POP POP JUMP JUMPDEST PUSH1 0x0 DUP2 SWAP1 POP SWAP2 SWAP1 POP JUMP JUMPDEST PUSH1 0x0 PUSH1 0x20 DUP3 ADD SWAP1 POP SWAP2 SWAP1 POP JUMP JUMPDEST PUSH1 0x0 PUSH2 0x1415 DUP4 DUP6 PUSH2 0x13E1 JUMP JUMPDEST SWAP4 POP PUSH2 0x1420 DUP3 PUSH2 0x13F2 JUMP JUMPDEST DUP1 PUSH1 0x0 JUMPDEST DUP6 DUP2 LT ISZERO PUSH2 0x1459 JUMPI PUSH2 0x1436 DUP3 DUP5 PUSH2 0xB90 JUMP JUMPDEST PUSH2 0x1440 DUP9 DUP3 PUSH2 0xB4C JUMP JUMPDEST SWAP8 POP PUSH2 0x144B DUP4 PUSH2 0x13FC JUMP JUMPDEST SWAP3 POP POP PUSH1 0x1 DUP2 ADD SWAP1 POP PUSH2 0x1424 JUMP JUMPDEST POP DUP6 SWAP3 POP POP POP SWAP4 SWAP3 POP POP POP JUMP JUMPDEST PUSH1 0x0 PUSH1 0x20 DUP3 ADD SWAP1 POP DUP2 DUP2 SUB PUSH1 0x0 DUP4 ADD MSTORE PUSH2 0x1481 DUP2 DUP5 DUP7 PUSH2 0x1409 JUMP JUMPDEST SWAP1 POP SWAP4 SWAP3 POP POP POP JUMP JUMPDEST PUSH1 0x0 DUP2 SWAP1 POP DUP3 PUSH1 0x80 PUSH1 0x4 MUL DUP3 ADD GT ISZERO PUSH2 0x14A6 JUMPI PUSH2 0x14A5 PUSH2 0xA50 JUMP JUMPDEST JUMPDEST SWAP3 SWAP2 POP POP JUMP JUMPDEST PUSH1 0x0 PUSH2 0x200 DUP3 DUP5 SUB SLT ISZERO PUSH2 0x14C3 JUMPI PUSH2 0x14C2 PUSH2 0xA3C JUMP JUMPDEST JUMPDEST PUSH1 0x0 PUSH2 0x14D1 DUP5 DUP3 DUP6 ADD PUSH2 0x148A JUMP JUMPDEST SWAP2 POP POP SWAP3 SWAP2 POP POP JUMP JUMPDEST PUSH1 0x0 PUSH1 0x4 SWAP1 POP SWAP2 SWAP1 POP JUMP JUMPDEST PUSH1 0x0 DUP2 SWAP1 POP SWAP3 SWAP2 POP POP JUMP JUMPDEST PUSH1 0x0 DUP2 SWAP1 POP SWAP2 SWAP1 POP JUMP JUMPDEST PUSH1 0x0 PUSH1 0x80 DUP3 ADD SWAP1 POP SWAP2 SWAP1 POP JUMP JUMPDEST PUSH2 0x1510 DUP2 PUSH2 0x14DA JUMP JUMPDEST PUSH2 0x151A DUP2 DUP5 PUSH2 0x14E5 JUMP JUMPDEST SWAP3 POP PUSH2 0x1525 DUP3 PUSH2 0x14F0 JUMP JUMPDEST DUP1 PUSH1 0x0 JUMPDEST DUP4 DUP2 LT ISZERO PUSH2 0x155E JUMPI PUSH2 0x153B DUP3 DUP5 PUSH2 0xC2B JUMP JUMPDEST PUSH2 0x1545 DUP8 DUP3 PUSH2 0xC13 JUMP JUMPDEST SWAP7 POP PUSH2 0x1550 DUP4 PUSH2 0x14FA JUMP JUMPDEST SWAP3 POP POP PUSH1 0x1 DUP2 ADD SWAP1 POP PUSH2 0x1529 JUMP JUMPDEST POP POP POP POP POP POP JUMP JUMPDEST PUSH1 0x0 PUSH2 0x200 DUP3 ADD SWAP1 POP PUSH2 0x157C PUSH1 0x0 DUP4 ADD DUP5 PUSH2 0x1507 JUMP JUMPDEST SWAP3 SWAP2 POP POP JUMP JUMPDEST PUSH1 0x0 DUP1 REVERT JUMPDEST PUSH1 0x0 PUSH1 0x40 DUP3 DUP5 SUB SLT ISZERO PUSH2 0x159D JUMPI PUSH2 0x159C PUSH2 0x1582 JUMP JUMPDEST JUMPDEST DUP2 SWAP1 POP SWAP3 SWAP2 POP POP JUMP JUMPDEST PUSH1 0x0 PUSH1 0x40 DUP3 DUP5 SUB SLT ISZERO PUSH2 0x15BC JUMPI PUSH2 0x15BB PUSH2 0xA3C JUMP JUMPDEST JUMPDEST PUSH1 0x0 PUSH2 0x15CA DUP5 DUP3 DUP6 ADD PUSH2 0x1587 JUMP JUMPDEST SWAP2 POP POP SWAP3 SWAP2 POP POP JUMP JUMPDEST PUSH1 0x40 DUP3 ADD PUSH2 0x15E4 PUSH1 0x0 DUP4 ADD DUP4 PUSH2 0xB90 JUMP JUMPDEST PUSH2 0x15F1 PUSH1 0x0 DUP6 ADD DUP3 PUSH2 0xB3D JUMP JUMPDEST POP PUSH2 0x15FF PUSH1 0x20 DUP4 ADD DUP4 PUSH2 0xF35 JUMP JUMPDEST PUSH2 0x160C PUSH1 0x20 DUP6 ADD DUP3 PUSH2 0xF4C JUMP JUMPDEST POP POP POP POP JUMP JUMPDEST PUSH1 0x0 PUSH1 0x40 DUP3 ADD SWAP1 POP PUSH2 0x1627 PUSH1 0x0 DUP4 ADD DUP5 PUSH2 0x15D3 JUMP JUMPDEST SWAP3 SWAP2 POP POP JUMP JUMPDEST PUSH1 0x0 DUP2 MLOAD SWAP1 POP SWAP2 SWAP1 POP JUMP JUMPDEST PUSH1 0x0 JUMPDEST DUP4 DUP2 LT ISZERO PUSH2 0x1656 JUMPI DUP1 DUP3 ADD MLOAD DUP2 DUP5 ADD MSTORE PUSH1 0x20 DUP2 ADD SWAP1 POP PUSH2 0x163B JUMP JUMPDEST PUSH1 0x0 DUP5 DUP5 ADD MSTORE POP POP POP POP JUMP JUMPDEST PUSH1 0x0 PUSH2 0x166D DUP3 PUSH2 0x162D JUMP JUMPDEST PUSH2 0x1677 DUP2 DUP6 PUSH2 0x127A JUMP JUMPDEST SWAP4 POP PUSH2 0x1687 DUP2 DUP6 PUSH1 0x20 DUP7 ADD PUSH2 0x1638 JUMP JUMPDEST PUSH2 0x1690 DUP2 PUSH2 0x129A JUMP JUMPDEST DUP5 ADD SWAP2 POP POP SWAP3 SWAP2 POP POP JUMP JUMPDEST PUSH1 0x0 PUSH1 0x20 DUP3 ADD SWAP1 POP DUP2 DUP2 SUB PUSH1 0x0 DUP4 ADD MSTORE PUSH2 0x16B5 DUP2 DUP5 PUSH2 0x1662 JUMP JUMPDEST SWAP1 POP SWAP3 SWAP2 POP POP JUMP JUMPDEST PUSH1 0x0 PUSH1 0x20 DUP3 ADD SWAP1 POP PUSH2 0x16D2 PUSH1 0x0 DUP4 ADD DUP5 PUSH2 0x126B JUMP JUMPDEST SWAP3 SWAP2 POP POP JUMP JUMPDEST PUSH1 0x0 DUP1 DUP4 PUSH1 0x1F DUP5 ADD SLT PUSH2 0x16EE JUMPI PUSH2 0x16ED PUSH2 0xA46 JUMP JUMPDEST JUMPDEST DUP3 CALLDATALOAD SWAP1 POP PUSH8 0xFFFFFFFFFFFFFFFF DUP2 GT ISZERO PUSH2 0x170B JUMPI PUSH2 0x170A PUSH2 0xA4B JUMP JUMPDEST JUMPDEST PUSH1 0x20 DUP4 ADD SWAP2 POP DUP4 PUSH1 0x40 DUP3 MUL DUP4 ADD GT ISZERO PUSH2 0x1727 JUMPI PUSH2 0x1726 PUSH2 0xA50 JUMP JUMPDEST JUMPDEST SWAP3 POP SWAP3 SWAP1 POP JUMP JUMPDEST PUSH1 0x0 DUP1 PUSH1 0x20 DUP4 DUP6 SUB SLT ISZERO PUSH2 0x1745 JUMPI PUSH2 0x1744 PUSH2 0xA3C JUMP JUMPDEST JUMPDEST PUSH1 0x0 DUP4 ADD CALLDATALOAD PUSH8 0xFFFFFFFFFFFFFFFF DUP2 GT ISZERO PUSH2 0x1763 JUMPI PUSH2 0x1762 PUSH2 0xA41 JUMP JUMPDEST JUMPDEST PUSH2 0x176F DUP6 DUP3 DUP7 ADD PUSH2 0x16D8 JUMP JUMPDEST SWAP3 POP SWAP3 POP POP SWAP3 POP SWAP3 SWAP1 POP JUMP JUMPDEST PUSH1 0x0 DUP3 DUP3 MSTORE PUSH1 0x20 DUP3 ADD SWAP1 POP SWAP3 SWAP2 POP POP JUMP JUMPDEST PUSH1 0x0 PUSH2 0x1798 DUP4 DUP6 PUSH2 0x177B JUMP JUMPDEST SWAP4 POP PUSH2 0x17A3 DUP3 PUSH2 0x10CC JUMP JUMPDEST DUP1 PUSH1 0x0 JUMPDEST DUP6 DUP2 LT ISZERO PUSH2 0x17DC JUMPI PUSH2 0x17B9 DUP3 DUP5 PUSH2 0xEF4 JUMP JUMPDEST PUSH2 0x17C3 DUP9 DUP3 PUSH2 0xFC5 JUMP JUMPDEST SWAP8 POP PUSH2 0x17CE DUP4 PUSH2 0x10D6 JUMP JUMPDEST SWAP3 POP POP PUSH1 0x1 DUP2 ADD SWAP1 POP PUSH2 0x17A7 JUMP JUMPDEST POP DUP6 SWAP3 POP POP POP SWAP4 SWAP3 POP POP POP JUMP JUMPDEST PUSH1 0x0 PUSH1 0x20 DUP3 ADD SWAP1 POP DUP2 DUP2 SUB PUSH1 0x0 DUP4 ADD MSTORE PUSH2 0x1804 DUP2 DUP5 DUP7 PUSH2 0x178C JUMP JUMPDEST SWAP1 POP SWAP4 SWAP3 POP POP POP JUMP JUMPDEST PUSH1 0x0 DUP2 SWAP1 POP DUP3 PUSH1 0x20 PUSH1 0x4 MUL DUP3 ADD GT ISZERO PUSH2 0x1829 JUMPI PUSH2 0x1828 PUSH2 0xA50 JUMP JUMPDEST JUMPDEST SWAP3 SWAP2 POP POP JUMP JUMPDEST PUSH1 0x0 PUSH1 0x20 DUP3 DUP5 SUB SLT ISZERO PUSH2 0x1845 JUMPI PUSH2 0x1844 PUSH2 0xA3C JUMP JUMPDEST JUMPDEST PUSH1 0x0 DUP3 ADD CALLDATALOAD PUSH8 0xFFFFFFFFFFFFFFFF DUP2 GT ISZERO PUSH2 0x1863 JUMPI PUSH2 0x1862 PUSH2 0xA41 JUMP JUMPDEST JUMPDEST PUSH2 0x186F DUP5 DUP3 DUP6 ADD PUSH2 0x180D JUMP JUMPDEST SWAP2 POP POP SWAP3 SWAP2 POP POP JUMP JUMPDEST PUSH1 0x0 PUSH1 0x4 SWAP1 POP SWAP2 SWAP1 POP JUMP JUMPDEST PUSH1 0x0 DUP2 SWAP1 POP SWAP3 SWAP2 POP POP JUMP JUMPDEST PUSH1 0x0 DUP2 SWAP1 POP SWAP2 SWAP1 POP JUMP JUMPDEST PUSH1 0x0 DUP3 DUP3 MSTORE PUSH1 0x20 DUP3 ADD SWAP1 POP SWAP3 SWAP2 POP POP JUMP JUMPDEST PUSH1 0x0 PUSH2 0x18B5 DUP4 DUP6 PUSH2 0x1898 JUMP JUMPDEST SWAP4 POP PUSH2 0x18C0 DUP3 PUSH2 0x13F2 JUMP JUMPDEST DUP1 PUSH1 0x0 JUMPDEST DUP6 DUP2 LT ISZERO PUSH2 0x18F9 JUMPI PUSH2 0x18D6 DUP3 DUP5 PUSH2 0xB90 JUMP JUMPDEST PUSH2 0x18E0 DUP9 DUP3 PUSH2 0xB4C JUMP JUMPDEST SWAP8 POP PUSH2 0x18EB DUP4 PUSH2 0x13FC JUMP JUMPDEST SWAP3 POP POP PUSH1 0x1 DUP2 ADD SWAP1 POP PUSH2 0x18C4 JUMP JUMPDEST POP DUP6 SWAP3 POP POP POP SWAP4 SWAP3 POP POP POP JUMP JUMPDEST PUSH1 0x0 PUSH2 0x1913 DUP5 DUP5 DUP5 PUSH2 0x18A9 JUMP JUMPDEST SWAP1 POP SWAP4 SWAP3 POP POP POP JUMP JUMPDEST PUSH1 0x0 DUP1 DUP4 CALLDATALOAD PUSH1 0x1 PUSH1 0x20 SUB DUP5 CALLDATASIZE SUB SUB DUP2 SLT PUSH2 0x1939 JUMPI PUSH2 0x1938 PUSH2 0x1053 JUMP JUMPDEST JUMPDEST DUP4 DUP2 ADD SWAP3 POP DUP3 CALLDATALOAD SWAP2 POP PUSH1 0x20 DUP4 ADD SWAP3 POP PUSH8 0xFFFFFFFFFFFFFFFF DUP3 GT ISZERO PUSH2 0x1961 JUMPI PUSH2 0x1960 PUSH2 0x1049 JUMP JUMPDEST JUMPDEST PUSH1 0x20 DUP3 MUL CALLDATASIZE SUB DUP4 SGT ISZERO PUSH2 0x1977 JUMPI PUSH2 0x1976 PUSH2 0x104E JUMP JUMPDEST JUMPDEST POP SWAP3 POP SWAP3 SWAP1 POP JUMP JUMPDEST PUSH1 0x0 PUSH1 0x20 DUP3 ADD SWAP1 POP SWAP2 SWAP1 POP JUMP JUMPDEST PUSH1 0x0 PUSH2 0x1997 DUP3 PUSH2 0x1878 JUMP JUMPDEST PUSH2 0x19A1 DUP2 DUP6 PUSH2 0x1883 JUMP JUMPDEST SWAP4 POP DUP4 PUSH1 0x20 DUP3 MUL DUP6 ADD PUSH2 0x19B3 DUP6 PUSH2 0x188E JUMP JUMPDEST DUP1 PUSH1 0x0 JUMPDEST DUP6 DUP2 LT ISZERO PUSH2 0x19F9 JUMPI DUP5 DUP5 SUB DUP10 MSTORE PUSH2 0x19CE DUP3 DUP5 PUSH2 0x191C JUMP JUMPDEST PUSH2 0x19D9 DUP7 DUP3 DUP5 PUSH2 0x1906 JUMP JUMPDEST SWAP6 POP PUSH2 0x19E4 DUP5 PUSH2 0x197F JUMP JUMPDEST SWAP4 POP PUSH1 0x20 DUP12 ADD SWAP11 POP POP POP PUSH1 0x1 DUP2 ADD SWAP1 POP PUSH2 0x19B7 JUMP JUMPDEST POP DUP3 SWAP8 POP DUP8 SWAP6 POP POP POP POP POP POP SWAP3 SWAP2 POP POP JUMP JUMPDEST PUSH1 0x0 PUSH1 0x20 DUP3 ADD SWAP1 POP DUP2 DUP2 SUB PUSH1 0x0 DUP4 ADD MSTORE PUSH2 0x1A25 DUP2 DUP5 PUSH2 0x198C JUMP JUMPDEST SWAP1 POP SWAP3 SWAP2 POP POP JUMP JUMPDEST PUSH1 0x0 PUSH1 0x20 DUP3 DUP5 SUB SLT ISZERO PUSH2 0x1A43 JUMPI PUSH2 0x1A42 PUSH2 0xA3C JUMP JUMPDEST JUMPDEST PUSH1 0x0 PUSH2 0x1A51 DUP5 DUP3 DUP6 ADD PUSH2 0xB7B JUMP JUMPDEST SWAP2 POP POP SWAP3 SWAP2 POP POP JUMP JUMPDEST PUSH1 0x0 DUP1 DUP4 PUSH1 0x1F DUP5 ADD SLT PUSH2 0x1A70 JUMPI PUSH2 0x1A6F PUSH2 0xA46 JUMP JUMPDEST JUMPDEST DUP3 CALLDATALOAD SWAP1 POP PUSH8 0xFFFFFFFFFFFFFFFF DUP2 GT ISZERO PUSH2 0x1A8D JUMPI PUSH2 0x1A8C PUSH2 0xA4B JUMP JUMPDEST JUMPDEST PUSH1 0x20 DUP4 ADD SWAP2 POP DUP4 PUSH1 0x20 DUP3 MUL DUP4 ADD GT ISZERO PUSH2 0x1AA9 JUMPI PUSH2 0x1AA8 PUSH2 0xA50 JUMP JUMPDEST JUMPDEST SWAP3 POP SWAP3 SWAP1 POP JUMP JUMPDEST PUSH1 0x0 DUP1 PUSH1 0x20 DUP4 DUP6 SUB SLT ISZERO PUSH2 0x1AC7 JUMPI PUSH2 0x1AC6 PUSH2 0xA3C JUMP JUMPDEST JUMPDEST PUSH1 0x0 DUP4 ADD CALLDATALOAD PUSH8 0xFFFFFFFFFFFFFFFF DUP2 GT ISZERO PUSH2 0x1AE5 JUMPI PUSH2 0x1AE4 PUSH2 0xA41 JUMP JUMPDEST JUMPDEST PUSH2 0x1AF1 DUP6 DUP3 DUP7 ADD PUSH2 0x1A5A JUMP JUMPDEST SWAP3 POP SWAP3 POP POP SWAP3 POP SWAP3 SWAP1 POP JUMP JUMPDEST PUSH1 0x0 DUP3 DUP3 MSTORE PUSH1 0x20 DUP3 ADD SWAP1 POP SWAP3 SWAP2 POP POP JUMP JUMPDEST PUSH1 0x0 DUP2 SWAP1 POP SWAP2 SWAP1 POP JUMP JUMPDEST PUSH1 0x0 PUSH1 0x20 DUP3 ADD SWAP1 POP SWAP2 SWAP1 POP JUMP JUMPDEST PUSH1 0x0 PUSH2 0x1B31 DUP4 DUP6 PUSH2 0x1AFD JUMP JUMPDEST SWAP4 POP DUP4 PUSH1 0x20 DUP5 MUL DUP6 ADD PUSH2 0x1B43 DUP5 PUSH2 0x1B0E JUMP JUMPDEST DUP1 PUSH1 0x0 JUMPDEST DUP8 DUP2 LT ISZERO PUSH2 0x1B89 JUMPI DUP5 DUP5 SUB DUP10 MSTORE PUSH2 0x1B5E DUP3 DUP5 PUSH2 0x191C JUMP JUMPDEST PUSH2 0x1B69 DUP7 DUP3 DUP5 PUSH2 0x1906 JUMP JUMPDEST SWAP6 POP PUSH2 0x1B74 DUP5 PUSH2 0x1B18 JUMP JUMPDEST SWAP4 POP PUSH1 0x20 DUP12 ADD SWAP11 POP POP POP PUSH1 0x1 DUP2 ADD SWAP1 POP PUSH2 0x1B47 JUMP JUMPDEST POP DUP3 SWAP8 POP DUP8 SWAP5 POP POP POP POP POP SWAP4 SWAP3 POP POP POP JUMP JUMPDEST PUSH1 0x0 PUSH1 0x20 DUP3 ADD SWAP1 POP DUP2 DUP2 SUB PUSH1 0x0 DUP4 ADD MSTORE PUSH2 0x1BB6 DUP2 DUP5 DUP7 PUSH2 0x1B25 JUMP JUMPDEST SWAP1 POP SWAP4 SWAP3 POP POP POP JUMP JUMPDEST PUSH1 0x0 PUSH1 0x60 DUP3 ADD SWAP1 POP DUP2 DUP2 SUB PUSH1 0x0 DUP4 ADD MSTORE PUSH2 0x1BDA DUP2 DUP8 DUP10 PUSH2 0x11F7 JUMP JUMPDEST SWAP1 POP PUSH2 0x1BE9 PUSH1 0x20 DUP4 ADD DUP7 PUSH2 0x126B JUMP JUMPDEST DUP2 DUP2 SUB PUSH1 0x40 DUP4 ADD MSTORE PUSH2 0x1BFC DUP2 DUP5 DUP7 PUSH2 0x12AB JUMP JUMPDEST SWAP1 POP SWAP7 SWAP6 POP POP POP POP POP POP JUMP JUMPDEST PUSH1 0x0 PUSH2 0x120 DUP3 DUP5 SUB SLT ISZERO PUSH2 0x1C1F JUMPI PUSH2 0x1C1E PUSH2 0x1582 JUMP JUMPDEST JUMPDEST DUP2 SWAP1 POP SWAP3 SWAP2 POP POP JUMP JUMPDEST PUSH1 0x0 PUSH1 0x20 DUP3 DUP5 SUB SLT ISZERO PUSH2 0x1C3E JUMPI PUSH2 0x1C3D PUSH2 0xA3C JUMP JUMPDEST JUMPDEST PUSH1 0x0 DUP3 ADD CALLDATALOAD PUSH8 0xFFFFFFFFFFFFFFFF DUP2 GT ISZERO PUSH2 0x1C5C JUMPI PUSH2 0x1C5B PUSH2 0xA41 JUMP JUMPDEST JUMPDEST PUSH2 0x1C68 DUP5 DUP3 DUP6 ADD PUSH2 0x1C08 JUMP JUMPDEST SWAP2 POP POP SWAP3 SWAP2 POP POP JUMP JUMPDEST PUSH1 0x0 DUP2 PUSH1 0x0 SIGNEXTEND SWAP1 POP SWAP2 SWAP1 POP JUMP JUMPDEST PUSH2 0x1C87 DUP2 PUSH2 0x1C71 JUMP JUMPDEST DUP2 EQ PUSH2 0x1C92 JUMPI PUSH1 0x0 DUP1 REVERT JUMPDEST POP JUMP JUMPDEST PUSH1 0x0 DUP2 CALLDATALOAD SWAP1 POP PUSH2 0x1CA4 DUP2 PUSH2 0x1C7E JUMP JUMPDEST SWAP3 SWAP2 POP POP JUMP JUMPDEST PUSH1 0x0 PUSH2 0x1CB9 PUSH1 0x20 DUP5 ADD DUP5 PUSH2 0x1C95 JUMP JUMPDEST SWAP1 POP SWAP3 SWAP2 POP POP JUMP JUMPDEST PUSH2 0x1CCA DUP2 PUSH2 0x1C71 JUMP JUMPDEST DUP3 MSTORE POP POP JUMP JUMPDEST PUSH1 0x0 PUSH1 0xFF DUP3 AND SWAP1 POP SWAP2 SWAP1 POP JUMP JUMPDEST PUSH2 0x1CE6 DUP2 PUSH2 0x1CD0 JUMP JUMPDEST DUP2 EQ PUSH2 0x1CF1 JUMPI PUSH1 0x0 DUP1 REVERT JUMPDEST POP JUMP JUMPDEST PUSH1 0x0 DUP2 CALLDATALOAD SWAP1 POP PUSH2 0x1D03 DUP2 PUSH2 0x1CDD JUMP JUMPDEST SWAP3 SWAP2 POP POP JUMP JUMPDEST PUSH1 0x0 PUSH2 0x1D18 PUSH1 0x20 DUP5 ADD DUP5 PUSH2 0x1CF4 JUMP JUMPDEST SWAP1 POP SWAP3 SWAP2 POP POP JUMP JUMPDEST PUSH2 0x1D29 DUP2 PUSH2 0x1CD0 JUMP JUMPDEST DUP3 MSTORE POP POP JUMP JUMPDEST PUSH1 0x0 PUSH20 0xFFFFFFFFFFFFFFFFFFFFFFFFFFFFFFFFFFFFFFFF DUP3 AND SWAP1 POP SWAP2 SWAP1 POP JUMP JUMPDEST PUSH1 0x0 PUSH2 0x1D5A DUP3 PUSH2 0x1D2F JUMP JUMPDEST SWAP1 POP SWAP2 SWAP1 POP JUMP JUMPDEST PUSH2 0x1D6A DUP2 PUSH2 0x1D4F JUMP JUMPDEST DUP2 EQ PUSH2 0x1D75 JUMPI PUSH1 0x0 DUP1 REVERT JUMPDEST POP JUMP JUMPDEST PUSH1 0x0 DUP2 CALLDATALOAD SWAP1 POP PUSH2 0x1D87 DUP2 PUSH2 0x1D61 JUMP JUMPDEST SWAP3 SWAP2 POP POP JUMP JUMPDEST PUSH1 0x0 PUSH2 0x1D9C PUSH1 0x20 DUP5 ADD DUP5 PUSH2 0x1D78 JUMP JUMPDEST SWAP1 POP SWAP3 SWAP2 POP POP JUMP JUMPDEST PUSH2 0x1DAD DUP2 PUSH2 0x1D4F JUMP JUMPDEST DUP3 MSTORE POP POP JUMP JUMPDEST PUSH1 0x0 DUP2 ISZERO ISZERO SWAP1 POP SWAP2 SWAP1 POP JUMP JUMPDEST PUSH2 0x1DC8 DUP2 PUSH2 0x1DB3 JUMP JUMPDEST DUP2 EQ PUSH2 0x1DD3 JUMPI PUSH1 0x0 DUP1 REVERT JUMPDEST POP JUMP JUMPDEST PUSH1 0x0 DUP2 CALLDATALOAD SWAP1 POP PUSH2 0x1DE5 DUP2 PUSH2 0x1DBF JUMP JUMPDEST SWAP3 SWAP2 POP POP JUMP JUMPDEST PUSH1 0x0 PUSH2 0x1DFA PUSH1 0x20 DUP5 ADD DUP5 PUSH2 0x1DD6 JUMP JUMPDEST SWAP1 POP SWAP3 SWAP2 POP POP JUMP JUMPDEST PUSH2 0x1E0B DUP2 PUSH2 0x1DB3 JUMP JUMPDEST DUP3 MSTORE POP POP JUMP JUMPDEST PUSH1 0x0 DUP1 DUP4 CALLDATALOAD PUSH1 0x1 PUSH1 0x20 SUB DUP5 CALLDATASIZE SUB SUB DUP2 SLT PUSH2 0x1E2E JUMPI PUSH2 0x1E2D PUSH2 0x1053 JUMP JUMPDEST JUMPDEST DUP4 DUP2 ADD SWAP3 POP DUP3 CALLDATALOAD SWAP2 POP PUSH1 0x20 DUP4 ADD SWAP3 POP PUSH8 0xFFFFFFFFFFFFFFFF DUP3 GT ISZERO PUSH2 0x1E56 JUMPI PUSH2 0x1E55 PUSH2 0x1049 JUMP JUMPDEST JUMPDEST PUSH1 0x1 DUP3 MUL CALLDATASIZE SUB DUP4 SGT ISZERO PUSH2 0x1E6C JUMPI PUSH2 0x1E6B PUSH2 0x104E JUMP JUMPDEST JUMPDEST POP SWAP3 POP SWAP3 SWAP1 POP JUMP JUMPDEST PUSH1 0x0 DUP3 DUP3 MSTORE PUSH1 0x20 DUP3 ADD SWAP1 POP SWAP3 SWAP2 POP POP JUMP JUMPDEST PUSH1 0x0 PUSH2 0x1E91 DUP4 DUP6 PUSH2 0x1E74 JUMP JUMPDEST SWAP4 POP PUSH2 0x1E9E DUP4 DUP6 DUP5 PUSH2 0x128B JUMP JUMPDEST PUSH2 0x1EA7 DUP4 PUSH2 0x129A JUMP JUMPDEST DUP5 ADD SWAP1 POP SWAP4 SWAP3 POP POP POP JUMP JUMPDEST PUSH1 0x0 PUSH32 0xFFFFFFFFFFFFFFFF000000000000000000000000000000000000000000000000 DUP3 AND SWAP1 POP SWAP2 SWAP1 POP JUMP JUMPDEST PUSH2 0x1EE7 DUP2 PUSH2 0x1EB2 JUMP JUMPDEST DUP2 EQ PUSH2 0x1EF2 JUMPI PUSH1 0x0 DUP1 REVERT JUMPDEST POP JUMP JUMPDEST PUSH1 0x0 DUP2 CALLDATALOAD SWAP1 POP PUSH2 0x1F04 DUP2 PUSH2 0x1EDE JUMP JUMPDEST SWAP3 SWAP2 POP POP JUMP JUMPDEST PUSH1 0x0 PUSH2 0x1F19 PUSH1 0x20 DUP5 ADD DUP5 PUSH2 0x1EF5 JUMP JUMPDEST SWAP1 POP SWAP3 SWAP2 POP POP JUMP JUMPDEST PUSH2 0x1F2A DUP2 PUSH2 0x1EB2 JUMP JUMPDEST DUP3 MSTORE POP POP JUMP JUMPDEST PUSH1 0x0 DUP1 DUP4 CALLDATALOAD PUSH1 0x1 PUSH1 0x20 SUB DUP5 CALLDATASIZE SUB SUB DUP2 SLT PUSH2 0x1F4D JUMPI PUSH2 0x1F4C PUSH2 0x1053 JUMP JUMPDEST JUMPDEST DUP4 DUP2 ADD SWAP3 POP DUP3 CALLDATALOAD SWAP2 POP PUSH1 0x20 DUP4 ADD SWAP3 POP PUSH8 0xFFFFFFFFFFFFFFFF DUP3 GT ISZERO PUSH2 0x1F75 JUMPI PUSH2 0x1F74 PUSH2 0x1049 JUMP JUMPDEST JUMPDEST PUSH1 0x1 DUP3 MUL CALLDATASIZE SUB DUP4 SGT ISZERO PUSH2 0x1F8B JUMPI PUSH2 0x1F8A PUSH2 0x104E JUMP JUMPDEST JUMPDEST POP SWAP3 POP SWAP3 SWAP1 POP JUMP JUMPDEST PUSH1 0x0 DUP3 DUP3 MSTORE PUSH1 0x20 DUP3 ADD SWAP1 POP SWAP3 SWAP2 POP POP JUMP JUMPDEST PUSH1 0x0 PUSH2 0x1FB0 DUP4 DUP6 PUSH2 0x1F93 JUMP JUMPDEST SWAP4 POP PUSH2 0x1FBD DUP4 DUP6 DUP5 PUSH2 0x128B JUMP JUMPDEST PUSH2 0x1FC6 DUP4 PUSH2 0x129A JUMP JUMPDEST DUP5 ADD SWAP1 POP SWAP4 SWAP3 POP POP POP JUMP JUMPDEST PUSH1 0x0 PUSH2 0x120 DUP4 ADD PUSH2 0x1FE5 PUSH1 0x0 DUP5 ADD DUP5 PUSH2 0xB90 JUMP JUMPDEST PUSH2 0x1FF2 PUSH1 0x0 DUP7 ADD DUP3 PUSH2 0xB3D JUMP JUMPDEST POP PUSH2 0x2000 PUSH1 0x20 DUP5 ADD DUP5 PUSH2 0x1CAA JUMP JUMPDEST PUSH2 0x200D PUSH1 0x20 DUP7 ADD DUP3 PUSH2 0x1CC1 JUMP JUMPDEST POP PUSH2 0x201B PUSH1 0x40 DUP5 ADD DUP5 PUSH2 0xF35 JUMP JUMPDEST PUSH2 0x2028 PUSH1 0x40 DUP7 ADD DUP3 PUSH2 0xF4C JUMP JUMPDEST POP PUSH2 0x2036 PUSH1 0x60 DUP5 ADD DUP5 PUSH2 0x1D09 JUMP JUMPDEST PUSH2 0x2043 PUSH1 0x60 DUP7 ADD DUP3 PUSH2 0x1D20 JUMP JUMPDEST POP PUSH2 0x2051 PUSH1 0x80 DUP5 ADD DUP5 PUSH2 0x1D8D JUMP JUMPDEST PUSH2 0x205E PUSH1 0x80 DUP7 ADD DUP3 PUSH2 0x1DA4 JUMP JUMPDEST POP PUSH2 0x206C PUSH1 0xA0 DUP5 ADD DUP5 PUSH2 0x1DEB JUMP JUMPDEST PUSH2 0x2079 PUSH1 0xA0 DUP7 ADD DUP3 PUSH2 0x1E02 JUMP JUMPDEST POP PUSH2 0x2087 PUSH1 0xC0 DUP5 ADD DUP5 PUSH2 0x1E11 JUMP JUMPDEST DUP6 DUP4 SUB PUSH1 0xC0 DUP8 ADD MSTORE PUSH2 0x209A DUP4 DUP3 DUP5 PUSH2 0x1E85 JUMP JUMPDEST SWAP3 POP POP POP PUSH2 0x20AB PUSH1 0xE0 DUP5 ADD DUP5 PUSH2 0x1F0A JUMP JUMPDEST PUSH2 0x20B8 PUSH1 0xE0 DUP7 ADD DUP3 PUSH2 0x1F21 JUMP JUMPDEST POP PUSH2 0x20C7 PUSH2 0x100 DUP5 ADD DUP5 PUSH2 0x1F30 JUMP JUMPDEST DUP6 DUP4 SUB PUSH2 0x100 DUP8 ADD MSTORE PUSH2 0x20DB DUP4 DUP3 DUP5 PUSH2 0x1FA4 JUMP JUMPDEST SWAP3 POP POP POP DUP1 SWAP2 POP POP SWAP3 SWAP2 POP POP JUMP JUMPDEST PUSH1 0x0 PUSH1 0x20 DUP3 ADD SWAP1 POP DUP2 DUP2 SUB PUSH1 0x0 DUP4 ADD MSTORE PUSH2 0x2103 DUP2 DUP5 PUSH2 0x1FD1 JUMP JUMPDEST SWAP1 POP SWAP3 SWAP2 POP POP JUMP JUMPDEST PUSH32 0x4E487B7100000000000000000000000000000000000000000000000000000000 PUSH1 0x0 MSTORE PUSH1 0x11 PUSH1 0x4 MSTORE PUSH1 0x24 PUSH1 0x0 REVERT JUMPDEST PUSH1 0x0 PUSH2 0x2145 DUP3 PUSH2 0xB33 JUMP JUMPDEST SWAP2 POP PUSH32 0x7FFFFFFFFFFFFFFFFFFFFFFFFFFFFFFFFFFFFFFFFFFFFFFFFFFFFFFFFFFFFFFF DUP3 SUB PUSH2 0x2177 JUMPI PUSH2 0x2176 PUSH2 0x210B JUMP JUMPDEST JUMPDEST PUSH1 0x1 DUP3 ADD SWAP1 POP SWAP2 SWAP1 POP JUMP JUMPDEST PUSH32 0x4E487B7100000000000000000000000000000000000000000000000000000000 PUSH1 0x0 MSTORE PUSH1 0x22 PUSH1 0x4 MSTORE PUSH1 0x24 PUSH1 0x0 REVERT JUMPDEST PUSH1 0x0 PUSH1 0x2 DUP3 DIV SWAP1 POP PUSH1 0x1 DUP3 AND DUP1 PUSH2 0x21C9 JUMPI PUSH1 0x7F DUP3 AND SWAP2 POP JUMPDEST PUSH1 0x20 DUP3 LT DUP2 SUB PUSH2 0x21DC JUMPI PUSH2 0x21DB PUSH2 0x2182 JUMP JUMPDEST JUMPDEST POP SWAP2 SWAP1 POP JUMP INVALID LOG2 PUSH5 0x6970667358 0x22 SLT KECCAK256 DUP5 TLOAD PUSH4 0x2ADCDF8C PREVRANDAO 0xE9 0x2D 0xE6 0x24 0xCC 0x2E EXTCODECOPY DUP16 PUSH14 0x58629BB50816D188C4AA3B81EA77 EXTCODECOPY PUSH5 0x736F6C6343 STOP ADDMOD XOR STOP CALLER "
        },
        "methodIdentifiers": {
          "counter()": "61bc221a",
          "read01()": "9e1601b5",
          "read02(int256)": "b0a98b80",
          "read03(int256[4])": "2867926c",
          "read04(int256[])": "4238304b",
          "read05(int256[4][4])": "b0344da8",
          "read06(int256[4][])": "02e453de",
          "read07(int256[][4])": "9b027ce3",
          "read08(int256[][])": "9b387437",
          "read09((int256,uint256))": "e2f6a215",
          "read10((int256,uint256)[])": "d1d3886a",
          "read11(((int256,uint256),(int256,uint256)[4],(int256,uint256)[])[],int256,string)": "a5da5e22",
          "read12((int256,int8,uint256,uint8,address,bool,bytes,bytes8,string))": "d1c0e899",
          "version()": "54fd4d50",
          "write01()": "52dfbd2a",
          "write02(int256)": "9298ad10",
          "write03(int256[4])": "3b28e253",
          "write04(int256[])": "de7e5edb",
          "write05(int256[4][4])": "4b0b4927",
          "write06(int256[4][])": "7eacd563",
          "write07(int256[][4])": "8993c7d1",
          "write08(int256[][])": "d81105aa",
          "write09((int256,uint256))": "4c1807b2",
          "write10((int256,uint256)[])": "768458eb",
          "write11(((int256,uint256),(int256,uint256)[4],(int256,uint256)[])[],int256,string)": "39006211",
          "write12((int256,int8,uint256,uint8,address,bool,bytes,bytes8,string))": "d45ed9df"
        }
      }
    }
  }
}