{
  "contracts/TestCalls.sol": {
    "TestCalls": {
      "abi": [
        {
          "inputs": [],
          "name": "counter",
          "outputs": [
            {
              "internalType": "int256",
              "name": "",
              "type": "int256"
            }
          ],
          "stateMutability": "view",
          "type": "function"
        },
        {
          "inputs": [],
          "name": "read00",
          "outputs": [],
          "stateMutability": "pure",
          "type": "function"
        },
        {
          "inputs": [
            {
              "internalType": "int256",
              "name": "a",
              "type": "int256"
            }
          ],
          "name": "read01",
          "outputs": [
            {
              "internalType": "int256",
              "name": "a1",
              "type": "int256"
            }
          ],
          "stateMutability": "pure",
          "type": "function"
        },
        {
          "inputs": [
            {
              "internalType": "int256[4]",
              "name": "a",
              "type": "int256[4]"
            }
          ],
          "name": "read02",
          "outputs": [
            {
              "internalType": "int256[4]",
              "name": "a1",
              "type": "int256[4]"
            }
          ],
          "stateMutability": "pure",
          "type": "function"
        },
        {
          "inputs": [
            {
              "internalType": "int256[]",
              "name": "a",
              "type": "int256[]"
            }
          ],
          "name": "read03",
          "outputs": [
            {
              "internalType": "int256[]",
              "name": "a1",
              "type": "int256[]"
            }
          ],
          "stateMutability": "pure",
          "type": "function"
        },
        {
          "inputs": [
            {
              "internalType": "int256[4][4]",
              "name": "a",
              "type": "int256[4][4]"
            }
          ],
          "name": "read04",
          "outputs": [
            {
              "internalType": "int256[4][4]",
              "name": "a1",
              "type": "int256[4][4]"
            }
          ],
          "stateMutability": "pure",
          "type": "function"
        },
        {
          "inputs": [
            {
              "internalType": "int256[4][]",
              "name": "a",
              "type": "int256[4][]"
            }
          ],
          "name": "read05",
          "outputs": [
            {
              "internalType": "int256[4][]",
              "name": "a1",
              "type": "int256[4][]"
            }
          ],
          "stateMutability": "pure",
          "type": "function"
        },
        {
          "inputs": [
            {
              "internalType": "int256[][4]",
              "name": "a",
              "type": "int256[][4]"
            }
          ],
          "name": "read06",
          "outputs": [
            {
              "internalType": "int256[][4]",
              "name": "a1",
              "type": "int256[][4]"
            }
          ],
          "stateMutability": "pure",
          "type": "function"
        },
        {
          "inputs": [
            {
              "internalType": "int256[][]",
              "name": "a",
              "type": "int256[][]"
            }
          ],
          "name": "read07",
          "outputs": [
            {
              "internalType": "int256[][]",
              "name": "a1",
              "type": "int256[][]"
            }
          ],
          "stateMutability": "pure",
          "type": "function"
        },
        {
          "inputs": [
            {
              "components": [
                {
                  "internalType": "int256",
                  "name": "a",
                  "type": "int256"
                },
                {
                  "internalType": "uint256",
                  "name": "b",
                  "type": "uint256"
                },
                {
                  "internalType": "address",
                  "name": "c",
                  "type": "address"
                },
                {
                  "internalType": "bool",
                  "name": "d",
                  "type": "bool"
                },
                {
                  "internalType": "bytes",
                  "name": "e",
                  "type": "bytes"
                },
                {
                  "internalType": "string",
                  "name": "f",
                  "type": "string"
                }
              ],
              "internalType": "struct TestCalls.T",
              "name": "a",
              "type": "tuple"
            }
          ],
          "name": "read08",
          "outputs": [
            {
              "components": [
                {
                  "internalType": "int256",
                  "name": "a",
                  "type": "int256"
                },
                {
                  "internalType": "uint256",
                  "name": "b",
                  "type": "uint256"
                },
                {
                  "internalType": "address",
                  "name": "c",
                  "type": "address"
                },
                {
                  "internalType": "bool",
                  "name": "d",
                  "type": "bool"
                },
                {
                  "internalType": "bytes",
                  "name": "e",
                  "type": "bytes"
                },
                {
                  "internalType": "string",
                  "name": "f",
                  "type": "string"
                }
              ],
              "internalType": "struct TestCalls.T",
              "name": "a1",
              "type": "tuple"
            }
          ],
          "stateMutability": "pure",
          "type": "function"
        },
        {
          "inputs": [
            {
              "components": [
                {
                  "internalType": "int256",
                  "name": "a",
                  "type": "int256"
                },
                {
                  "internalType": "uint256",
                  "name": "b",
                  "type": "uint256"
                },
                {
                  "internalType": "address",
                  "name": "c",
                  "type": "address"
                },
                {
                  "internalType": "bool",
                  "name": "d",
                  "type": "bool"
                },
                {
                  "internalType": "bytes",
                  "name": "e",
                  "type": "bytes"
                },
                {
                  "internalType": "string",
                  "name": "f",
                  "type": "string"
                }
              ],
              "internalType": "struct TestCalls.T[]",
              "name": "a",
              "type": "tuple[]"
            }
          ],
          "name": "read09",
          "outputs": [
            {
              "components": [
                {
                  "internalType": "int256",
                  "name": "a",
                  "type": "int256"
                },
                {
                  "internalType": "uint256",
                  "name": "b",
                  "type": "uint256"
                },
                {
                  "internalType": "address",
                  "name": "c",
                  "type": "address"
                },
                {
                  "internalType": "bool",
                  "name": "d",
                  "type": "bool"
                },
                {
                  "internalType": "bytes",
                  "name": "e",
                  "type": "bytes"
                },
                {
                  "internalType": "string",
                  "name": "f",
                  "type": "string"
                }
              ],
              "internalType": "struct TestCalls.T[]",
              "name": "a1",
              "type": "tuple[]"
            }
          ],
          "stateMutability": "pure",
          "type": "function"
        },
        {
          "inputs": [
            {
              "components": [
                {
                  "components": [
                    {
                      "internalType": "int256",
                      "name": "a",
                      "type": "int256"
                    },
                    {
                      "internalType": "uint256",
                      "name": "b",
                      "type": "uint256"
                    },
                    {
                      "internalType": "address",
                      "name": "c",
                      "type": "address"
                    },
                    {
                      "internalType": "bool",
                      "name": "d",
                      "type": "bool"
                    },
                    {
                      "internalType": "bytes",
                      "name": "e",
                      "type": "bytes"
                    },
                    {
                      "internalType": "string",
                      "name": "f",
                      "type": "string"
                    }
                  ],
                  "internalType": "struct TestCalls.T",
                  "name": "t",
                  "type": "tuple"
                },
                {
                  "components": [
                    {
                      "internalType": "int256",
                      "name": "a",
                      "type": "int256"
                    },
                    {
                      "internalType": "uint256",
                      "name": "b",
                      "type": "uint256"
                    },
                    {
                      "internalType": "address",
                      "name": "c",
                      "type": "address"
                    },
                    {
                      "internalType": "bool",
                      "name": "d",
                      "type": "bool"
                    },
                    {
                      "internalType": "bytes",
                      "name": "e",
                      "type": "bytes"
                    },
                    {
                      "internalType": "string",
                      "name": "f",
                      "type": "string"
                    }
                  ],
                  "internalType": "struct TestCalls.T[4]",
                  "name": "ta",
                  "type": "tuple[4]"
                },
                {
                  "components": [
                    {
                      "internalType": "int256",
                      "name": "a",
                      "type": "int256"
                    },
                    {
                      "internalType": "uint256",
                      "name": "b",
                      "type": "uint256"
                    },
                    {
                      "internalType": "address",
                      "name": "c",
                      "type": "address"
                    },
                    {
                      "internalType": "bool",
                      "name": "d",
                      "type": "bool"
                    },
                    {
                      "internalType": "bytes",
                      "name": "e",
                      "type": "bytes"
                    },
                    {
                      "internalType": "string",
                      "name": "f",
                      "type": "string"
                    }
                  ],
                  "internalType": "struct TestCalls.T[]",
                  "name": "ta2",
                  "type": "tuple[]"
                }
              ],
              "internalType": "struct TestCalls.T2",
              "name": "a",
              "type": "tuple"
            }
          ],
          "name": "read10",
          "outputs": [
            {
              "components": [
                {
                  "components": [
                    {
                      "internalType": "int256",
                      "name": "a",
                      "type": "int256"
                    },
                    {
                      "internalType": "uint256",
                      "name": "b",
                      "type": "uint256"
                    },
                    {
                      "internalType": "address",
                      "name": "c",
                      "type": "address"
                    },
                    {
                      "internalType": "bool",
                      "name": "d",
                      "type": "bool"
                    },
                    {
                      "internalType": "bytes",
                      "name": "e",
                      "type": "bytes"
                    },
                    {
                      "internalType": "string",
                      "name": "f",
                      "type": "string"
                    }
                  ],
                  "internalType": "struct TestCalls.T",
                  "name": "t",
                  "type": "tuple"
                },
                {
                  "components": [
                    {
                      "internalType": "int256",
                      "name": "a",
                      "type": "int256"
                    },
                    {
                      "internalType": "uint256",
                      "name": "b",
                      "type": "uint256"
                    },
                    {
                      "internalType": "address",
                      "name": "c",
                      "type": "address"
                    },
                    {
                      "internalType": "bool",
                      "name": "d",
                      "type": "bool"
                    },
                    {
                      "internalType": "bytes",
                      "name": "e",
                      "type": "bytes"
                    },
                    {
                      "internalType": "string",
                      "name": "f",
                      "type": "string"
                    }
                  ],
                  "internalType": "struct TestCalls.T[4]",
                  "name": "ta",
                  "type": "tuple[4]"
                },
                {
                  "components": [
                    {
                      "internalType": "int256",
                      "name": "a",
                      "type": "int256"
                    },
                    {
                      "internalType": "uint256",
                      "name": "b",
                      "type": "uint256"
                    },
                    {
                      "internalType": "address",
                      "name": "c",
                      "type": "address"
                    },
                    {
                      "internalType": "bool",
                      "name": "d",
                      "type": "bool"
                    },
                    {
                      "internalType": "bytes",
                      "name": "e",
                      "type": "bytes"
                    },
                    {
                      "internalType": "string",
                      "name": "f",
                      "type": "string"
                    }
                  ],
                  "internalType": "struct TestCalls.T[]",
                  "name": "ta2",
                  "type": "tuple[]"
                }
              ],
              "internalType": "struct TestCalls.T2",
              "name": "a1",
              "type": "tuple"
            }
          ],
          "stateMutability": "pure",
          "type": "function"
        },
        {
          "inputs": [
            {
              "components": [
                {
                  "components": [
                    {
                      "internalType": "int256",
                      "name": "a",
                      "type": "int256"
                    },
                    {
                      "internalType": "uint256",
                      "name": "b",
                      "type": "uint256"
                    },
                    {
                      "internalType": "address",
                      "name": "c",
                      "type": "address"
                    },
                    {
                      "internalType": "bool",
                      "name": "d",
                      "type": "bool"
                    },
                    {
                      "internalType": "bytes",
                      "name": "e",
                      "type": "bytes"
                    },
                    {
                      "internalType": "string",
                      "name": "f",
                      "type": "string"
                    }
                  ],
                  "internalType": "struct TestCalls.T",
                  "name": "t",
                  "type": "tuple"
                },
                {
                  "components": [
                    {
                      "internalType": "int256",
                      "name": "a",
                      "type": "int256"
                    },
                    {
                      "internalType": "uint256",
                      "name": "b",
                      "type": "uint256"
                    },
                    {
                      "internalType": "address",
                      "name": "c",
                      "type": "address"
                    },
                    {
                      "internalType": "bool",
                      "name": "d",
                      "type": "bool"
                    },
                    {
                      "internalType": "bytes",
                      "name": "e",
                      "type": "bytes"
                    },
                    {
                      "internalType": "string",
                      "name": "f",
                      "type": "string"
                    }
                  ],
                  "internalType": "struct TestCalls.T[4]",
                  "name": "ta",
                  "type": "tuple[4]"
                },
                {
                  "components": [
                    {
                      "internalType": "int256",
                      "name": "a",
                      "type": "int256"
                    },
                    {
                      "internalType": "uint256",
                      "name": "b",
                      "type": "uint256"
                    },
                    {
                      "internalType": "address",
                      "name": "c",
                      "type": "address"
                    },
                    {
                      "internalType": "bool",
                      "name": "d",
                      "type": "bool"
                    },
                    {
                      "internalType": "bytes",
                      "name": "e",
                      "type": "bytes"
                    },
                    {
                      "internalType": "string",
                      "name": "f",
                      "type": "string"
                    }
                  ],
                  "internalType": "struct TestCalls.T[]",
                  "name": "ta2",
                  "type": "tuple[]"
                }
              ],
              "internalType": "struct TestCalls.T2[]",
              "name": "a",
              "type": "tuple[]"
            }
          ],
          "name": "read11",
          "outputs": [
            {
              "components": [
                {
                  "components": [
                    {
                      "internalType": "int256",
                      "name": "a",
                      "type": "int256"
                    },
                    {
                      "internalType": "uint256",
                      "name": "b",
                      "type": "uint256"
                    },
                    {
                      "internalType": "address",
                      "name": "c",
                      "type": "address"
                    },
                    {
                      "internalType": "bool",
                      "name": "d",
                      "type": "bool"
                    },
                    {
                      "internalType": "bytes",
                      "name": "e",
                      "type": "bytes"
                    },
                    {
                      "internalType": "string",
                      "name": "f",
                      "type": "string"
                    }
                  ],
                  "internalType": "struct TestCalls.T",
                  "name": "t",
                  "type": "tuple"
                },
                {
                  "components": [
                    {
                      "internalType": "int256",
                      "name": "a",
                      "type": "int256"
                    },
                    {
                      "internalType": "uint256",
                      "name": "b",
                      "type": "uint256"
                    },
                    {
                      "internalType": "address",
                      "name": "c",
                      "type": "address"
                    },
                    {
                      "internalType": "bool",
                      "name": "d",
                      "type": "bool"
                    },
                    {
                      "internalType": "bytes",
                      "name": "e",
                      "type": "bytes"
                    },
                    {
                      "internalType": "string",
                      "name": "f",
                      "type": "string"
                    }
                  ],
                  "internalType": "struct TestCalls.T[4]",
                  "name": "ta",
                  "type": "tuple[4]"
                },
                {
                  "components": [
                    {
                      "internalType": "int256",
                      "name": "a",
                      "type": "int256"
                    },
                    {
                      "internalType": "uint256",
                      "name": "b",
                      "type": "uint256"
                    },
                    {
                      "internalType": "address",
                      "name": "c",
                      "type": "address"
                    },
                    {
                      "internalType": "bool",
                      "name": "d",
                      "type": "bool"
                    },
                    {
                      "internalType": "bytes",
                      "name": "e",
                      "type": "bytes"
                    },
                    {
                      "internalType": "string",
                      "name": "f",
                      "type": "string"
                    }
                  ],
                  "internalType": "struct TestCalls.T[]",
                  "name": "ta2",
                  "type": "tuple[]"
                }
              ],
              "internalType": "struct TestCalls.T2[]",
              "name": "a1",
              "type": "tuple[]"
            }
          ],
          "stateMutability": "pure",
          "type": "function"
        },
        {
          "inputs": [
            {
              "components": [
                {
                  "components": [
                    {
                      "internalType": "int256",
                      "name": "a",
                      "type": "int256"
                    },
                    {
                      "internalType": "uint256",
                      "name": "b",
                      "type": "uint256"
                    },
                    {
                      "internalType": "address",
                      "name": "c",
                      "type": "address"
                    },
                    {
                      "internalType": "bool",
                      "name": "d",
                      "type": "bool"
                    },
                    {
                      "internalType": "bytes",
                      "name": "e",
                      "type": "bytes"
                    },
                    {
                      "internalType": "string",
                      "name": "f",
                      "type": "string"
                    }
                  ],
                  "internalType": "struct TestCalls.T",
                  "name": "t",
                  "type": "tuple"
                },
                {
                  "components": [
                    {
                      "internalType": "int256",
                      "name": "a",
                      "type": "int256"
                    },
                    {
                      "internalType": "uint256",
                      "name": "b",
                      "type": "uint256"
                    },
                    {
                      "internalType": "address",
                      "name": "c",
                      "type": "address"
                    },
                    {
                      "internalType": "bool",
                      "name": "d",
                      "type": "bool"
                    },
                    {
                      "internalType": "bytes",
                      "name": "e",
                      "type": "bytes"
                    },
                    {
                      "internalType": "string",
                      "name": "f",
                      "type": "string"
                    }
                  ],
                  "internalType": "struct TestCalls.T[4]",
                  "name": "ta",
                  "type": "tuple[4]"
                },
                {
                  "components": [
                    {
                      "internalType": "int256",
                      "name": "a",
                      "type": "int256"
                    },
                    {
                      "internalType": "uint256",
                      "name": "b",
                      "type": "uint256"
                    },
                    {
                      "internalType": "address",
                      "name": "c",
                      "type": "address"
                    },
                    {
                      "internalType": "bool",
                      "name": "d",
                      "type": "bool"
                    },
                    {
                      "internalType": "bytes",
                      "name": "e",
                      "type": "bytes"
                    },
                    {
                      "internalType": "string",
                      "name": "f",
                      "type": "string"
                    }
                  ],
                  "internalType": "struct TestCalls.T[]",
                  "name": "ta2",
                  "type": "tuple[]"
                }
              ],
              "internalType": "struct TestCalls.T2[]",
              "name": "a",
              "type": "tuple[]"
            },
            {
              "internalType": "int256",
              "name": "b",
              "type": "int256"
            },
            {
              "internalType": "string",
              "name": "c",
              "type": "string"
            }
          ],
          "name": "read12",
          "outputs": [
            {
              "components": [
                {
                  "components": [
                    {
                      "internalType": "int256",
                      "name": "a",
                      "type": "int256"
                    },
                    {
                      "internalType": "uint256",
                      "name": "b",
                      "type": "uint256"
                    },
                    {
                      "internalType": "address",
                      "name": "c",
                      "type": "address"
                    },
                    {
                      "internalType": "bool",
                      "name": "d",
                      "type": "bool"
                    },
                    {
                      "internalType": "bytes",
                      "name": "e",
                      "type": "bytes"
                    },
                    {
                      "internalType": "string",
                      "name": "f",
                      "type": "string"
                    }
                  ],
                  "internalType": "struct TestCalls.T",
                  "name": "t",
                  "type": "tuple"
                },
                {
                  "components": [
                    {
                      "internalType": "int256",
                      "name": "a",
                      "type": "int256"
                    },
                    {
                      "internalType": "uint256",
                      "name": "b",
                      "type": "uint256"
                    },
                    {
                      "internalType": "address",
                      "name": "c",
                      "type": "address"
                    },
                    {
                      "internalType": "bool",
                      "name": "d",
                      "type": "bool"
                    },
                    {
                      "internalType": "bytes",
                      "name": "e",
                      "type": "bytes"
                    },
                    {
                      "internalType": "string",
                      "name": "f",
                      "type": "string"
                    }
                  ],
                  "internalType": "struct TestCalls.T[4]",
                  "name": "ta",
                  "type": "tuple[4]"
                },
                {
                  "components": [
                    {
                      "internalType": "int256",
                      "name": "a",
                      "type": "int256"
                    },
                    {
                      "internalType": "uint256",
                      "name": "b",
                      "type": "uint256"
                    },
                    {
                      "internalType": "address",
                      "name": "c",
                      "type": "address"
                    },
                    {
                      "internalType": "bool",
                      "name": "d",
                      "type": "bool"
                    },
                    {
                      "internalType": "bytes",
                      "name": "e",
                      "type": "bytes"
                    },
                    {
                      "internalType": "string",
                      "name": "f",
                      "type": "string"
                    }
                  ],
                  "internalType": "struct TestCalls.T[]",
                  "name": "ta2",
                  "type": "tuple[]"
                }
              ],
              "internalType": "struct TestCalls.T2[]",
              "name": "a1",
              "type": "tuple[]"
            },
            {
              "internalType": "int256",
              "name": "b1",
              "type": "int256"
            },
            {
              "internalType": "string",
              "name": "c1",
              "type": "string"
            }
          ],
          "stateMutability": "pure",
          "type": "function"
        },
        {
          "inputs": [],
          "name": "version",
          "outputs": [
            {
              "internalType": "string",
              "name": "",
              "type": "string"
            }
          ],
          "stateMutability": "view",
          "type": "function"
        },
        {
          "inputs": [],
          "name": "write00",
          "outputs": [],
          "stateMutability": "nonpayable",
          "type": "function"
        },
        {
          "inputs": [
            {
              "internalType": "int256",
              "name": "a",
              "type": "int256"
            }
          ],
          "name": "write01",
          "outputs": [
            {
              "internalType": "int256",
              "name": "a1",
              "type": "int256"
            }
          ],
          "stateMutability": "nonpayable",
          "type": "function"
        },
        {
          "inputs": [
            {
              "internalType": "int256[4]",
              "name": "a",
              "type": "int256[4]"
            }
          ],
          "name": "write02",
          "outputs": [
            {
              "internalType": "int256[4]",
              "name": "a1",
              "type": "int256[4]"
            }
          ],
          "stateMutability": "nonpayable",
          "type": "function"
        },
        {
          "inputs": [
            {
              "internalType": "int256[]",
              "name": "a",
              "type": "int256[]"
            }
          ],
          "name": "write03",
          "outputs": [
            {
              "internalType": "int256[]",
              "name": "a1",
              "type": "int256[]"
            }
          ],
          "stateMutability": "nonpayable",
          "type": "function"
        },
        {
          "inputs": [
            {
              "internalType": "int256[4][4]",
              "name": "a",
              "type": "int256[4][4]"
            }
          ],
          "name": "write04",
          "outputs": [
            {
              "internalType": "int256[4][4]",
              "name": "a1",
              "type": "int256[4][4]"
            }
          ],
          "stateMutability": "nonpayable",
          "type": "function"
        },
        {
          "inputs": [
            {
              "internalType": "int256[4][]",
              "name": "a",
              "type": "int256[4][]"
            }
          ],
          "name": "write05",
          "outputs": [
            {
              "internalType": "int256[4][]",
              "name": "a1",
              "type": "int256[4][]"
            }
          ],
          "stateMutability": "nonpayable",
          "type": "function"
        },
        {
          "inputs": [
            {
              "internalType": "int256[][4]",
              "name": "a",
              "type": "int256[][4]"
            }
          ],
          "name": "write06",
          "outputs": [
            {
              "internalType": "int256[][4]",
              "name": "a1",
              "type": "int256[][4]"
            }
          ],
          "stateMutability": "nonpayable",
          "type": "function"
        },
        {
          "inputs": [
            {
              "internalType": "int256[][]",
              "name": "a",
              "type": "int256[][]"
            }
          ],
          "name": "write07",
          "outputs": [
            {
              "internalType": "int256[][]",
              "name": "a1",
              "type": "int256[][]"
            }
          ],
          "stateMutability": "nonpayable",
          "type": "function"
        },
        {
          "inputs": [
            {
              "components": [
                {
                  "internalType": "int256",
                  "name": "a",
                  "type": "int256"
                },
                {
                  "internalType": "uint256",
                  "name": "b",
                  "type": "uint256"
                },
                {
                  "internalType": "address",
                  "name": "c",
                  "type": "address"
                },
                {
                  "internalType": "bool",
                  "name": "d",
                  "type": "bool"
                },
                {
                  "internalType": "bytes",
                  "name": "e",
                  "type": "bytes"
                },
                {
                  "internalType": "string",
                  "name": "f",
                  "type": "string"
                }
              ],
              "internalType": "struct TestCalls.T",
              "name": "a",
              "type": "tuple"
            }
          ],
          "name": "write08",
          "outputs": [
            {
              "components": [
                {
                  "internalType": "int256",
                  "name": "a",
                  "type": "int256"
                },
                {
                  "internalType": "uint256",
                  "name": "b",
                  "type": "uint256"
                },
                {
                  "internalType": "address",
                  "name": "c",
                  "type": "address"
                },
                {
                  "internalType": "bool",
                  "name": "d",
                  "type": "bool"
                },
                {
                  "internalType": "bytes",
                  "name": "e",
                  "type": "bytes"
                },
                {
                  "internalType": "string",
                  "name": "f",
                  "type": "string"
                }
              ],
              "internalType": "struct TestCalls.T",
              "name": "a1",
              "type": "tuple"
            }
          ],
          "stateMutability": "nonpayable",
          "type": "function"
        },
        {
          "inputs": [
            {
              "components": [
                {
                  "internalType": "int256",
                  "name": "a",
                  "type": "int256"
                },
                {
                  "internalType": "uint256",
                  "name": "b",
                  "type": "uint256"
                },
                {
                  "internalType": "address",
                  "name": "c",
                  "type": "address"
                },
                {
                  "internalType": "bool",
                  "name": "d",
                  "type": "bool"
                },
                {
                  "internalType": "bytes",
                  "name": "e",
                  "type": "bytes"
                },
                {
                  "internalType": "string",
                  "name": "f",
                  "type": "string"
                }
              ],
              "internalType": "struct TestCalls.T[]",
              "name": "a",
              "type": "tuple[]"
            }
          ],
          "name": "write09",
          "outputs": [
            {
              "components": [
                {
                  "internalType": "int256",
                  "name": "a",
                  "type": "int256"
                },
                {
                  "internalType": "uint256",
                  "name": "b",
                  "type": "uint256"
                },
                {
                  "internalType": "address",
                  "name": "c",
                  "type": "address"
                },
                {
                  "internalType": "bool",
                  "name": "d",
                  "type": "bool"
                },
                {
                  "internalType": "bytes",
                  "name": "e",
                  "type": "bytes"
                },
                {
                  "internalType": "string",
                  "name": "f",
                  "type": "string"
                }
              ],
              "internalType": "struct TestCalls.T[]",
              "name": "a1",
              "type": "tuple[]"
            }
          ],
          "stateMutability": "nonpayable",
          "type": "function"
        },
        {
          "inputs": [
            {
              "components": [
                {
                  "components": [
                    {
                      "internalType": "int256",
                      "name": "a",
                      "type": "int256"
                    },
                    {
                      "internalType": "uint256",
                      "name": "b",
                      "type": "uint256"
                    },
                    {
                      "internalType": "address",
                      "name": "c",
                      "type": "address"
                    },
                    {
                      "internalType": "bool",
                      "name": "d",
                      "type": "bool"
                    },
                    {
                      "internalType": "bytes",
                      "name": "e",
                      "type": "bytes"
                    },
                    {
                      "internalType": "string",
                      "name": "f",
                      "type": "string"
                    }
                  ],
                  "internalType": "struct TestCalls.T",
                  "name": "t",
                  "type": "tuple"
                },
                {
                  "components": [
                    {
                      "internalType": "int256",
                      "name": "a",
                      "type": "int256"
                    },
                    {
                      "internalType": "uint256",
                      "name": "b",
                      "type": "uint256"
                    },
                    {
                      "internalType": "address",
                      "name": "c",
                      "type": "address"
                    },
                    {
                      "internalType": "bool",
                      "name": "d",
                      "type": "bool"
                    },
                    {
                      "internalType": "bytes",
                      "name": "e",
                      "type": "bytes"
                    },
                    {
                      "internalType": "string",
                      "name": "f",
                      "type": "string"
                    }
                  ],
                  "internalType": "struct TestCalls.T[4]",
                  "name": "ta",
                  "type": "tuple[4]"
                },
                {
                  "components": [
                    {
                      "internalType": "int256",
                      "name": "a",
                      "type": "int256"
                    },
                    {
                      "internalType": "uint256",
                      "name": "b",
                      "type": "uint256"
                    },
                    {
                      "internalType": "address",
                      "name": "c",
                      "type": "address"
                    },
                    {
                      "internalType": "bool",
                      "name": "d",
                      "type": "bool"
                    },
                    {
                      "internalType": "bytes",
                      "name": "e",
                      "type": "bytes"
                    },
                    {
                      "internalType": "string",
                      "name": "f",
                      "type": "string"
                    }
                  ],
                  "internalType": "struct TestCalls.T[]",
                  "name": "ta2",
                  "type": "tuple[]"
                }
              ],
              "internalType": "struct TestCalls.T2",
              "name": "a",
              "type": "tuple"
            }
          ],
          "name": "write10",
          "outputs": [
            {
              "components": [
                {
                  "components": [
                    {
                      "internalType": "int256",
                      "name": "a",
                      "type": "int256"
                    },
                    {
                      "internalType": "uint256",
                      "name": "b",
                      "type": "uint256"
                    },
                    {
                      "internalType": "address",
                      "name": "c",
                      "type": "address"
                    },
                    {
                      "internalType": "bool",
                      "name": "d",
                      "type": "bool"
                    },
                    {
                      "internalType": "bytes",
                      "name": "e",
                      "type": "bytes"
                    },
                    {
                      "internalType": "string",
                      "name": "f",
                      "type": "string"
                    }
                  ],
                  "internalType": "struct TestCalls.T",
                  "name": "t",
                  "type": "tuple"
                },
                {
                  "components": [
                    {
                      "internalType": "int256",
                      "name": "a",
                      "type": "int256"
                    },
                    {
                      "internalType": "uint256",
                      "name": "b",
                      "type": "uint256"
                    },
                    {
                      "internalType": "address",
                      "name": "c",
                      "type": "address"
                    },
                    {
                      "internalType": "bool",
                      "name": "d",
                      "type": "bool"
                    },
                    {
                      "internalType": "bytes",
                      "name": "e",
                      "type": "bytes"
                    },
                    {
                      "internalType": "string",
                      "name": "f",
                      "type": "string"
                    }
                  ],
                  "internalType": "struct TestCalls.T[4]",
                  "name": "ta",
                  "type": "tuple[4]"
                },
                {
                  "components": [
                    {
                      "internalType": "int256",
                      "name": "a",
                      "type": "int256"
                    },
                    {
                      "internalType": "uint256",
                      "name": "b",
                      "type": "uint256"
                    },
                    {
                      "internalType": "address",
                      "name": "c",
                      "type": "address"
                    },
                    {
                      "internalType": "bool",
                      "name": "d",
                      "type": "bool"
                    },
                    {
                      "internalType": "bytes",
                      "name": "e",
                      "type": "bytes"
                    },
                    {
                      "internalType": "string",
                      "name": "f",
                      "type": "string"
                    }
                  ],
                  "internalType": "struct TestCalls.T[]",
                  "name": "ta2",
                  "type": "tuple[]"
                }
              ],
              "internalType": "struct TestCalls.T2",
              "name": "a1",
              "type": "tuple"
            }
          ],
          "stateMutability": "nonpayable",
          "type": "function"
        },
        {
          "inputs": [
            {
              "components": [
                {
                  "internalType": "int256",
                  "name": "a",
                  "type": "int256"
                },
                {
                  "internalType": "uint256",
                  "name": "b",
                  "type": "uint256"
                },
                {
                  "internalType": "address",
                  "name": "c",
                  "type": "address"
                },
                {
                  "internalType": "bool",
                  "name": "d",
                  "type": "bool"
                },
                {
                  "internalType": "bytes",
                  "name": "e",
                  "type": "bytes"
                },
                {
                  "internalType": "string",
                  "name": "f",
                  "type": "string"
                }
              ],
              "internalType": "struct TestCalls.T[]",
              "name": "a",
              "type": "tuple[]"
            }
          ],
          "name": "write11",
          "outputs": [
            {
              "components": [
                {
                  "internalType": "int256",
                  "name": "a",
                  "type": "int256"
                },
                {
                  "internalType": "uint256",
                  "name": "b",
                  "type": "uint256"
                },
                {
                  "internalType": "address",
                  "name": "c",
                  "type": "address"
                },
                {
                  "internalType": "bool",
                  "name": "d",
                  "type": "bool"
                },
                {
                  "internalType": "bytes",
                  "name": "e",
                  "type": "bytes"
                },
                {
                  "internalType": "string",
                  "name": "f",
                  "type": "string"
                }
              ],
              "internalType": "struct TestCalls.T[]",
              "name": "a1",
              "type": "tuple[]"
            }
          ],
          "stateMutability": "nonpayable",
          "type": "function"
        },
        {
          "inputs": [
            {
              "components": [
                {
                  "internalType": "int256",
                  "name": "a",
                  "type": "int256"
                },
                {
                  "internalType": "uint256",
                  "name": "b",
                  "type": "uint256"
                },
                {
                  "internalType": "address",
                  "name": "c",
                  "type": "address"
                },
                {
                  "internalType": "bool",
                  "name": "d",
                  "type": "bool"
                },
                {
                  "internalType": "bytes",
                  "name": "e",
                  "type": "bytes"
                },
                {
                  "internalType": "string",
                  "name": "f",
                  "type": "string"
                }
              ],
              "internalType": "struct TestCalls.T[]",
              "name": "a",
              "type": "tuple[]"
            },
            {
              "internalType": "int256",
              "name": "b",
              "type": "int256"
            },
            {
              "internalType": "string",
              "name": "c",
              "type": "string"
            }
          ],
          "name": "write12",
          "outputs": [
            {
              "components": [
                {
                  "internalType": "int256",
                  "name": "a",
                  "type": "int256"
                },
                {
                  "internalType": "uint256",
                  "name": "b",
                  "type": "uint256"
                },
                {
                  "internalType": "address",
                  "name": "c",
                  "type": "address"
                },
                {
                  "internalType": "bool",
                  "name": "d",
                  "type": "bool"
                },
                {
                  "internalType": "bytes",
                  "name": "e",
                  "type": "bytes"
                },
                {
                  "internalType": "string",
                  "name": "f",
                  "type": "string"
                }
              ],
              "internalType": "struct TestCalls.T[]",
              "name": "a1",
              "type": "tuple[]"
            },
            {
              "internalType": "int256",
              "name": "b1",
              "type": "int256"
            },
            {
              "internalType": "string",
              "name": "c1",
              "type": "string"
            },
            {
              "internalType": "uint256",
              "name": "value",
              "type": "uint256"
            }
          ],
          "stateMutability": "payable",
          "type": "function"
        }
      ],
      "evm": {
        "bytecode": {
          "linkReferences": {},
          "object": "60806040526040518060400160405280600581526020017f302e302e31000000000000000000000000000000000000000000000000000000815250600090816200004a9190620002de565b5060006001553480156200005d57600080fd5b50620003c5565b600081519050919050565b7f4e487b7100000000000000000000000000000000000000000000000000000000600052604160045260246000fd5b7f4e487b7100000000000000000000000000000000000000000000000000000000600052602260045260246000fd5b60006002820490506001821680620000e657607f821691505b602082108103620000fc57620000fb6200009e565b5b50919050565b60008190508160005260206000209050919050565b60006020601f8301049050919050565b600082821b905092915050565b600060088302620001667fffffffffffffffffffffffffffffffffffffffffffffffffffffffffffffffff8262000127565b62000172868362000127565b95508019841693508086168417925050509392505050565b6000819050919050565b6000819050919050565b6000620001bf620001b9620001b3846200018a565b62000194565b6200018a565b9050919050565b6000819050919050565b620001db836200019e565b620001f3620001ea82620001c6565b84845462000134565b825550505050565b600090565b6200020a620001fb565b62000217818484620001d0565b505050565b5b818110156200023f576200023360008262000200565b6001810190506200021d565b5050565b601f8211156200028e57620002588162000102565b620002638462000117565b8101602085101562000273578190505b6200028b620002828562000117565b8301826200021c565b50505b505050565b600082821c905092915050565b6000620002b36000198460080262000293565b1980831691505092915050565b6000620002ce8383620002a0565b9150826002028217905092915050565b620002e98262000064565b67ffffffffffffffff8111156200030557620003046200006f565b5b620003118254620000cd565b6200031e82828562000243565b600060209050601f83116001811462000356576000841562000341578287015190505b6200034d8582620002c0565b865550620003bd565b601f198416620003668662000102565b60005b82811015620003905784890151825560018201915060208501945060208101905062000369565b86831015620003b05784890151620003ac601f891682620002a0565b8355505b6001600288020188555050505b505050505050565b6123e480620003d56000396000f3fe6080604052600436106101b75760003560e01c8063a4097ead116100ec578063e15715b51161008a578063ea7b16af11610064578063ea7b16af14610738578063eaa53fe31461074f578063f25240dd1461078c578063fc367111146107c1576101b7565b8063e15715b51461067e578063e37b7485146106bc578063e6903da6146106fa576101b7565b8063bce4256f116100c6578063bce4256f14610587578063cce89307146105c4578063d1e7ac0314610602578063e0778f1114610640576101b7565b8063a4097ead146104ce578063a515dd651461050b578063b6683b5c14610549576101b7565b806354fd4d5011610159578063648eb82311610133578063648eb823146103da5780636aea332914610417578063934a2a2b14610454578063981676b314610491576101b7565b806354fd4d50146103475780635ae136ae1461037257806361bc221a146103af576101b7565b806326a984f91161019557806326a984f9146102525780632eca00c51461028f57806344da1de1146102cd5780634a3390f41461030a576101b7565b806301c19285146101bc5780630eabcb57146101fd578063125ebfba1461023b575b600080fd5b3480156101c857600080fd5b506101e360048036038101906101de9190610c21565b6107fe565b6040516101f49594939291906113f9565b60405180910390f35b34801561020957600080fd5b50610224600480360381019061021f9190611498565b610821565b604051610232929190611582565b60405180910390f35b34801561024757600080fd5b50610250610831565b005b34801561025e57600080fd5b50610279600480360381019061027491906115a6565b61084b565b60405161028691906115d3565b60405180910390f35b34801561029b57600080fd5b506102b660048036038101906102b19190611644565b61086d565b6040516102c4929190611716565b60405180910390f35b3480156102d957600080fd5b506102f460048036038101906102ef919061175e565b61087d565b604051610301919061186b565b60405180910390f35b34801561031657600080fd5b50610331600480360381019061032c91906118ac565b61089e565b60405161033e919061196d565b60405180910390f35b34801561035357600080fd5b5061035c6108bf565b60405161036991906119fd565b60405180910390f35b34801561037e57600080fd5b5061039960048036038101906103949190611a41565b61094d565b6040516103a69190611baa565b60405180910390f35b3480156103bb57600080fd5b506103c4610956565b6040516103d191906115d3565b60405180910390f35b3480156103e657600080fd5b5061040160048036038101906103fc91906118ac565b61095c565b60405161040e919061196d565b60405180910390f35b34801561042357600080fd5b5061043e60048036038101906104399190611a41565b610965565b60405161044b9190611baa565b60405180910390f35b34801561046057600080fd5b5061047b60048036038101906104769190611be8565b610986565b6040516104889190611dc4565b60405180910390f35b34801561049d57600080fd5b506104b860048036038101906104b39190611e08565b6109a7565b6040516104c59190611e9f565b60405180910390f35b3480156104da57600080fd5b506104f560048036038101906104f09190611be8565b6109b0565b6040516105029190611dc4565b60405180910390f35b34801561051757600080fd5b50610532600480360381019061052d9190611f10565b6109b9565b604051610540929190611ffb565b60405180910390f35b34801561055557600080fd5b50610570600480360381019061056b9190611498565b6109c9565b60405161057e929190611582565b60405180910390f35b34801561059357600080fd5b506105ae60048036038101906105a9919061175e565b6109f1565b6040516105bb919061186b565b60405180910390f35b3480156105d057600080fd5b506105eb60048036038101906105e6919061201f565b6109fa565b6040516105f992919061206c565b60405180910390f35b34801561060e57600080fd5b50610629600480360381019061062491906120e6565b610a0a565b6040516106379291906121b8565b60405180910390f35b34801561064c57600080fd5b5061066760048036038101906106629190611f10565b610a32565b604051610675929190611ffb565b60405180910390f35b34801561068a57600080fd5b506106a560048036038101906106a09190611644565b610a5a565b6040516106b3929190611716565b60405180910390f35b3480156106c857600080fd5b506106e360048036038101906106de9190611644565b610a82565b6040516106f1929190611716565b60405180910390f35b34801561070657600080fd5b50610721600480360381019061071c91906120e6565b610aaa565b60405161072f9291906121b8565b60405180910390f35b34801561074457600080fd5b5061074d610aba565b005b34801561075b57600080fd5b5061077660048036038101906107719190611e08565b610abc565b6040516107839190611e9f565b60405180910390f35b6107a660048036038101906107a191906121dc565b610add565b6040516107b896959493929190612280565b60405180910390f35b3480156107cd57600080fd5b506107e860048036038101906107e391906115a6565b610b1c565b6040516107f591906115d3565b60405180910390f35b366000803660008989898989945094509450945094509550955095509550959050565b3660008383915091509250929050565b6001600081548092919061084490612306565b9190505550565b60006001600081548092919061086090612306565b9190505550819050919050565b3660008383915091509250929050565b366001600081548092919061089190612306565b9190505550819050919050565b36600160008154809291906108b290612306565b9190505550819050919050565b600080546108cc9061237d565b80601f01602080910402602001604051908101604052809291908181526020018280546108f89061237d565b80156109455780601f1061091a57610100808354040283529160200191610945565b820191906000526020600020905b81548152906001019060200180831161092857829003601f168201915b505050505081565b36819050919050565b60015481565b36819050919050565b366001600081548092919061097990612306565b9190505550819050919050565b366001600081548092919061099a90612306565b9190505550819050919050565b36819050919050565b36819050919050565b3660008383915091509250929050565b366000600160008154809291906109df90612306565b91905055508383915091509250929050565b36819050919050565b3660008383915091509250929050565b36600060016000815480929190610a2090612306565b91905055508383915091509250929050565b36600060016000815480929190610a4890612306565b91905055508383915091509250929050565b36600060016000815480929190610a7090612306565b91905055508383915091509250929050565b36600060016000815480929190610a9890612306565b91905055508383915091509250929050565b3660008383915091509250929050565b565b3660016000815480929190610ad090612306565b9190505550819050919050565b366000803660008060016000815480929190610af890612306565b91905055508a8a8a8a8a349550955095509550955095509550955095509550955095565b6000819050919050565b600080fd5b600080fd5b600080fd5b600080fd5b600080fd5b60008083601f840112610b5557610b54610b30565b5b8235905067ffffffffffffffff811115610b7257610b71610b35565b5b602083019150836020820283011115610b8e57610b8d610b3a565b5b9250929050565b6000819050919050565b610ba881610b95565b8114610bb357600080fd5b50565b600081359050610bc581610b9f565b92915050565b60008083601f840112610be157610be0610b30565b5b8235905067ffffffffffffffff811115610bfe57610bfd610b35565b5b602083019150836001820283011115610c1a57610c19610b3a565b5b9250929050565b600080600080600060608688031215610c3d57610c3c610b26565b5b600086013567ffffffffffffffff811115610c5b57610c5a610b2b565b5b610c6788828901610b3f565b95509550506020610c7a88828901610bb6565b935050604086013567ffffffffffffffff811115610c9b57610c9a610b2b565b5b610ca788828901610bcb565b92509250509295509295909350565b600082825260208201905092915050565b6000819050919050565b600080fd5b60008235600160c003833603038112610cf257610cf1610cd1565b5b82810191505092915050565b6000610d0d6020840184610bb6565b905092915050565b610d1e81610b95565b82525050565b6000819050919050565b610d3781610d24565b8114610d4257600080fd5b50565b600081359050610d5481610d2e565b92915050565b6000610d696020840184610d45565b905092915050565b610d7a81610d24565b82525050565b600073ffffffffffffffffffffffffffffffffffffffff82169050919050565b6000610dab82610d80565b9050919050565b610dbb81610da0565b8114610dc657600080fd5b50565b600081359050610dd881610db2565b92915050565b6000610ded6020840184610dc9565b905092915050565b610dfe81610da0565b82525050565b60008115159050919050565b610e1981610e04565b8114610e2457600080fd5b50565b600081359050610e3681610e10565b92915050565b6000610e4b6020840184610e27565b905092915050565b610e5c81610e04565b82525050565b600080fd5b600080fd5b60008083356001602003843603038112610e8957610e88610cd1565b5b83810192508235915060208301925067ffffffffffffffff821115610eb157610eb0610e62565b5b600182023603831315610ec757610ec6610e67565b5b509250929050565b600082825260208201905092915050565b82818337600083830152505050565b6000601f19601f8301169050919050565b6000610f0c8385610ecf565b9350610f19838584610ee0565b610f2283610eef565b840190509392505050565b60008083356001602003843603038112610f4a57610f49610cd1565b5b83810192508235915060208301925067ffffffffffffffff821115610f7257610f71610e62565b5b600182023603831315610f8857610f87610e67565b5b509250929050565b600082825260208201905092915050565b6000610fad8385610f90565b9350610fba838584610ee0565b610fc383610eef565b840190509392505050565b600060c08301610fe16000840184610cfe565b610fee6000860182610d15565b50610ffc6020840184610d5a565b6110096020860182610d71565b506110176040840184610dde565b6110246040860182610df5565b506110326060840184610e3c565b61103f6060860182610e53565b5061104d6080840184610e6c565b8583036080870152611060838284610f00565b9250505061107160a0840184610f2d565b85830360a0870152611084838284610fa1565b925050508091505092915050565b6000823560016080038336030381126110ae576110ad610cd1565b5b82810191505092915050565b600060049050919050565b600081905092915050565b6000819050919050565b60006110e68383610fce565b905092915050565b6000602082019050919050565b6000611106826110ba565b61111081856110c5565b935083602082028501611122856110d0565b8060005b8581101561116657848403895261113d8284610cd6565b61114785826110da565b9450611152836110ee565b925060208a01995050600181019050611126565b50829750879550505050505092915050565b6000808335600160200384360303811261119557611194610cd1565b5b83810192508235915060208301925067ffffffffffffffff8211156111bd576111bc610e62565b5b6020820236038313156111d3576111d2610e67565b5b509250929050565b600082825260208201905092915050565b6000819050919050565b6000602082019050919050565b600061120f83856111db565b935083602084028501611221846111ec565b8060005b8781101561126557848403895261123c8284610cd6565b61124685826110da565b9450611251836111f6565b925060208a01995050600181019050611225565b50829750879450505050509392505050565b60006060830161128a6000840184610cd6565b848203600086015261129c8282610fce565b9150506112ac6020840184611092565b84820360208601526112be82826110fb565b9150506112ce6040840184611178565b85830360408701526112e1838284611203565b925050508091505092915050565b60006112fb8383611277565b905092915050565b60008235600160600383360303811261131f5761131e610cd1565b5b82810191505092915050565b6000602082019050919050565b60006113448385610cb6565b93508360208402850161135684610cc7565b8060005b8781101561139a5784840389526113718284611303565b61137b85826112ef565b94506113868361132b565b925060208a0199505060018101905061135a565b50829750879450505050509392505050565b6113b581610b95565b82525050565b600082825260208201905092915050565b60006113d883856113bb565b93506113e5838584610ee0565b6113ee83610eef565b840190509392505050565b60006060820190508181036000830152611414818789611338565b905061142360208301866113ac565b81810360408301526114368184866113cc565b90509695505050505050565b60008083601f84011261145857611457610b30565b5b8235905067ffffffffffffffff81111561147557611474610b35565b5b60208301915083602082028301111561149157611490610b3a565b5b9250929050565b600080602083850312156114af576114ae610b26565b5b600083013567ffffffffffffffff8111156114cd576114cc610b2b565b5b6114d985828601611442565b92509250509250929050565b600082825260208201905092915050565b6000819050919050565b600061150c8383610d15565b60208301905092915050565b6000602082019050919050565b600061153183856114e5565b935061153c826114f6565b8060005b85811015611575576115528284610cfe565b61155c8882611500565b975061156783611518565b925050600181019050611540565b5085925050509392505050565b6000602082019050818103600083015261159d818486611525565b90509392505050565b6000602082840312156115bc576115bb610b26565b5b60006115ca84828501610bb6565b91505092915050565b60006020820190506115e860008301846113ac565b92915050565b60008083601f84011261160457611603610b30565b5b8235905067ffffffffffffffff81111561162157611620610b35565b5b60208301915083602082028301111561163d5761163c610b3a565b5b9250929050565b6000806020838503121561165b5761165a610b26565b5b600083013567ffffffffffffffff81111561167957611678610b2b565b5b611685858286016115ee565b92509250509250929050565b600082825260208201905092915050565b60006116ae8385611691565b9350836020840285016116c0846111ec565b8060005b878110156117045784840389526116db8284610cd6565b6116e585826110da565b94506116f0836111f6565b925060208a019950506001810190506116c4565b50829750879450505050509392505050565b600060208201905081810360008301526117318184866116a2565b90509392505050565b600080fd5b600060c082840312156117555761175461173a565b5b81905092915050565b60006020828403121561177457611773610b26565b5b600082013567ffffffffffffffff81111561179257611791610b2b565b5b61179e8482850161173f565b91505092915050565b600060c083016117ba6000840184610cfe565b6117c76000860182610d15565b506117d56020840184610d5a565b6117e26020860182610d71565b506117f06040840184610dde565b6117fd6040860182610df5565b5061180b6060840184610e3c565b6118186060860182610e53565b506118266080840184610e6c565b8583036080870152611839838284610f00565b9250505061184a60a0840184610f2d565b85830360a087015261185d838284610fa1565b925050508091505092915050565b6000602082019050818103600083015261188581846117a7565b905092915050565b6000606082840312156118a3576118a261173a565b5b81905092915050565b6000602082840312156118c2576118c1610b26565b5b600082013567ffffffffffffffff8111156118e0576118df610b2b565b5b6118ec8482850161188d565b91505092915050565b6000606083016119086000840184610cd6565b848203600086015261191a8282610fce565b91505061192a6020840184611092565b848203602086015261193c82826110fb565b91505061194c6040840184611178565b858303604087015261195f838284611203565b925050508091505092915050565b6000602082019050818103600083015261198781846118f5565b905092915050565b600081519050919050565b60005b838110156119b857808201518184015260208101905061199d565b60008484015250505050565b60006119cf8261198f565b6119d981856113bb565b93506119e981856020860161199a565b6119f281610eef565b840191505092915050565b60006020820190508181036000830152611a1781846119c4565b905092915050565b600081905082608060040282011115611a3b57611a3a610b3a565b5b92915050565b60006102008284031215611a5857611a57610b26565b5b6000611a6684828501611a1f565b91505092915050565b600060049050919050565b600081905092915050565b6000819050919050565b600060049050919050565b600081905092915050565b6000819050919050565b6000602082019050919050565b611ac581611a8f565b611acf8184611a9a565b9250611ada82611aa5565b8060005b83811015611b1357611af08284610cfe565b611afa8782611500565b9650611b0583611aaf565b925050600181019050611ade565b505050505050565b6000611b278383611abc565b60808301905092915050565b600082905092915050565b6000608082019050919050565b611b5481611a6f565b611b5e8184611a7a565b9250611b6982611a85565b8060005b83811015611ba257611b7f8284611b33565b611b898782611b1b565b9650611b9483611b3e565b925050600181019050611b6d565b505050505050565b600061020082019050611bc06000830184611b4b565b92915050565b600081905082602060040282011115611be257611be1610b3a565b5b92915050565b600060208284031215611bfe57611bfd610b26565b5b600082013567ffffffffffffffff811115611c1c57611c1b610b2b565b5b611c2884828501611bc6565b91505092915050565b600060049050919050565b600081905092915050565b6000819050919050565b600082825260208201905092915050565b6000611c6e8385611c51565b9350611c79826114f6565b8060005b85811015611cb257611c8f8284610cfe565b611c998882611500565b9750611ca483611518565b925050600181019050611c7d565b5085925050509392505050565b6000611ccc848484611c62565b90509392505050565b60008083356001602003843603038112611cf257611cf1610cd1565b5b83810192508235915060208301925067ffffffffffffffff821115611d1a57611d19610e62565b5b602082023603831315611d3057611d2f610e67565b5b509250929050565b6000602082019050919050565b6000611d5082611c31565b611d5a8185611c3c565b935083602082028501611d6c85611c47565b8060005b85811015611db2578484038952611d878284611cd5565b611d92868284611cbf565b9550611d9d84611d38565b935060208b019a505050600181019050611d70565b50829750879550505050505092915050565b60006020820190508181036000830152611dde8184611d45565b905092915050565b600081905082602060040282011115611e0257611e01610b3a565b5b92915050565b600060808284031215611e1e57611e1d610b26565b5b6000611e2c84828501611de6565b91505092915050565b600081905092915050565b611e4981611a8f565b611e538184611e35565b9250611e5e82611aa5565b8060005b83811015611e9757611e748284610cfe565b611e7e8782611500565b9650611e8983611aaf565b925050600181019050611e62565b505050505050565b6000608082019050611eb46000830184611e40565b92915050565b60008083601f840112611ed057611ecf610b30565b5b8235905067ffffffffffffffff811115611eed57611eec610b35565b5b602083019150836020820283011115611f0957611f08610b3a565b5b9250929050565b60008060208385031215611f2757611f26610b26565b5b600083013567ffffffffffffffff811115611f4557611f44610b2b565b5b611f5185828601611eba565b92509250509250929050565b600082825260208201905092915050565b6000819050919050565b6000602082019050919050565b6000611f918385611f5d565b935083602084028501611fa384611f6e565b8060005b87811015611fe9578484038952611fbe8284611cd5565b611fc9868284611cbf565b9550611fd484611f78565b935060208b019a505050600181019050611fa7565b50829750879450505050509392505050565b60006020820190508181036000830152612016818486611f85565b90509392505050565b6000806020838503121561203657612035610b26565b5b600083013567ffffffffffffffff81111561205457612053610b2b565b5b61206085828601610b3f565b92509250509250929050565b60006020820190508181036000830152612087818486611338565b90509392505050565b60008083601f8401126120a6576120a5610b30565b5b8235905067ffffffffffffffff8111156120c3576120c2610b35565b5b6020830191508360808202830111156120df576120de610b3a565b5b9250929050565b600080602083850312156120fd576120fc610b26565b5b600083013567ffffffffffffffff81111561211b5761211a610b2b565b5b61212785828601612090565b92509250509250929050565b600082825260208201905092915050565b6000819050919050565b6000608082019050919050565b60006121678385612133565b935061217282612144565b8060005b858110156121ab576121888284611b33565b6121928882611b1b565b975061219d8361214e565b925050600181019050612176565b5085925050509392505050565b600060208201905081810360008301526121d381848661215b565b90509392505050565b6000806000806000606086880312156121f8576121f7610b26565b5b600086013567ffffffffffffffff81111561221657612215610b2b565b5b612222888289016115ee565b9550955050602061223588828901610bb6565b935050604086013567ffffffffffffffff81111561225657612255610b2b565b5b61226288828901610bcb565b92509250509295509295909350565b61227a81610d24565b82525050565b6000608082019050818103600083015261229b81888a6116a2565b90506122aa60208301876113ac565b81810360408301526122bd8185876113cc565b90506122cc6060830184612271565b979650505050505050565b7f4e487b7100000000000000000000000000000000000000000000000000000000600052601160045260246000fd5b600061231182610b95565b91507f7fffffffffffffffffffffffffffffffffffffffffffffffffffffffffffffff8203612343576123426122d7565b5b600182019050919050565b7f4e487b7100000000000000000000000000000000000000000000000000000000600052602260045260246000fd5b6000600282049050600182168061239557607f821691505b6020821081036123a8576123a761234e565b5b5091905056fea2646970667358221220164f87cd819472f4816f8677a8ad3ee8f43ac023db31a6d5ee0f10c203e8f0e664736f6c63430008180033",
          "opcodes": "PUSH1 0x80 PUSH1 0x40 MSTORE PUSH1 0x40 MLOAD DUP1 PUSH1 0x40 ADD PUSH1 0x40 MSTORE DUP1 PUSH1 0x5 DUP2 MSTORE PUSH1 0x20 ADD PUSH32 0x302E302E31000000000000000000000000000000000000000000000000000000 DUP2 MSTORE POP PUSH1 0x0 SWAP1 DUP2 PUSH3 0x4A SWAP2 SWAP1 PUSH3 0x2DE JUMP JUMPDEST POP PUSH1 0x0 PUSH1 0x1 SSTORE CALLVALUE DUP1 ISZERO PUSH3 0x5D JUMPI PUSH1 0x0 DUP1 REVERT JUMPDEST POP PUSH3 0x3C5 JUMP JUMPDEST PUSH1 0x0 DUP2 MLOAD SWAP1 POP SWAP2 SWAP1 POP JUMP JUMPDEST PUSH32 0x4E487B7100000000000000000000000000000000000000000000000000000000 PUSH1 0x0 MSTORE PUSH1 0x41 PUSH1 0x4 MSTORE PUSH1 0x24 PUSH1 0x0 REVERT JUMPDEST PUSH32 0x4E487B7100000000000000000000000000000000000000000000000000000000 PUSH1 0x0 MSTORE PUSH1 0x22 PUSH1 0x4 MSTORE PUSH1 0x24 PUSH1 0x0 REVERT JUMPDEST PUSH1 0x0 PUSH1 0x2 DUP3 DIV SWAP1 POP PUSH1 0x1 DUP3 AND DUP1 PUSH3 0xE6 JUMPI PUSH1 0x7F DUP3 AND SWAP2 POP JUMPDEST PUSH1 0x20 DUP3 LT DUP2 SUB PUSH3 0xFC JUMPI PUSH3 0xFB PUSH3 0x9E JUMP JUMPDEST JUMPDEST POP SWAP2 SWAP1 POP JUMP JUMPDEST PUSH1 0x0 DUP2 SWAP1 POP DUP2 PUSH1 0x0 MSTORE PUSH1 0x20 PUSH1 0x0 KECCAK256 SWAP1 POP SWAP2 SWAP1 POP JUMP JUMPDEST PUSH1 0x0 PUSH1 0x20 PUSH1 0x1F DUP4 ADD DIV SWAP1 POP SWAP2 SWAP1 POP JUMP JUMPDEST PUSH1 0x0 DUP3 DUP3 SHL SWAP1 POP SWAP3 SWAP2 POP POP JUMP JUMPDEST PUSH1 0x0 PUSH1 0x8 DUP4 MUL PUSH3 0x166 PUSH32 0xFFFFFFFFFFFFFFFFFFFFFFFFFFFFFFFFFFFFFFFFFFFFFFFFFFFFFFFFFFFFFFFF DUP3 PUSH3 0x127 JUMP JUMPDEST PUSH3 0x172 DUP7 DUP4 PUSH3 0x127 JUMP JUMPDEST SWAP6 POP DUP1 NOT DUP5 AND SWAP4 POP DUP1 DUP7 AND DUP5 OR SWAP3 POP POP POP SWAP4 SWAP3 POP POP POP JUMP JUMPDEST PUSH1 0x0 DUP2 SWAP1 POP SWAP2 SWAP1 POP JUMP JUMPDEST PUSH1 0x0 DUP2 SWAP1 POP SWAP2 SWAP1 POP JUMP JUMPDEST PUSH1 0x0 PUSH3 0x1BF PUSH3 0x1B9 PUSH3 0x1B3 DUP5 PUSH3 0x18A JUMP JUMPDEST PUSH3 0x194 JUMP JUMPDEST PUSH3 0x18A JUMP JUMPDEST SWAP1 POP SWAP2 SWAP1 POP JUMP JUMPDEST PUSH1 0x0 DUP2 SWAP1 POP SWAP2 SWAP1 POP JUMP JUMPDEST PUSH3 0x1DB DUP4 PUSH3 0x19E JUMP JUMPDEST PUSH3 0x1F3 PUSH3 0x1EA DUP3 PUSH3 0x1C6 JUMP JUMPDEST DUP5 DUP5 SLOAD PUSH3 0x134 JUMP JUMPDEST DUP3 SSTORE POP POP POP POP JUMP JUMPDEST PUSH1 0x0 SWAP1 JUMP JUMPDEST PUSH3 0x20A PUSH3 0x1FB JUMP JUMPDEST PUSH3 0x217 DUP2 DUP5 DUP5 PUSH3 0x1D0 JUMP JUMPDEST POP POP POP JUMP JUMPDEST JUMPDEST DUP2 DUP2 LT ISZERO PUSH3 0x23F JUMPI PUSH3 0x233 PUSH1 0x0 DUP3 PUSH3 0x200 JUMP JUMPDEST PUSH1 0x1 DUP2 ADD SWAP1 POP PUSH3 0x21D JUMP JUMPDEST POP POP JUMP JUMPDEST PUSH1 0x1F DUP3 GT ISZERO PUSH3 0x28E JUMPI PUSH3 0x258 DUP2 PUSH3 0x102 JUMP JUMPDEST PUSH3 0x263 DUP5 PUSH3 0x117 JUMP JUMPDEST DUP2 ADD PUSH1 0x20 DUP6 LT ISZERO PUSH3 0x273 JUMPI DUP2 SWAP1 POP JUMPDEST PUSH3 0x28B PUSH3 0x282 DUP6 PUSH3 0x117 JUMP JUMPDEST DUP4 ADD DUP3 PUSH3 0x21C JUMP JUMPDEST POP POP JUMPDEST POP POP POP JUMP JUMPDEST PUSH1 0x0 DUP3 DUP3 SHR SWAP1 POP SWAP3 SWAP2 POP POP JUMP JUMPDEST PUSH1 0x0 PUSH3 0x2B3 PUSH1 0x0 NOT DUP5 PUSH1 0x8 MUL PUSH3 0x293 JUMP JUMPDEST NOT DUP1 DUP4 AND SWAP2 POP POP SWAP3 SWAP2 POP POP JUMP JUMPDEST PUSH1 0x0 PUSH3 0x2CE DUP4 DUP4 PUSH3 0x2A0 JUMP JUMPDEST SWAP2 POP DUP3 PUSH1 0x2 MUL DUP3 OR SWAP1 POP SWAP3 SWAP2 POP POP JUMP JUMPDEST PUSH3 0x2E9 DUP3 PUSH3 0x64 JUMP JUMPDEST PUSH8 0xFFFFFFFFFFFFFFFF DUP2 GT ISZERO PUSH3 0x305 JUMPI PUSH3 0x304 PUSH3 0x6F JUMP JUMPDEST JUMPDEST PUSH3 0x311 DUP3 SLOAD PUSH3 0xCD JUMP JUMPDEST PUSH3 0x31E DUP3 DUP3 DUP6 PUSH3 0x243 JUMP JUMPDEST PUSH1 0x0 PUSH1 0x20 SWAP1 POP PUSH1 0x1F DUP4 GT PUSH1 0x1 DUP2 EQ PUSH3 0x356 JUMPI PUSH1 0x0 DUP5 ISZERO PUSH3 0x341 JUMPI DUP3 DUP8 ADD MLOAD SWAP1 POP JUMPDEST PUSH3 0x34D DUP6 DUP3 PUSH3 0x2C0 JUMP JUMPDEST DUP7 SSTORE POP PUSH3 0x3BD JUMP JUMPDEST PUSH1 0x1F NOT DUP5 AND PUSH3 0x366 DUP7 PUSH3 0x102 JUMP JUMPDEST PUSH1 0x0 JUMPDEST DUP3 DUP2 LT ISZERO PUSH3 0x390 JUMPI DUP5 DUP10 ADD MLOAD DUP3 SSTORE PUSH1 0x1 DUP3 ADD SWAP2 POP PUSH1 0x20 DUP6 ADD SWAP5 POP PUSH1 0x20 DUP2 ADD SWAP1 POP PUSH3 0x369 JUMP JUMPDEST DUP7 DUP4 LT ISZERO PUSH3 0x3B0 JUMPI DUP5 DUP10 ADD MLOAD PUSH3 0x3AC PUSH1 0x1F DUP10 AND DUP3 PUSH3 0x2A0 JUMP JUMPDEST DUP4 SSTORE POP JUMPDEST PUSH1 0x1 PUSH1 0x2 DUP9 MUL ADD DUP9 SSTORE POP POP POP JUMPDEST POP POP POP POP POP POP JUMP JUMPDEST PUSH2 0x23E4 DUP1 PUSH3 0x3D5 PUSH1 0x0 CODECOPY PUSH1 0x0 RETURN INVALID PUSH1 0x80 PUSH1 0x40 MSTORE PUSH1 0x4 CALLDATASIZE LT PUSH2 0x1B7 JUMPI PUSH1 0x0 CALLDATALOAD PUSH1 0xE0 SHR DUP1 PUSH4 0xA4097EAD GT PUSH2 0xEC JUMPI DUP1 PUSH4 0xE15715B5 GT PUSH2 0x8A JUMPI DUP1 PUSH4 0xEA7B16AF GT PUSH2 0x64 JUMPI DUP1 PUSH4 0xEA7B16AF EQ PUSH2 0x738 JUMPI DUP1 PUSH4 0xEAA53FE3 EQ PUSH2 0x74F JUMPI DUP1 PUSH4 0xF25240DD EQ PUSH2 0x78C JUMPI DUP1 PUSH4 0xFC367111 EQ PUSH2 0x7C1 JUMPI PUSH2 0x1B7 JUMP JUMPDEST DUP1 PUSH4 0xE15715B5 EQ PUSH2 0x67E JUMPI DUP1 PUSH4 0xE37B7485 EQ PUSH2 0x6BC JUMPI DUP1 PUSH4 0xE6903DA6 EQ PUSH2 0x6FA JUMPI PUSH2 0x1B7 JUMP JUMPDEST DUP1 PUSH4 0xBCE4256F GT PUSH2 0xC6 JUMPI DUP1 PUSH4 0xBCE4256F EQ PUSH2 0x587 JUMPI DUP1 PUSH4 0xCCE89307 EQ PUSH2 0x5C4 JUMPI DUP1 PUSH4 0xD1E7AC03 EQ PUSH2 0x602 JUMPI DUP1 PUSH4 0xE0778F11 EQ PUSH2 0x640 JUMPI PUSH2 0x1B7 JUMP JUMPDEST DUP1 PUSH4 0xA4097EAD EQ PUSH2 0x4CE JUMPI DUP1 PUSH4 0xA515DD65 EQ PUSH2 0x50B JUMPI DUP1 PUSH4 0xB6683B5C EQ PUSH2 0x549 JUMPI PUSH2 0x1B7 JUMP JUMPDEST DUP1 PUSH4 0x54FD4D50 GT PUSH2 0x159 JUMPI DUP1 PUSH4 0x648EB823 GT PUSH2 0x133 JUMPI DUP1 PUSH4 0x648EB823 EQ PUSH2 0x3DA JUMPI DUP1 PUSH4 0x6AEA3329 EQ PUSH2 0x417 JUMPI DUP1 PUSH4 0x934A2A2B EQ PUSH2 0x454 JUMPI DUP1 PUSH4 0x981676B3 EQ PUSH2 0x491 JUMPI PUSH2 0x1B7 JUMP JUMPDEST DUP1 PUSH4 0x54FD4D50 EQ PUSH2 0x347 JUMPI DUP1 PUSH4 0x5AE136AE EQ PUSH2 0x372 JUMPI DUP1 PUSH4 0x61BC221A EQ PUSH2 0x3AF JUMPI PUSH2 0x1B7 JUMP JUMPDEST DUP1 PUSH4 0x26A984F9 GT PUSH2 0x195 JUMPI DUP1 PUSH4 0x26A984F9 EQ PUSH2 0x252 JUMPI DUP1 PUSH4 0x2ECA00C5 EQ PUSH2 0x28F JUMPI DUP1 PUSH4 0x44DA1DE1 EQ PUSH2 0x2CD JUMPI DUP1 PUSH4 0x4A3390F4 EQ PUSH2 0x30A JUMPI PUSH2 0x1B7 JUMP JUMPDEST DUP1 PUSH4 0x1C19285 EQ PUSH2 0x1BC JUMPI DUP1 PUSH4 0xEABCB57 EQ PUSH2 0x1FD JUMPI DUP1 PUSH4 0x125EBFBA EQ PUSH2 0x23B JUMPI JUMPDEST PUSH1 0x0 DUP1 REVERT JUMPDEST CALLVALUE DUP1 ISZERO PUSH2 0x1C8 JUMPI PUSH1 0x0 DUP1 REVERT JUMPDEST POP PUSH2 0x1E3 PUSH1 0x4 DUP1 CALLDATASIZE SUB DUP2 ADD SWAP1 PUSH2 0x1DE SWAP2 SWAP1 PUSH2 0xC21 JUMP JUMPDEST PUSH2 0x7FE JUMP JUMPDEST PUSH1 0x40 MLOAD PUSH2 0x1F4 SWAP6 SWAP5 SWAP4 SWAP3 SWAP2 SWAP1 PUSH2 0x13F9 JUMP JUMPDEST PUSH1 0x40 MLOAD DUP1 SWAP2 SUB SWAP1 RETURN JUMPDEST CALLVALUE DUP1 ISZERO PUSH2 0x209 JUMPI PUSH1 0x0 DUP1 REVERT JUMPDEST POP PUSH2 0x224 PUSH1 0x4 DUP1 CALLDATASIZE SUB DUP2 ADD SWAP1 PUSH2 0x21F SWAP2 SWAP1 PUSH2 0x1498 JUMP JUMPDEST PUSH2 0x821 JUMP JUMPDEST PUSH1 0x40 MLOAD PUSH2 0x232 SWAP3 SWAP2 SWAP1 PUSH2 0x1582 JUMP JUMPDEST PUSH1 0x40 MLOAD DUP1 SWAP2 SUB SWAP1 RETURN JUMPDEST CALLVALUE DUP1 ISZERO PUSH2 0x247 JUMPI PUSH1 0x0 DUP1 REVERT JUMPDEST POP PUSH2 0x250 PUSH2 0x831 JUMP JUMPDEST STOP JUMPDEST CALLVALUE DUP1 ISZERO PUSH2 0x25E JUMPI PUSH1 0x0 DUP1 REVERT JUMPDEST POP PUSH2 0x279 PUSH1 0x4 DUP1 CALLDATASIZE SUB DUP2 ADD SWAP1 PUSH2 0x274 SWAP2 SWAP1 PUSH2 0x15A6 JUMP JUMPDEST PUSH2 0x84B JUMP JUMPDEST PUSH1 0x40 MLOAD PUSH2 0x286 SWAP2 SWAP1 PUSH2 0x15D3 JUMP JUMPDEST PUSH1 0x40 MLOAD DUP1 SWAP2 SUB SWAP1 RETURN JUMPDEST CALLVALUE DUP1 ISZERO PUSH2 0x29B JUMPI PUSH1 0x0 DUP1 REVERT JUMPDEST POP PUSH2 0x2B6 PUSH1 0x4 DUP1 CALLDATASIZE SUB DUP2 ADD SWAP1 PUSH2 0x2B1 SWAP2 SWAP1 PUSH2 0x1644 JUMP JUMPDEST PUSH2 0x86D JUMP JUMPDEST PUSH1 0x40 MLOAD PUSH2 0x2C4 SWAP3 SWAP2 SWAP1 PUSH2 0x1716 JUMP JUMPDEST PUSH1 0x40 MLOAD DUP1 SWAP2 SUB SWAP1 RETURN JUMPDEST CALLVALUE DUP1 ISZERO PUSH2 0x2D9 JUMPI PUSH1 0x0 DUP1 REVERT JUMPDEST POP PUSH2 0x2F4 PUSH1 0x4 DUP1 CALLDATASIZE SUB DUP2 ADD SWAP1 PUSH2 0x2EF SWAP2 SWAP1 PUSH2 0x175E JUMP JUMPDEST PUSH2 0x87D JUMP JUMPDEST PUSH1 0x40 MLOAD PUSH2 0x301 SWAP2 SWAP1 PUSH2 0x186B JUMP JUMPDEST PUSH1 0x40 MLOAD DUP1 SWAP2 SUB SWAP1 RETURN JUMPDEST CALLVALUE DUP1 ISZERO PUSH2 0x316 JUMPI PUSH1 0x0 DUP1 REVERT JUMPDEST POP PUSH2 0x331 PUSH1 0x4 DUP1 CALLDATASIZE SUB DUP2 ADD SWAP1 PUSH2 0x32C SWAP2 SWAP1 PUSH2 0x18AC JUMP JUMPDEST PUSH2 0x89E JUMP JUMPDEST PUSH1 0x40 MLOAD PUSH2 0x33E SWAP2 SWAP1 PUSH2 0x196D JUMP JUMPDEST PUSH1 0x40 MLOAD DUP1 SWAP2 SUB SWAP1 RETURN JUMPDEST CALLVALUE DUP1 ISZERO PUSH2 0x353 JUMPI PUSH1 0x0 DUP1 REVERT JUMPDEST POP PUSH2 0x35C PUSH2 0x8BF JUMP JUMPDEST PUSH1 0x40 MLOAD PUSH2 0x369 SWAP2 SWAP1 PUSH2 0x19FD JUMP JUMPDEST PUSH1 0x40 MLOAD DUP1 SWAP2 SUB SWAP1 RETURN JUMPDEST CALLVALUE DUP1 ISZERO PUSH2 0x37E JUMPI PUSH1 0x0 DUP1 REVERT JUMPDEST POP PUSH2 0x399 PUSH1 0x4 DUP1 CALLDATASIZE SUB DUP2 ADD SWAP1 PUSH2 0x394 SWAP2 SWAP1 PUSH2 0x1A41 JUMP JUMPDEST PUSH2 0x94D JUMP JUMPDEST PUSH1 0x40 MLOAD PUSH2 0x3A6 SWAP2 SWAP1 PUSH2 0x1BAA JUMP JUMPDEST PUSH1 0x40 MLOAD DUP1 SWAP2 SUB SWAP1 RETURN JUMPDEST CALLVALUE DUP1 ISZERO PUSH2 0x3BB JUMPI PUSH1 0x0 DUP1 REVERT JUMPDEST POP PUSH2 0x3C4 PUSH2 0x956 JUMP JUMPDEST PUSH1 0x40 MLOAD PUSH2 0x3D1 SWAP2 SWAP1 PUSH2 0x15D3 JUMP JUMPDEST PUSH1 0x40 MLOAD DUP1 SWAP2 SUB SWAP1 RETURN JUMPDEST CALLVALUE DUP1 ISZERO PUSH2 0x3E6 JUMPI PUSH1 0x0 DUP1 REVERT JUMPDEST POP PUSH2 0x401 PUSH1 0x4 DUP1 CALLDATASIZE SUB DUP2 ADD SWAP1 PUSH2 0x3FC SWAP2 SWAP1 PUSH2 0x18AC JUMP JUMPDEST PUSH2 0x95C JUMP JUMPDEST PUSH1 0x40 MLOAD PUSH2 0x40E SWAP2 SWAP1 PUSH2 0x196D JUMP JUMPDEST PUSH1 0x40 MLOAD DUP1 SWAP2 SUB SWAP1 RETURN JUMPDEST CALLVALUE DUP1 ISZERO PUSH2 0x423 JUMPI PUSH1 0x0 DUP1 REVERT JUMPDEST POP PUSH2 0x43E PUSH1 0x4 DUP1 CALLDATASIZE SUB DUP2 ADD SWAP1 PUSH2 0x439 SWAP2 SWAP1 PUSH2 0x1A41 JUMP JUMPDEST PUSH2 0x965 JUMP JUMPDEST PUSH1 0x40 MLOAD PUSH2 0x44B SWAP2 SWAP1 PUSH2 0x1BAA JUMP JUMPDEST PUSH1 0x40 MLOAD DUP1 SWAP2 SUB SWAP1 RETURN JUMPDEST CALLVALUE DUP1 ISZERO PUSH2 0x460 JUMPI PUSH1 0x0 DUP1 REVERT JUMPDEST POP PUSH2 0x47B PUSH1 0x4 DUP1 CALLDATASIZE SUB DUP2 ADD SWAP1 PUSH2 0x476 SWAP2 SWAP1 PUSH2 0x1BE8 JUMP JUMPDEST PUSH2 0x986 JUMP JUMPDEST PUSH1 0x40 MLOAD PUSH2 0x488 SWAP2 SWAP1 PUSH2 0x1DC4 JUMP JUMPDEST PUSH1 0x40 MLOAD DUP1 SWAP2 SUB SWAP1 RETURN JUMPDEST CALLVALUE DUP1 ISZERO PUSH2 0x49D JUMPI PUSH1 0x0 DUP1 REVERT JUMPDEST POP PUSH2 0x4B8 PUSH1 0x4 DUP1 CALLDATASIZE SUB DUP2 ADD SWAP1 PUSH2 0x4B3 SWAP2 SWAP1 PUSH2 0x1E08 JUMP JUMPDEST PUSH2 0x9A7 JUMP JUMPDEST PUSH1 0x40 MLOAD PUSH2 0x4C5 SWAP2 SWAP1 PUSH2 0x1E9F JUMP JUMPDEST PUSH1 0x40 MLOAD DUP1 SWAP2 SUB SWAP1 RETURN JUMPDEST CALLVALUE DUP1 ISZERO PUSH2 0x4DA JUMPI PUSH1 0x0 DUP1 REVERT JUMPDEST POP PUSH2 0x4F5 PUSH1 0x4 DUP1 CALLDATASIZE SUB DUP2 ADD SWAP1 PUSH2 0x4F0 SWAP2 SWAP1 PUSH2 0x1BE8 JUMP JUMPDEST PUSH2 0x9B0 JUMP JUMPDEST PUSH1 0x40 MLOAD PUSH2 0x502 SWAP2 SWAP1 PUSH2 0x1DC4 JUMP JUMPDEST PUSH1 0x40 MLOAD DUP1 SWAP2 SUB SWAP1 RETURN JUMPDEST CALLVALUE DUP1 ISZERO PUSH2 0x517 JUMPI PUSH1 0x0 DUP1 REVERT JUMPDEST POP PUSH2 0x532 PUSH1 0x4 DUP1 CALLDATASIZE SUB DUP2 ADD SWAP1 PUSH2 0x52D SWAP2 SWAP1 PUSH2 0x1F10 JUMP JUMPDEST PUSH2 0x9B9 JUMP JUMPDEST PUSH1 0x40 MLOAD PUSH2 0x540 SWAP3 SWAP2 SWAP1 PUSH2 0x1FFB JUMP JUMPDEST PUSH1 0x40 MLOAD DUP1 SWAP2 SUB SWAP1 RETURN JUMPDEST CALLVALUE DUP1 ISZERO PUSH2 0x555 JUMPI PUSH1 0x0 DUP1 REVERT JUMPDEST POP PUSH2 0x570 PUSH1 0x4 DUP1 CALLDATASIZE SUB DUP2 ADD SWAP1 PUSH2 0x56B SWAP2 SWAP1 PUSH2 0x1498 JUMP JUMPDEST PUSH2 0x9C9 JUMP JUMPDEST PUSH1 0x40 MLOAD PUSH2 0x57E SWAP3 SWAP2 SWAP1 PUSH2 0x1582 JUMP JUMPDEST PUSH1 0x40 MLOAD DUP1 SWAP2 SUB SWAP1 RETURN JUMPDEST CALLVALUE DUP1 ISZERO PUSH2 0x593 JUMPI PUSH1 0x0 DUP1 REVERT JUMPDEST POP PUSH2 0x5AE PUSH1 0x4 DUP1 CALLDATASIZE SUB DUP2 ADD SWAP1 PUSH2 0x5A9 SWAP2 SWAP1 PUSH2 0x175E JUMP JUMPDEST PUSH2 0x9F1 JUMP JUMPDEST PUSH1 0x40 MLOAD PUSH2 0x5BB SWAP2 SWAP1 PUSH2 0x186B JUMP JUMPDEST PUSH1 0x40 MLOAD DUP1 SWAP2 SUB SWAP1 RETURN JUMPDEST CALLVALUE DUP1 ISZERO PUSH2 0x5D0 JUMPI PUSH1 0x0 DUP1 REVERT JUMPDEST POP PUSH2 0x5EB PUSH1 0x4 DUP1 CALLDATASIZE SUB DUP2 ADD SWAP1 PUSH2 0x5E6 SWAP2 SWAP1 PUSH2 0x201F JUMP JUMPDEST PUSH2 0x9FA JUMP JUMPDEST PUSH1 0x40 MLOAD PUSH2 0x5F9 SWAP3 SWAP2 SWAP1 PUSH2 0x206C JUMP JUMPDEST PUSH1 0x40 MLOAD DUP1 SWAP2 SUB SWAP1 RETURN JUMPDEST CALLVALUE DUP1 ISZERO PUSH2 0x60E JUMPI PUSH1 0x0 DUP1 REVERT JUMPDEST POP PUSH2 0x629 PUSH1 0x4 DUP1 CALLDATASIZE SUB DUP2 ADD SWAP1 PUSH2 0x624 SWAP2 SWAP1 PUSH2 0x20E6 JUMP JUMPDEST PUSH2 0xA0A JUMP JUMPDEST PUSH1 0x40 MLOAD PUSH2 0x637 SWAP3 SWAP2 SWAP1 PUSH2 0x21B8 JUMP JUMPDEST PUSH1 0x40 MLOAD DUP1 SWAP2 SUB SWAP1 RETURN JUMPDEST CALLVALUE DUP1 ISZERO PUSH2 0x64C JUMPI PUSH1 0x0 DUP1 REVERT JUMPDEST POP PUSH2 0x667 PUSH1 0x4 DUP1 CALLDATASIZE SUB DUP2 ADD SWAP1 PUSH2 0x662 SWAP2 SWAP1 PUSH2 0x1F10 JUMP JUMPDEST PUSH2 0xA32 JUMP JUMPDEST PUSH1 0x40 MLOAD PUSH2 0x675 SWAP3 SWAP2 SWAP1 PUSH2 0x1FFB JUMP JUMPDEST PUSH1 0x40 MLOAD DUP1 SWAP2 SUB SWAP1 RETURN JUMPDEST CALLVALUE DUP1 ISZERO PUSH2 0x68A JUMPI PUSH1 0x0 DUP1 REVERT JUMPDEST POP PUSH2 0x6A5 PUSH1 0x4 DUP1 CALLDATASIZE SUB DUP2 ADD SWAP1 PUSH2 0x6A0 SWAP2 SWAP1 PUSH2 0x1644 JUMP JUMPDEST PUSH2 0xA5A JUMP JUMPDEST PUSH1 0x40 MLOAD PUSH2 0x6B3 SWAP3 SWAP2 SWAP1 PUSH2 0x1716 JUMP JUMPDEST PUSH1 0x40 MLOAD DUP1 SWAP2 SUB SWAP1 RETURN JUMPDEST CALLVALUE DUP1 ISZERO PUSH2 0x6C8 JUMPI PUSH1 0x0 DUP1 REVERT JUMPDEST POP PUSH2 0x6E3 PUSH1 0x4 DUP1 CALLDATASIZE SUB DUP2 ADD SWAP1 PUSH2 0x6DE SWAP2 SWAP1 PUSH2 0x1644 JUMP JUMPDEST PUSH2 0xA82 JUMP JUMPDEST PUSH1 0x40 MLOAD PUSH2 0x6F1 SWAP3 SWAP2 SWAP1 PUSH2 0x1716 JUMP JUMPDEST PUSH1 0x40 MLOAD DUP1 SWAP2 SUB SWAP1 RETURN JUMPDEST CALLVALUE DUP1 ISZERO PUSH2 0x706 JUMPI PUSH1 0x0 DUP1 REVERT JUMPDEST POP PUSH2 0x721 PUSH1 0x4 DUP1 CALLDATASIZE SUB DUP2 ADD SWAP1 PUSH2 0x71C SWAP2 SWAP1 PUSH2 0x20E6 JUMP JUMPDEST PUSH2 0xAAA JUMP JUMPDEST PUSH1 0x40 MLOAD PUSH2 0x72F SWAP3 SWAP2 SWAP1 PUSH2 0x21B8 JUMP JUMPDEST PUSH1 0x40 MLOAD DUP1 SWAP2 SUB SWAP1 RETURN JUMPDEST CALLVALUE DUP1 ISZERO PUSH2 0x744 JUMPI PUSH1 0x0 DUP1 REVERT JUMPDEST POP PUSH2 0x74D PUSH2 0xABA JUMP JUMPDEST STOP JUMPDEST CALLVALUE DUP1 ISZERO PUSH2 0x75B JUMPI PUSH1 0x0 DUP1 REVERT JUMPDEST POP PUSH2 0x776 PUSH1 0x4 DUP1 CALLDATASIZE SUB DUP2 ADD SWAP1 PUSH2 0x771 SWAP2 SWAP1 PUSH2 0x1E08 JUMP JUMPDEST PUSH2 0xABC JUMP JUMPDEST PUSH1 0x40 MLOAD PUSH2 0x783 SWAP2 SWAP1 PUSH2 0x1E9F JUMP JUMPDEST PUSH1 0x40 MLOAD DUP1 SWAP2 SUB SWAP1 RETURN JUMPDEST PUSH2 0x7A6 PUSH1 0x4 DUP1 CALLDATASIZE SUB DUP2 ADD SWAP1 PUSH2 0x7A1 SWAP2 SWAP1 PUSH2 0x21DC JUMP JUMPDEST PUSH2 0xADD JUMP JUMPDEST PUSH1 0x40 MLOAD PUSH2 0x7B8 SWAP7 SWAP6 SWAP5 SWAP4 SWAP3 SWAP2 SWAP1 PUSH2 0x2280 JUMP JUMPDEST PUSH1 0x40 MLOAD DUP1 SWAP2 SUB SWAP1 RETURN JUMPDEST CALLVALUE DUP1 ISZERO PUSH2 0x7CD JUMPI PUSH1 0x0 DUP1 REVERT JUMPDEST POP PUSH2 0x7E8 PUSH1 0x4 DUP1 CALLDATASIZE SUB DUP2 ADD SWAP1 PUSH2 0x7E3 SWAP2 SWAP1 PUSH2 0x15A6 JUMP JUMPDEST PUSH2 0xB1C JUMP JUMPDEST PUSH1 0x40 MLOAD PUSH2 0x7F5 SWAP2 SWAP1 PUSH2 0x15D3 JUMP JUMPDEST PUSH1 0x40 MLOAD DUP1 SWAP2 SUB SWAP1 RETURN JUMPDEST CALLDATASIZE PUSH1 0x0 DUP1 CALLDATASIZE PUSH1 0x0 DUP10 DUP10 DUP10 DUP10 DUP10 SWAP5 POP SWAP5 POP SWAP5 POP SWAP5 POP SWAP5 POP SWAP6 POP SWAP6 POP SWAP6 POP SWAP6 POP SWAP6 SWAP1 POP JUMP JUMPDEST CALLDATASIZE PUSH1 0x0 DUP4 DUP4 SWAP2 POP SWAP2 POP SWAP3 POP SWAP3 SWAP1 POP JUMP JUMPDEST PUSH1 0x1 PUSH1 0x0 DUP2 SLOAD DUP1 SWAP3 SWAP2 SWAP1 PUSH2 0x844 SWAP1 PUSH2 0x2306 JUMP JUMPDEST SWAP2 SWAP1 POP SSTORE POP JUMP JUMPDEST PUSH1 0x0 PUSH1 0x1 PUSH1 0x0 DUP2 SLOAD DUP1 SWAP3 SWAP2 SWAP1 PUSH2 0x860 SWAP1 PUSH2 0x2306 JUMP JUMPDEST SWAP2 SWAP1 POP SSTORE POP DUP2 SWAP1 POP SWAP2 SWAP1 POP JUMP JUMPDEST CALLDATASIZE PUSH1 0x0 DUP4 DUP4 SWAP2 POP SWAP2 POP SWAP3 POP SWAP3 SWAP1 POP JUMP JUMPDEST CALLDATASIZE PUSH1 0x1 PUSH1 0x0 DUP2 SLOAD DUP1 SWAP3 SWAP2 SWAP1 PUSH2 0x891 SWAP1 PUSH2 0x2306 JUMP JUMPDEST SWAP2 SWAP1 POP SSTORE POP DUP2 SWAP1 POP SWAP2 SWAP1 POP JUMP JUMPDEST CALLDATASIZE PUSH1 0x1 PUSH1 0x0 DUP2 SLOAD DUP1 SWAP3 SWAP2 SWAP1 PUSH2 0x8B2 SWAP1 PUSH2 0x2306 JUMP JUMPDEST SWAP2 SWAP1 POP SSTORE POP DUP2 SWAP1 POP SWAP2 SWAP1 POP JUMP JUMPDEST PUSH1 0x0 DUP1 SLOAD PUSH2 0x8CC SWAP1 PUSH2 0x237D JUMP JUMPDEST DUP1 PUSH1 0x1F ADD PUSH1 0x20 DUP1 SWAP2 DIV MUL PUSH1 0x20 ADD PUSH1 0x40 MLOAD SWAP1 DUP2 ADD PUSH1 0x40 MSTORE DUP1 SWAP3 SWAP2 SWAP1 DUP2 DUP2 MSTORE PUSH1 0x20 ADD DUP3 DUP1 SLOAD PUSH2 0x8F8 SWAP1 PUSH2 0x237D JUMP JUMPDEST DUP1 ISZERO PUSH2 0x945 JUMPI DUP1 PUSH1 0x1F LT PUSH2 0x91A JUMPI PUSH2 0x100 DUP1 DUP4 SLOAD DIV MUL DUP4 MSTORE SWAP2 PUSH1 0x20 ADD SWAP2 PUSH2 0x945 JUMP JUMPDEST DUP3 ADD SWAP2 SWAP1 PUSH1 0x0 MSTORE PUSH1 0x20 PUSH1 0x0 KECCAK256 SWAP1 JUMPDEST DUP2 SLOAD DUP2 MSTORE SWAP1 PUSH1 0x1 ADD SWAP1 PUSH1 0x20 ADD DUP1 DUP4 GT PUSH2 0x928 JUMPI DUP3 SWAP1 SUB PUSH1 0x1F AND DUP3 ADD SWAP2 JUMPDEST POP POP POP POP POP DUP2 JUMP JUMPDEST CALLDATASIZE DUP2 SWAP1 POP SWAP2 SWAP1 POP JUMP JUMPDEST PUSH1 0x1 SLOAD DUP2 JUMP JUMPDEST CALLDATASIZE DUP2 SWAP1 POP SWAP2 SWAP1 POP JUMP JUMPDEST CALLDATASIZE PUSH1 0x1 PUSH1 0x0 DUP2 SLOAD DUP1 SWAP3 SWAP2 SWAP1 PUSH2 0x979 SWAP1 PUSH2 0x2306 JUMP JUMPDEST SWAP2 SWAP1 POP SSTORE POP DUP2 SWAP1 POP SWAP2 SWAP1 POP JUMP JUMPDEST CALLDATASIZE PUSH1 0x1 PUSH1 0x0 DUP2 SLOAD DUP1 SWAP3 SWAP2 SWAP1 PUSH2 0x99A SWAP1 PUSH2 0x2306 JUMP JUMPDEST SWAP2 SWAP1 POP SSTORE POP DUP2 SWAP1 POP SWAP2 SWAP1 POP JUMP JUMPDEST CALLDATASIZE DUP2 SWAP1 POP SWAP2 SWAP1 POP JUMP JUMPDEST CALLDATASIZE DUP2 SWAP1 POP SWAP2 SWAP1 POP JUMP JUMPDEST CALLDATASIZE PUSH1 0x0 DUP4 DUP4 SWAP2 POP SWAP2 POP SWAP3 POP SWAP3 SWAP1 POP JUMP JUMPDEST CALLDATASIZE PUSH1 0x0 PUSH1 0x1 PUSH1 0x0 DUP2 SLOAD DUP1 SWAP3 SWAP2 SWAP1 PUSH2 0x9DF SWAP1 PUSH2 0x2306 JUMP JUMPDEST SWAP2 SWAP1 POP SSTORE POP DUP4 DUP4 SWAP2 POP SWAP2 POP SWAP3 POP SWAP3 SWAP1 POP JUMP JUMPDEST CALLDATASIZE DUP2 SWAP1 POP SWAP2 SWAP1 POP JUMP JUMPDEST CALLDATASIZE PUSH1 0x0 DUP4 DUP4 SWAP2 POP SWAP2 POP SWAP3 POP SWAP3 SWAP1 POP JUMP JUMPDEST CALLDATASIZE PUSH1 0x0 PUSH1 0x1 PUSH1 0x0 DUP2 SLOAD DUP1 SWAP3 SWAP2 SWAP1 PUSH2 0xA20 SWAP1 PUSH2 0x2306 JUMP JUMPDEST SWAP2 SWAP1 POP SSTORE POP DUP4 DUP4 SWAP2 POP SWAP2 POP SWAP3 POP SWAP3 SWAP1 POP JUMP JUMPDEST CALLDATASIZE PUSH1 0x0 PUSH1 0x1 PUSH1 0x0 DUP2 SLOAD DUP1 SWAP3 SWAP2 SWAP1 PUSH2 0xA48 SWAP1 PUSH2 0x2306 JUMP JUMPDEST SWAP2 SWAP1 POP SSTORE POP DUP4 DUP4 SWAP2 POP SWAP2 POP SWAP3 POP SWAP3 SWAP1 POP JUMP JUMPDEST CALLDATASIZE PUSH1 0x0 PUSH1 0x1 PUSH1 0x0 DUP2 SLOAD DUP1 SWAP3 SWAP2 SWAP1 PUSH2 0xA70 SWAP1 PUSH2 0x2306 JUMP JUMPDEST SWAP2 SWAP1 POP SSTORE POP DUP4 DUP4 SWAP2 POP SWAP2 POP SWAP3 POP SWAP3 SWAP1 POP JUMP JUMPDEST CALLDATASIZE PUSH1 0x0 PUSH1 0x1 PUSH1 0x0 DUP2 SLOAD DUP1 SWAP3 SWAP2 SWAP1 PUSH2 0xA98 SWAP1 PUSH2 0x2306 JUMP JUMPDEST SWAP2 SWAP1 POP SSTORE POP DUP4 DUP4 SWAP2 POP SWAP2 POP SWAP3 POP SWAP3 SWAP1 POP JUMP JUMPDEST CALLDATASIZE PUSH1 0x0 DUP4 DUP4 SWAP2 POP SWAP2 POP SWAP3 POP SWAP3 SWAP1 POP JUMP JUMPDEST JUMP JUMPDEST CALLDATASIZE PUSH1 0x1 PUSH1 0x0 DUP2 SLOAD DUP1 SWAP3 SWAP2 SWAP1 PUSH2 0xAD0 SWAP1 PUSH2 0x2306 JUMP JUMPDEST SWAP2 SWAP1 POP SSTORE POP DUP2 SWAP1 POP SWAP2 SWAP1 POP JUMP JUMPDEST CALLDATASIZE PUSH1 0x0 DUP1 CALLDATASIZE PUSH1 0x0 DUP1 PUSH1 0x1 PUSH1 0x0 DUP2 SLOAD DUP1 SWAP3 SWAP2 SWAP1 PUSH2 0xAF8 SWAP1 PUSH2 0x2306 JUMP JUMPDEST SWAP2 SWAP1 POP SSTORE POP DUP11 DUP11 DUP11 DUP11 DUP11 CALLVALUE SWAP6 POP SWAP6 POP SWAP6 POP SWAP6 POP SWAP6 POP SWAP6 POP SWAP6 POP SWAP6 POP SWAP6 POP SWAP6 POP SWAP6 POP SWAP6 JUMP JUMPDEST PUSH1 0x0 DUP2 SWAP1 POP SWAP2 SWAP1 POP JUMP JUMPDEST PUSH1 0x0 DUP1 REVERT JUMPDEST PUSH1 0x0 DUP1 REVERT JUMPDEST PUSH1 0x0 DUP1 REVERT JUMPDEST PUSH1 0x0 DUP1 REVERT JUMPDEST PUSH1 0x0 DUP1 REVERT JUMPDEST PUSH1 0x0 DUP1 DUP4 PUSH1 0x1F DUP5 ADD SLT PUSH2 0xB55 JUMPI PUSH2 0xB54 PUSH2 0xB30 JUMP JUMPDEST JUMPDEST DUP3 CALLDATALOAD SWAP1 POP PUSH8 0xFFFFFFFFFFFFFFFF DUP2 GT ISZERO PUSH2 0xB72 JUMPI PUSH2 0xB71 PUSH2 0xB35 JUMP JUMPDEST JUMPDEST PUSH1 0x20 DUP4 ADD SWAP2 POP DUP4 PUSH1 0x20 DUP3 MUL DUP4 ADD GT ISZERO PUSH2 0xB8E JUMPI PUSH2 0xB8D PUSH2 0xB3A JUMP JUMPDEST JUMPDEST SWAP3 POP SWAP3 SWAP1 POP JUMP JUMPDEST PUSH1 0x0 DUP2 SWAP1 POP SWAP2 SWAP1 POP JUMP JUMPDEST PUSH2 0xBA8 DUP2 PUSH2 0xB95 JUMP JUMPDEST DUP2 EQ PUSH2 0xBB3 JUMPI PUSH1 0x0 DUP1 REVERT JUMPDEST POP JUMP JUMPDEST PUSH1 0x0 DUP2 CALLDATALOAD SWAP1 POP PUSH2 0xBC5 DUP2 PUSH2 0xB9F JUMP JUMPDEST SWAP3 SWAP2 POP POP JUMP JUMPDEST PUSH1 0x0 DUP1 DUP4 PUSH1 0x1F DUP5 ADD SLT PUSH2 0xBE1 JUMPI PUSH2 0xBE0 PUSH2 0xB30 JUMP JUMPDEST JUMPDEST DUP3 CALLDATALOAD SWAP1 POP PUSH8 0xFFFFFFFFFFFFFFFF DUP2 GT ISZERO PUSH2 0xBFE JUMPI PUSH2 0xBFD PUSH2 0xB35 JUMP JUMPDEST JUMPDEST PUSH1 0x20 DUP4 ADD SWAP2 POP DUP4 PUSH1 0x1 DUP3 MUL DUP4 ADD GT ISZERO PUSH2 0xC1A JUMPI PUSH2 0xC19 PUSH2 0xB3A JUMP JUMPDEST JUMPDEST SWAP3 POP SWAP3 SWAP1 POP JUMP JUMPDEST PUSH1 0x0 DUP1 PUSH1 0x0 DUP1 PUSH1 0x0 PUSH1 0x60 DUP7 DUP9 SUB SLT ISZERO PUSH2 0xC3D JUMPI PUSH2 0xC3C PUSH2 0xB26 JUMP JUMPDEST JUMPDEST PUSH1 0x0 DUP7 ADD CALLDATALOAD PUSH8 0xFFFFFFFFFFFFFFFF DUP2 GT ISZERO PUSH2 0xC5B JUMPI PUSH2 0xC5A PUSH2 0xB2B JUMP JUMPDEST JUMPDEST PUSH2 0xC67 DUP9 DUP3 DUP10 ADD PUSH2 0xB3F JUMP JUMPDEST SWAP6 POP SWAP6 POP POP PUSH1 0x20 PUSH2 0xC7A DUP9 DUP3 DUP10 ADD PUSH2 0xBB6 JUMP JUMPDEST SWAP4 POP POP PUSH1 0x40 DUP7 ADD CALLDATALOAD PUSH8 0xFFFFFFFFFFFFFFFF DUP2 GT ISZERO PUSH2 0xC9B JUMPI PUSH2 0xC9A PUSH2 0xB2B JUMP JUMPDEST JUMPDEST PUSH2 0xCA7 DUP9 DUP3 DUP10 ADD PUSH2 0xBCB JUMP JUMPDEST SWAP3 POP SWAP3 POP POP SWAP3 SWAP6 POP SWAP3 SWAP6 SWAP1 SWAP4 POP JUMP JUMPDEST PUSH1 0x0 DUP3 DUP3 MSTORE PUSH1 0x20 DUP3 ADD SWAP1 POP SWAP3 SWAP2 POP POP JUMP JUMPDEST PUSH1 0x0 DUP2 SWAP1 POP SWAP2 SWAP1 POP JUMP JUMPDEST PUSH1 0x0 DUP1 REVERT JUMPDEST PUSH1 0x0 DUP3 CALLDATALOAD PUSH1 0x1 PUSH1 0xC0 SUB DUP4 CALLDATASIZE SUB SUB DUP2 SLT PUSH2 0xCF2 JUMPI PUSH2 0xCF1 PUSH2 0xCD1 JUMP JUMPDEST JUMPDEST DUP3 DUP2 ADD SWAP2 POP POP SWAP3 SWAP2 POP POP JUMP JUMPDEST PUSH1 0x0 PUSH2 0xD0D PUSH1 0x20 DUP5 ADD DUP5 PUSH2 0xBB6 JUMP JUMPDEST SWAP1 POP SWAP3 SWAP2 POP POP JUMP JUMPDEST PUSH2 0xD1E DUP2 PUSH2 0xB95 JUMP JUMPDEST DUP3 MSTORE POP POP JUMP JUMPDEST PUSH1 0x0 DUP2 SWAP1 POP SWAP2 SWAP1 POP JUMP JUMPDEST PUSH2 0xD37 DUP2 PUSH2 0xD24 JUMP JUMPDEST DUP2 EQ PUSH2 0xD42 JUMPI PUSH1 0x0 DUP1 REVERT JUMPDEST POP JUMP JUMPDEST PUSH1 0x0 DUP2 CALLDATALOAD SWAP1 POP PUSH2 0xD54 DUP2 PUSH2 0xD2E JUMP JUMPDEST SWAP3 SWAP2 POP POP JUMP JUMPDEST PUSH1 0x0 PUSH2 0xD69 PUSH1 0x20 DUP5 ADD DUP5 PUSH2 0xD45 JUMP JUMPDEST SWAP1 POP SWAP3 SWAP2 POP POP JUMP JUMPDEST PUSH2 0xD7A DUP2 PUSH2 0xD24 JUMP JUMPDEST DUP3 MSTORE POP POP JUMP JUMPDEST PUSH1 0x0 PUSH20 0xFFFFFFFFFFFFFFFFFFFFFFFFFFFFFFFFFFFFFFFF DUP3 AND SWAP1 POP SWAP2 SWAP1 POP JUMP JUMPDEST PUSH1 0x0 PUSH2 0xDAB DUP3 PUSH2 0xD80 JUMP JUMPDEST SWAP1 POP SWAP2 SWAP1 POP JUMP JUMPDEST PUSH2 0xDBB DUP2 PUSH2 0xDA0 JUMP JUMPDEST DUP2 EQ PUSH2 0xDC6 JUMPI PUSH1 0x0 DUP1 REVERT JUMPDEST POP JUMP JUMPDEST PUSH1 0x0 DUP2 CALLDATALOAD SWAP1 POP PUSH2 0xDD8 DUP2 PUSH2 0xDB2 JUMP JUMPDEST SWAP3 SWAP2 POP POP JUMP JUMPDEST PUSH1 0x0 PUSH2 0xDED PUSH1 0x20 DUP5 ADD DUP5 PUSH2 0xDC9 JUMP JUMPDEST SWAP1 POP SWAP3 SWAP2 POP POP JUMP JUMPDEST PUSH2 0xDFE DUP2 PUSH2 0xDA0 JUMP JUMPDEST DUP3 MSTORE POP POP JUMP JUMPDEST PUSH1 0x0 DUP2 ISZERO ISZERO SWAP1 POP SWAP2 SWAP1 POP JUMP JUMPDEST PUSH2 0xE19 DUP2 PUSH2 0xE04 JUMP JUMPDEST DUP2 EQ PUSH2 0xE24 JUMPI PUSH1 0x0 DUP1 REVERT JUMPDEST POP JUMP JUMPDEST PUSH1 0x0 DUP2 CALLDATALOAD SWAP1 POP PUSH2 0xE36 DUP2 PUSH2 0xE10 JUMP JUMPDEST SWAP3 SWAP2 POP POP JUMP JUMPDEST PUSH1 0x0 PUSH2 0xE4B PUSH1 0x20 DUP5 ADD DUP5 PUSH2 0xE27 JUMP JUMPDEST SWAP1 POP SWAP3 SWAP2 POP POP JUMP JUMPDEST PUSH2 0xE5C DUP2 PUSH2 0xE04 JUMP JUMPDEST DUP3 MSTORE POP POP JUMP JUMPDEST PUSH1 0x0 DUP1 REVERT JUMPDEST PUSH1 0x0 DUP1 REVERT JUMPDEST PUSH1 0x0 DUP1 DUP4 CALLDATALOAD PUSH1 0x1 PUSH1 0x20 SUB DUP5 CALLDATASIZE SUB SUB DUP2 SLT PUSH2 0xE89 JUMPI PUSH2 0xE88 PUSH2 0xCD1 JUMP JUMPDEST JUMPDEST DUP4 DUP2 ADD SWAP3 POP DUP3 CALLDATALOAD SWAP2 POP PUSH1 0x20 DUP4 ADD SWAP3 POP PUSH8 0xFFFFFFFFFFFFFFFF DUP3 GT ISZERO PUSH2 0xEB1 JUMPI PUSH2 0xEB0 PUSH2 0xE62 JUMP JUMPDEST JUMPDEST PUSH1 0x1 DUP3 MUL CALLDATASIZE SUB DUP4 SGT ISZERO PUSH2 0xEC7 JUMPI PUSH2 0xEC6 PUSH2 0xE67 JUMP JUMPDEST JUMPDEST POP SWAP3 POP SWAP3 SWAP1 POP JUMP JUMPDEST PUSH1 0x0 DUP3 DUP3 MSTORE PUSH1 0x20 DUP3 ADD SWAP1 POP SWAP3 SWAP2 POP POP JUMP JUMPDEST DUP3 DUP2 DUP4 CALLDATACOPY PUSH1 0x0 DUP4 DUP4 ADD MSTORE POP POP POP JUMP JUMPDEST PUSH1 0x0 PUSH1 0x1F NOT PUSH1 0x1F DUP4 ADD AND SWAP1 POP SWAP2 SWAP1 POP JUMP JUMPDEST PUSH1 0x0 PUSH2 0xF0C DUP4 DUP6 PUSH2 0xECF JUMP JUMPDEST SWAP4 POP PUSH2 0xF19 DUP4 DUP6 DUP5 PUSH2 0xEE0 JUMP JUMPDEST PUSH2 0xF22 DUP4 PUSH2 0xEEF JUMP JUMPDEST DUP5 ADD SWAP1 POP SWAP4 SWAP3 POP POP POP JUMP JUMPDEST PUSH1 0x0 DUP1 DUP4 CALLDATALOAD PUSH1 0x1 PUSH1 0x20 SUB DUP5 CALLDATASIZE SUB SUB DUP2 SLT PUSH2 0xF4A JUMPI PUSH2 0xF49 PUSH2 0xCD1 JUMP JUMPDEST JUMPDEST DUP4 DUP2 ADD SWAP3 POP DUP3 CALLDATALOAD SWAP2 POP PUSH1 0x20 DUP4 ADD SWAP3 POP PUSH8 0xFFFFFFFFFFFFFFFF DUP3 GT ISZERO PUSH2 0xF72 JUMPI PUSH2 0xF71 PUSH2 0xE62 JUMP JUMPDEST JUMPDEST PUSH1 0x1 DUP3 MUL CALLDATASIZE SUB DUP4 SGT ISZERO PUSH2 0xF88 JUMPI PUSH2 0xF87 PUSH2 0xE67 JUMP JUMPDEST JUMPDEST POP SWAP3 POP SWAP3 SWAP1 POP JUMP JUMPDEST PUSH1 0x0 DUP3 DUP3 MSTORE PUSH1 0x20 DUP3 ADD SWAP1 POP SWAP3 SWAP2 POP POP JUMP JUMPDEST PUSH1 0x0 PUSH2 0xFAD DUP4 DUP6 PUSH2 0xF90 JUMP JUMPDEST SWAP4 POP PUSH2 0xFBA DUP4 DUP6 DUP5 PUSH2 0xEE0 JUMP JUMPDEST PUSH2 0xFC3 DUP4 PUSH2 0xEEF JUMP JUMPDEST DUP5 ADD SWAP1 POP SWAP4 SWAP3 POP POP POP JUMP JUMPDEST PUSH1 0x0 PUSH1 0xC0 DUP4 ADD PUSH2 0xFE1 PUSH1 0x0 DUP5 ADD DUP5 PUSH2 0xCFE JUMP JUMPDEST PUSH2 0xFEE PUSH1 0x0 DUP7 ADD DUP3 PUSH2 0xD15 JUMP JUMPDEST POP PUSH2 0xFFC PUSH1 0x20 DUP5 ADD DUP5 PUSH2 0xD5A JUMP JUMPDEST PUSH2 0x1009 PUSH1 0x20 DUP7 ADD DUP3 PUSH2 0xD71 JUMP JUMPDEST POP PUSH2 0x1017 PUSH1 0x40 DUP5 ADD DUP5 PUSH2 0xDDE JUMP JUMPDEST PUSH2 0x1024 PUSH1 0x40 DUP7 ADD DUP3 PUSH2 0xDF5 JUMP JUMPDEST POP PUSH2 0x1032 PUSH1 0x60 DUP5 ADD DUP5 PUSH2 0xE3C JUMP JUMPDEST PUSH2 0x103F PUSH1 0x60 DUP7 ADD DUP3 PUSH2 0xE53 JUMP JUMPDEST POP PUSH2 0x104D PUSH1 0x80 DUP5 ADD DUP5 PUSH2 0xE6C JUMP JUMPDEST DUP6 DUP4 SUB PUSH1 0x80 DUP8 ADD MSTORE PUSH2 0x1060 DUP4 DUP3 DUP5 PUSH2 0xF00 JUMP JUMPDEST SWAP3 POP POP POP PUSH2 0x1071 PUSH1 0xA0 DUP5 ADD DUP5 PUSH2 0xF2D JUMP JUMPDEST DUP6 DUP4 SUB PUSH1 0xA0 DUP8 ADD MSTORE PUSH2 0x1084 DUP4 DUP3 DUP5 PUSH2 0xFA1 JUMP JUMPDEST SWAP3 POP POP POP DUP1 SWAP2 POP POP SWAP3 SWAP2 POP POP JUMP JUMPDEST PUSH1 0x0 DUP3 CALLDATALOAD PUSH1 0x1 PUSH1 0x80 SUB DUP4 CALLDATASIZE SUB SUB DUP2 SLT PUSH2 0x10AE JUMPI PUSH2 0x10AD PUSH2 0xCD1 JUMP JUMPDEST JUMPDEST DUP3 DUP2 ADD SWAP2 POP POP SWAP3 SWAP2 POP POP JUMP JUMPDEST PUSH1 0x0 PUSH1 0x4 SWAP1 POP SWAP2 SWAP1 POP JUMP JUMPDEST PUSH1 0x0 DUP2 SWAP1 POP SWAP3 SWAP2 POP POP JUMP JUMPDEST PUSH1 0x0 DUP2 SWAP1 POP SWAP2 SWAP1 POP JUMP JUMPDEST PUSH1 0x0 PUSH2 0x10E6 DUP4 DUP4 PUSH2 0xFCE JUMP JUMPDEST SWAP1 POP SWAP3 SWAP2 POP POP JUMP JUMPDEST PUSH1 0x0 PUSH1 0x20 DUP3 ADD SWAP1 POP SWAP2 SWAP1 POP JUMP JUMPDEST PUSH1 0x0 PUSH2 0x1106 DUP3 PUSH2 0x10BA JUMP JUMPDEST PUSH2 0x1110 DUP2 DUP6 PUSH2 0x10C5 JUMP JUMPDEST SWAP4 POP DUP4 PUSH1 0x20 DUP3 MUL DUP6 ADD PUSH2 0x1122 DUP6 PUSH2 0x10D0 JUMP JUMPDEST DUP1 PUSH1 0x0 JUMPDEST DUP6 DUP2 LT ISZERO PUSH2 0x1166 JUMPI DUP5 DUP5 SUB DUP10 MSTORE PUSH2 0x113D DUP3 DUP5 PUSH2 0xCD6 JUMP JUMPDEST PUSH2 0x1147 DUP6 DUP3 PUSH2 0x10DA JUMP JUMPDEST SWAP5 POP PUSH2 0x1152 DUP4 PUSH2 0x10EE JUMP JUMPDEST SWAP3 POP PUSH1 0x20 DUP11 ADD SWAP10 POP POP PUSH1 0x1 DUP2 ADD SWAP1 POP PUSH2 0x1126 JUMP JUMPDEST POP DUP3 SWAP8 POP DUP8 SWAP6 POP POP POP POP POP POP SWAP3 SWAP2 POP POP JUMP JUMPDEST PUSH1 0x0 DUP1 DUP4 CALLDATALOAD PUSH1 0x1 PUSH1 0x20 SUB DUP5 CALLDATASIZE SUB SUB DUP2 SLT PUSH2 0x1195 JUMPI PUSH2 0x1194 PUSH2 0xCD1 JUMP JUMPDEST JUMPDEST DUP4 DUP2 ADD SWAP3 POP DUP3 CALLDATALOAD SWAP2 POP PUSH1 0x20 DUP4 ADD SWAP3 POP PUSH8 0xFFFFFFFFFFFFFFFF DUP3 GT ISZERO PUSH2 0x11BD JUMPI PUSH2 0x11BC PUSH2 0xE62 JUMP JUMPDEST JUMPDEST PUSH1 0x20 DUP3 MUL CALLDATASIZE SUB DUP4 SGT ISZERO PUSH2 0x11D3 JUMPI PUSH2 0x11D2 PUSH2 0xE67 JUMP JUMPDEST JUMPDEST POP SWAP3 POP SWAP3 SWAP1 POP JUMP JUMPDEST PUSH1 0x0 DUP3 DUP3 MSTORE PUSH1 0x20 DUP3 ADD SWAP1 POP SWAP3 SWAP2 POP POP JUMP JUMPDEST PUSH1 0x0 DUP2 SWAP1 POP SWAP2 SWAP1 POP JUMP JUMPDEST PUSH1 0x0 PUSH1 0x20 DUP3 ADD SWAP1 POP SWAP2 SWAP1 POP JUMP JUMPDEST PUSH1 0x0 PUSH2 0x120F DUP4 DUP6 PUSH2 0x11DB JUMP JUMPDEST SWAP4 POP DUP4 PUSH1 0x20 DUP5 MUL DUP6 ADD PUSH2 0x1221 DUP5 PUSH2 0x11EC JUMP JUMPDEST DUP1 PUSH1 0x0 JUMPDEST DUP8 DUP2 LT ISZERO PUSH2 0x1265 JUMPI DUP5 DUP5 SUB DUP10 MSTORE PUSH2 0x123C DUP3 DUP5 PUSH2 0xCD6 JUMP JUMPDEST PUSH2 0x1246 DUP6 DUP3 PUSH2 0x10DA JUMP JUMPDEST SWAP5 POP PUSH2 0x1251 DUP4 PUSH2 0x11F6 JUMP JUMPDEST SWAP3 POP PUSH1 0x20 DUP11 ADD SWAP10 POP POP PUSH1 0x1 DUP2 ADD SWAP1 POP PUSH2 0x1225 JUMP JUMPDEST POP DUP3 SWAP8 POP DUP8 SWAP5 POP POP POP POP POP SWAP4 SWAP3 POP POP POP JUMP JUMPDEST PUSH1 0x0 PUSH1 0x60 DUP4 ADD PUSH2 0x128A PUSH1 0x0 DUP5 ADD DUP5 PUSH2 0xCD6 JUMP JUMPDEST DUP5 DUP3 SUB PUSH1 0x0 DUP7 ADD MSTORE PUSH2 0x129C DUP3 DUP3 PUSH2 0xFCE JUMP JUMPDEST SWAP2 POP POP PUSH2 0x12AC PUSH1 0x20 DUP5 ADD DUP5 PUSH2 0x1092 JUMP JUMPDEST DUP5 DUP3 SUB PUSH1 0x20 DUP7 ADD MSTORE PUSH2 0x12BE DUP3 DUP3 PUSH2 0x10FB JUMP JUMPDEST SWAP2 POP POP PUSH2 0x12CE PUSH1 0x40 DUP5 ADD DUP5 PUSH2 0x1178 JUMP JUMPDEST DUP6 DUP4 SUB PUSH1 0x40 DUP8 ADD MSTORE PUSH2 0x12E1 DUP4 DUP3 DUP5 PUSH2 0x1203 JUMP JUMPDEST SWAP3 POP POP POP DUP1 SWAP2 POP POP SWAP3 SWAP2 POP POP JUMP JUMPDEST PUSH1 0x0 PUSH2 0x12FB DUP4 DUP4 PUSH2 0x1277 JUMP JUMPDEST SWAP1 POP SWAP3 SWAP2 POP POP JUMP JUMPDEST PUSH1 0x0 DUP3 CALLDATALOAD PUSH1 0x1 PUSH1 0x60 SUB DUP4 CALLDATASIZE SUB SUB DUP2 SLT PUSH2 0x131F JUMPI PUSH2 0x131E PUSH2 0xCD1 JUMP JUMPDEST JUMPDEST DUP3 DUP2 ADD SWAP2 POP POP SWAP3 SWAP2 POP POP JUMP JUMPDEST PUSH1 0x0 PUSH1 0x20 DUP3 ADD SWAP1 POP SWAP2 SWAP1 POP JUMP JUMPDEST PUSH1 0x0 PUSH2 0x1344 DUP4 DUP6 PUSH2 0xCB6 JUMP JUMPDEST SWAP4 POP DUP4 PUSH1 0x20 DUP5 MUL DUP6 ADD PUSH2 0x1356 DUP5 PUSH2 0xCC7 JUMP JUMPDEST DUP1 PUSH1 0x0 JUMPDEST DUP8 DUP2 LT ISZERO PUSH2 0x139A JUMPI DUP5 DUP5 SUB DUP10 MSTORE PUSH2 0x1371 DUP3 DUP5 PUSH2 0x1303 JUMP JUMPDEST PUSH2 0x137B DUP6 DUP3 PUSH2 0x12EF JUMP JUMPDEST SWAP5 POP PUSH2 0x1386 DUP4 PUSH2 0x132B JUMP JUMPDEST SWAP3 POP PUSH1 0x20 DUP11 ADD SWAP10 POP POP PUSH1 0x1 DUP2 ADD SWAP1 POP PUSH2 0x135A JUMP JUMPDEST POP DUP3 SWAP8 POP DUP8 SWAP5 POP POP POP POP POP SWAP4 SWAP3 POP POP POP JUMP JUMPDEST PUSH2 0x13B5 DUP2 PUSH2 0xB95 JUMP JUMPDEST DUP3 MSTORE POP POP JUMP JUMPDEST PUSH1 0x0 DUP3 DUP3 MSTORE PUSH1 0x20 DUP3 ADD SWAP1 POP SWAP3 SWAP2 POP POP JUMP JUMPDEST PUSH1 0x0 PUSH2 0x13D8 DUP4 DUP6 PUSH2 0x13BB JUMP JUMPDEST SWAP4 POP PUSH2 0x13E5 DUP4 DUP6 DUP5 PUSH2 0xEE0 JUMP JUMPDEST PUSH2 0x13EE DUP4 PUSH2 0xEEF JUMP JUMPDEST DUP5 ADD SWAP1 POP SWAP4 SWAP3 POP POP POP JUMP JUMPDEST PUSH1 0x0 PUSH1 0x60 DUP3 ADD SWAP1 POP DUP2 DUP2 SUB PUSH1 0x0 DUP4 ADD MSTORE PUSH2 0x1414 DUP2 DUP8 DUP10 PUSH2 0x1338 JUMP JUMPDEST SWAP1 POP PUSH2 0x1423 PUSH1 0x20 DUP4 ADD DUP7 PUSH2 0x13AC JUMP JUMPDEST DUP2 DUP2 SUB PUSH1 0x40 DUP4 ADD MSTORE PUSH2 0x1436 DUP2 DUP5 DUP7 PUSH2 0x13CC JUMP JUMPDEST SWAP1 POP SWAP7 SWAP6 POP POP POP POP POP POP JUMP JUMPDEST PUSH1 0x0 DUP1 DUP4 PUSH1 0x1F DUP5 ADD SLT PUSH2 0x1458 JUMPI PUSH2 0x1457 PUSH2 0xB30 JUMP JUMPDEST JUMPDEST DUP3 CALLDATALOAD SWAP1 POP PUSH8 0xFFFFFFFFFFFFFFFF DUP2 GT ISZERO PUSH2 0x1475 JUMPI PUSH2 0x1474 PUSH2 0xB35 JUMP JUMPDEST JUMPDEST PUSH1 0x20 DUP4 ADD SWAP2 POP DUP4 PUSH1 0x20 DUP3 MUL DUP4 ADD GT ISZERO PUSH2 0x1491 JUMPI PUSH2 0x1490 PUSH2 0xB3A JUMP JUMPDEST JUMPDEST SWAP3 POP SWAP3 SWAP1 POP JUMP JUMPDEST PUSH1 0x0 DUP1 PUSH1 0x20 DUP4 DUP6 SUB SLT ISZERO PUSH2 0x14AF JUMPI PUSH2 0x14AE PUSH2 0xB26 JUMP JUMPDEST JUMPDEST PUSH1 0x0 DUP4 ADD CALLDATALOAD PUSH8 0xFFFFFFFFFFFFFFFF DUP2 GT ISZERO PUSH2 0x14CD JUMPI PUSH2 0x14CC PUSH2 0xB2B JUMP JUMPDEST JUMPDEST PUSH2 0x14D9 DUP6 DUP3 DUP7 ADD PUSH2 0x1442 JUMP JUMPDEST SWAP3 POP SWAP3 POP POP SWAP3 POP SWAP3 SWAP1 POP JUMP JUMPDEST PUSH1 0x0 DUP3 DUP3 MSTORE PUSH1 0x20 DUP3 ADD SWAP1 POP SWAP3 SWAP2 POP POP JUMP JUMPDEST PUSH1 0x0 DUP2 SWAP1 POP SWAP2 SWAP1 POP JUMP JUMPDEST PUSH1 0x0 PUSH2 0x150C DUP4 DUP4 PUSH2 0xD15 JUMP JUMPDEST PUSH1 0x20 DUP4 ADD SWAP1 POP SWAP3 SWAP2 POP POP JUMP JUMPDEST PUSH1 0x0 PUSH1 0x20 DUP3 ADD SWAP1 POP SWAP2 SWAP1 POP JUMP JUMPDEST PUSH1 0x0 PUSH2 0x1531 DUP4 DUP6 PUSH2 0x14E5 JUMP JUMPDEST SWAP4 POP PUSH2 0x153C DUP3 PUSH2 0x14F6 JUMP JUMPDEST DUP1 PUSH1 0x0 JUMPDEST DUP6 DUP2 LT ISZERO PUSH2 0x1575 JUMPI PUSH2 0x1552 DUP3 DUP5 PUSH2 0xCFE JUMP JUMPDEST PUSH2 0x155C DUP9 DUP3 PUSH2 0x1500 JUMP JUMPDEST SWAP8 POP PUSH2 0x1567 DUP4 PUSH2 0x1518 JUMP JUMPDEST SWAP3 POP POP PUSH1 0x1 DUP2 ADD SWAP1 POP PUSH2 0x1540 JUMP JUMPDEST POP DUP6 SWAP3 POP POP POP SWAP4 SWAP3 POP POP POP JUMP JUMPDEST PUSH1 0x0 PUSH1 0x20 DUP3 ADD SWAP1 POP DUP2 DUP2 SUB PUSH1 0x0 DUP4 ADD MSTORE PUSH2 0x159D DUP2 DUP5 DUP7 PUSH2 0x1525 JUMP JUMPDEST SWAP1 POP SWAP4 SWAP3 POP POP POP JUMP JUMPDEST PUSH1 0x0 PUSH1 0x20 DUP3 DUP5 SUB SLT ISZERO PUSH2 0x15BC JUMPI PUSH2 0x15BB PUSH2 0xB26 JUMP JUMPDEST JUMPDEST PUSH1 0x0 PUSH2 0x15CA DUP5 DUP3 DUP6 ADD PUSH2 0xBB6 JUMP JUMPDEST SWAP2 POP POP SWAP3 SWAP2 POP POP JUMP JUMPDEST PUSH1 0x0 PUSH1 0x20 DUP3 ADD SWAP1 POP PUSH2 0x15E8 PUSH1 0x0 DUP4 ADD DUP5 PUSH2 0x13AC JUMP JUMPDEST SWAP3 SWAP2 POP POP JUMP JUMPDEST PUSH1 0x0 DUP1 DUP4 PUSH1 0x1F DUP5 ADD SLT PUSH2 0x1604 JUMPI PUSH2 0x1603 PUSH2 0xB30 JUMP JUMPDEST JUMPDEST DUP3 CALLDATALOAD SWAP1 POP PUSH8 0xFFFFFFFFFFFFFFFF DUP2 GT ISZERO PUSH2 0x1621 JUMPI PUSH2 0x1620 PUSH2 0xB35 JUMP JUMPDEST JUMPDEST PUSH1 0x20 DUP4 ADD SWAP2 POP DUP4 PUSH1 0x20 DUP3 MUL DUP4 ADD GT ISZERO PUSH2 0x163D JUMPI PUSH2 0x163C PUSH2 0xB3A JUMP JUMPDEST JUMPDEST SWAP3 POP SWAP3 SWAP1 POP JUMP JUMPDEST PUSH1 0x0 DUP1 PUSH1 0x20 DUP4 DUP6 SUB SLT ISZERO PUSH2 0x165B JUMPI PUSH2 0x165A PUSH2 0xB26 JUMP JUMPDEST JUMPDEST PUSH1 0x0 DUP4 ADD CALLDATALOAD PUSH8 0xFFFFFFFFFFFFFFFF DUP2 GT ISZERO PUSH2 0x1679 JUMPI PUSH2 0x1678 PUSH2 0xB2B JUMP JUMPDEST JUMPDEST PUSH2 0x1685 DUP6 DUP3 DUP7 ADD PUSH2 0x15EE JUMP JUMPDEST SWAP3 POP SWAP3 POP POP SWAP3 POP SWAP3 SWAP1 POP JUMP JUMPDEST PUSH1 0x0 DUP3 DUP3 MSTORE PUSH1 0x20 DUP3 ADD SWAP1 POP SWAP3 SWAP2 POP POP JUMP JUMPDEST PUSH1 0x0 PUSH2 0x16AE DUP4 DUP6 PUSH2 0x1691 JUMP JUMPDEST SWAP4 POP DUP4 PUSH1 0x20 DUP5 MUL DUP6 ADD PUSH2 0x16C0 DUP5 PUSH2 0x11EC JUMP JUMPDEST DUP1 PUSH1 0x0 JUMPDEST DUP8 DUP2 LT ISZERO PUSH2 0x1704 JUMPI DUP5 DUP5 SUB DUP10 MSTORE PUSH2 0x16DB DUP3 DUP5 PUSH2 0xCD6 JUMP JUMPDEST PUSH2 0x16E5 DUP6 DUP3 PUSH2 0x10DA JUMP JUMPDEST SWAP5 POP PUSH2 0x16F0 DUP4 PUSH2 0x11F6 JUMP JUMPDEST SWAP3 POP PUSH1 0x20 DUP11 ADD SWAP10 POP POP PUSH1 0x1 DUP2 ADD SWAP1 POP PUSH2 0x16C4 JUMP JUMPDEST POP DUP3 SWAP8 POP DUP8 SWAP5 POP POP POP POP POP SWAP4 SWAP3 POP POP POP JUMP JUMPDEST PUSH1 0x0 PUSH1 0x20 DUP3 ADD SWAP1 POP DUP2 DUP2 SUB PUSH1 0x0 DUP4 ADD MSTORE PUSH2 0x1731 DUP2 DUP5 DUP7 PUSH2 0x16A2 JUMP JUMPDEST SWAP1 POP SWAP4 SWAP3 POP POP POP JUMP JUMPDEST PUSH1 0x0 DUP1 REVERT JUMPDEST PUSH1 0x0 PUSH1 0xC0 DUP3 DUP5 SUB SLT ISZERO PUSH2 0x1755 JUMPI PUSH2 0x1754 PUSH2 0x173A JUMP JUMPDEST JUMPDEST DUP2 SWAP1 POP SWAP3 SWAP2 POP POP JUMP JUMPDEST PUSH1 0x0 PUSH1 0x20 DUP3 DUP5 SUB SLT ISZERO PUSH2 0x1774 JUMPI PUSH2 0x1773 PUSH2 0xB26 JUMP JUMPDEST JUMPDEST PUSH1 0x0 DUP3 ADD CALLDATALOAD PUSH8 0xFFFFFFFFFFFFFFFF DUP2 GT ISZERO PUSH2 0x1792 JUMPI PUSH2 0x1791 PUSH2 0xB2B JUMP JUMPDEST JUMPDEST PUSH2 0x179E DUP5 DUP3 DUP6 ADD PUSH2 0x173F JUMP JUMPDEST SWAP2 POP POP SWAP3 SWAP2 POP POP JUMP JUMPDEST PUSH1 0x0 PUSH1 0xC0 DUP4 ADD PUSH2 0x17BA PUSH1 0x0 DUP5 ADD DUP5 PUSH2 0xCFE JUMP JUMPDEST PUSH2 0x17C7 PUSH1 0x0 DUP7 ADD DUP3 PUSH2 0xD15 JUMP JUMPDEST POP PUSH2 0x17D5 PUSH1 0x20 DUP5 ADD DUP5 PUSH2 0xD5A JUMP JUMPDEST PUSH2 0x17E2 PUSH1 0x20 DUP7 ADD DUP3 PUSH2 0xD71 JUMP JUMPDEST POP PUSH2 0x17F0 PUSH1 0x40 DUP5 ADD DUP5 PUSH2 0xDDE JUMP JUMPDEST PUSH2 0x17FD PUSH1 0x40 DUP7 ADD DUP3 PUSH2 0xDF5 JUMP JUMPDEST POP PUSH2 0x180B PUSH1 0x60 DUP5 ADD DUP5 PUSH2 0xE3C JUMP JUMPDEST PUSH2 0x1818 PUSH1 0x60 DUP7 ADD DUP3 PUSH2 0xE53 JUMP JUMPDEST POP PUSH2 0x1826 PUSH1 0x80 DUP5 ADD DUP5 PUSH2 0xE6C JUMP JUMPDEST DUP6 DUP4 SUB PUSH1 0x80 DUP8 ADD MSTORE PUSH2 0x1839 DUP4 DUP3 DUP5 PUSH2 0xF00 JUMP JUMPDEST SWAP3 POP POP POP PUSH2 0x184A PUSH1 0xA0 DUP5 ADD DUP5 PUSH2 0xF2D JUMP JUMPDEST DUP6 DUP4 SUB PUSH1 0xA0 DUP8 ADD MSTORE PUSH2 0x185D DUP4 DUP3 DUP5 PUSH2 0xFA1 JUMP JUMPDEST SWAP3 POP POP POP DUP1 SWAP2 POP POP SWAP3 SWAP2 POP POP JUMP JUMPDEST PUSH1 0x0 PUSH1 0x20 DUP3 ADD SWAP1 POP DUP2 DUP2 SUB PUSH1 0x0 DUP4 ADD MSTORE PUSH2 0x1885 DUP2 DUP5 PUSH2 0x17A7 JUMP JUMPDEST SWAP1 POP SWAP3 SWAP2 POP POP JUMP JUMPDEST PUSH1 0x0 PUSH1 0x60 DUP3 DUP5 SUB SLT ISZERO PUSH2 0x18A3 JUMPI PUSH2 0x18A2 PUSH2 0x173A JUMP JUMPDEST JUMPDEST DUP2 SWAP1 POP SWAP3 SWAP2 POP POP JUMP JUMPDEST PUSH1 0x0 PUSH1 0x20 DUP3 DUP5 SUB SLT ISZERO PUSH2 0x18C2 JUMPI PUSH2 0x18C1 PUSH2 0xB26 JUMP JUMPDEST JUMPDEST PUSH1 0x0 DUP3 ADD CALLDATALOAD PUSH8 0xFFFFFFFFFFFFFFFF DUP2 GT ISZERO PUSH2 0x18E0 JUMPI PUSH2 0x18DF PUSH2 0xB2B JUMP JUMPDEST JUMPDEST PUSH2 0x18EC DUP5 DUP3 DUP6 ADD PUSH2 0x188D JUMP JUMPDEST SWAP2 POP POP SWAP3 SWAP2 POP POP JUMP JUMPDEST PUSH1 0x0 PUSH1 0x60 DUP4 ADD PUSH2 0x1908 PUSH1 0x0 DUP5 ADD DUP5 PUSH2 0xCD6 JUMP JUMPDEST DUP5 DUP3 SUB PUSH1 0x0 DUP7 ADD MSTORE PUSH2 0x191A DUP3 DUP3 PUSH2 0xFCE JUMP JUMPDEST SWAP2 POP POP PUSH2 0x192A PUSH1 0x20 DUP5 ADD DUP5 PUSH2 0x1092 JUMP JUMPDEST DUP5 DUP3 SUB PUSH1 0x20 DUP7 ADD MSTORE PUSH2 0x193C DUP3 DUP3 PUSH2 0x10FB JUMP JUMPDEST SWAP2 POP POP PUSH2 0x194C PUSH1 0x40 DUP5 ADD DUP5 PUSH2 0x1178 JUMP JUMPDEST DUP6 DUP4 SUB PUSH1 0x40 DUP8 ADD MSTORE PUSH2 0x195F DUP4 DUP3 DUP5 PUSH2 0x1203 JUMP JUMPDEST SWAP3 POP POP POP DUP1 SWAP2 POP POP SWAP3 SWAP2 POP POP JUMP JUMPDEST PUSH1 0x0 PUSH1 0x20 DUP3 ADD SWAP1 POP DUP2 DUP2 SUB PUSH1 0x0 DUP4 ADD MSTORE PUSH2 0x1987 DUP2 DUP5 PUSH2 0x18F5 JUMP JUMPDEST SWAP1 POP SWAP3 SWAP2 POP POP JUMP JUMPDEST PUSH1 0x0 DUP2 MLOAD SWAP1 POP SWAP2 SWAP1 POP JUMP JUMPDEST PUSH1 0x0 JUMPDEST DUP4 DUP2 LT ISZERO PUSH2 0x19B8 JUMPI DUP1 DUP3 ADD MLOAD DUP2 DUP5 ADD MSTORE PUSH1 0x20 DUP2 ADD SWAP1 POP PUSH2 0x199D JUMP JUMPDEST PUSH1 0x0 DUP5 DUP5 ADD MSTORE POP POP POP POP JUMP JUMPDEST PUSH1 0x0 PUSH2 0x19CF DUP3 PUSH2 0x198F JUMP JUMPDEST PUSH2 0x19D9 DUP2 DUP6 PUSH2 0x13BB JUMP JUMPDEST SWAP4 POP PUSH2 0x19E9 DUP2 DUP6 PUSH1 0x20 DUP7 ADD PUSH2 0x199A JUMP JUMPDEST PUSH2 0x19F2 DUP2 PUSH2 0xEEF JUMP JUMPDEST DUP5 ADD SWAP2 POP POP SWAP3 SWAP2 POP POP JUMP JUMPDEST PUSH1 0x0 PUSH1 0x20 DUP3 ADD SWAP1 POP DUP2 DUP2 SUB PUSH1 0x0 DUP4 ADD MSTORE PUSH2 0x1A17 DUP2 DUP5 PUSH2 0x19C4 JUMP JUMPDEST SWAP1 POP SWAP3 SWAP2 POP POP JUMP JUMPDEST PUSH1 0x0 DUP2 SWAP1 POP DUP3 PUSH1 0x80 PUSH1 0x4 MUL DUP3 ADD GT ISZERO PUSH2 0x1A3B JUMPI PUSH2 0x1A3A PUSH2 0xB3A JUMP JUMPDEST JUMPDEST SWAP3 SWAP2 POP POP JUMP JUMPDEST PUSH1 0x0 PUSH2 0x200 DUP3 DUP5 SUB SLT ISZERO PUSH2 0x1A58 JUMPI PUSH2 0x1A57 PUSH2 0xB26 JUMP JUMPDEST JUMPDEST PUSH1 0x0 PUSH2 0x1A66 DUP5 DUP3 DUP6 ADD PUSH2 0x1A1F JUMP JUMPDEST SWAP2 POP POP SWAP3 SWAP2 POP POP JUMP JUMPDEST PUSH1 0x0 PUSH1 0x4 SWAP1 POP SWAP2 SWAP1 POP JUMP JUMPDEST PUSH1 0x0 DUP2 SWAP1 POP SWAP3 SWAP2 POP POP JUMP JUMPDEST PUSH1 0x0 DUP2 SWAP1 POP SWAP2 SWAP1 POP JUMP JUMPDEST PUSH1 0x0 PUSH1 0x4 SWAP1 POP SWAP2 SWAP1 POP JUMP JUMPDEST PUSH1 0x0 DUP2 SWAP1 POP SWAP3 SWAP2 POP POP JUMP JUMPDEST PUSH1 0x0 DUP2 SWAP1 POP SWAP2 SWAP1 POP JUMP JUMPDEST PUSH1 0x0 PUSH1 0x20 DUP3 ADD SWAP1 POP SWAP2 SWAP1 POP JUMP JUMPDEST PUSH2 0x1AC5 DUP2 PUSH2 0x1A8F JUMP JUMPDEST PUSH2 0x1ACF DUP2 DUP5 PUSH2 0x1A9A JUMP JUMPDEST SWAP3 POP PUSH2 0x1ADA DUP3 PUSH2 0x1AA5 JUMP JUMPDEST DUP1 PUSH1 0x0 JUMPDEST DUP4 DUP2 LT ISZERO PUSH2 0x1B13 JUMPI PUSH2 0x1AF0 DUP3 DUP5 PUSH2 0xCFE JUMP JUMPDEST PUSH2 0x1AFA DUP8 DUP3 PUSH2 0x1500 JUMP JUMPDEST SWAP7 POP PUSH2 0x1B05 DUP4 PUSH2 0x1AAF JUMP JUMPDEST SWAP3 POP POP PUSH1 0x1 DUP2 ADD SWAP1 POP PUSH2 0x1ADE JUMP JUMPDEST POP POP POP POP POP POP JUMP JUMPDEST PUSH1 0x0 PUSH2 0x1B27 DUP4 DUP4 PUSH2 0x1ABC JUMP JUMPDEST PUSH1 0x80 DUP4 ADD SWAP1 POP SWAP3 SWAP2 POP POP JUMP JUMPDEST PUSH1 0x0 DUP3 SWAP1 POP SWAP3 SWAP2 POP POP JUMP JUMPDEST PUSH1 0x0 PUSH1 0x80 DUP3 ADD SWAP1 POP SWAP2 SWAP1 POP JUMP JUMPDEST PUSH2 0x1B54 DUP2 PUSH2 0x1A6F JUMP JUMPDEST PUSH2 0x1B5E DUP2 DUP5 PUSH2 0x1A7A JUMP JUMPDEST SWAP3 POP PUSH2 0x1B69 DUP3 PUSH2 0x1A85 JUMP JUMPDEST DUP1 PUSH1 0x0 JUMPDEST DUP4 DUP2 LT ISZERO PUSH2 0x1BA2 JUMPI PUSH2 0x1B7F DUP3 DUP5 PUSH2 0x1B33 JUMP JUMPDEST PUSH2 0x1B89 DUP8 DUP3 PUSH2 0x1B1B JUMP JUMPDEST SWAP7 POP PUSH2 0x1B94 DUP4 PUSH2 0x1B3E JUMP JUMPDEST SWAP3 POP POP PUSH1 0x1 DUP2 ADD SWAP1 POP PUSH2 0x1B6D JUMP JUMPDEST POP POP POP POP POP POP JUMP JUMPDEST PUSH1 0x0 PUSH2 0x200 DUP3 ADD SWAP1 POP PUSH2 0x1BC0 PUSH1 0x0 DUP4 ADD DUP5 PUSH2 0x1B4B JUMP JUMPDEST SWAP3 SWAP2 POP POP JUMP JUMPDEST PUSH1 0x0 DUP2 SWAP1 POP DUP3 PUSH1 0x20 PUSH1 0x4 MUL DUP3 ADD GT ISZERO PUSH2 0x1BE2 JUMPI PUSH2 0x1BE1 PUSH2 0xB3A JUMP JUMPDEST JUMPDEST SWAP3 SWAP2 POP POP JUMP JUMPDEST PUSH1 0x0 PUSH1 0x20 DUP3 DUP5 SUB SLT ISZERO PUSH2 0x1BFE JUMPI PUSH2 0x1BFD PUSH2 0xB26 JUMP JUMPDEST JUMPDEST PUSH1 0x0 DUP3 ADD CALLDATALOAD PUSH8 0xFFFFFFFFFFFFFFFF DUP2 GT ISZERO PUSH2 0x1C1C JUMPI PUSH2 0x1C1B PUSH2 0xB2B JUMP JUMPDEST JUMPDEST PUSH2 0x1C28 DUP5 DUP3 DUP6 ADD PUSH2 0x1BC6 JUMP JUMPDEST SWAP2 POP POP SWAP3 SWAP2 POP POP JUMP JUMPDEST PUSH1 0x0 PUSH1 0x4 SWAP1 POP SWAP2 SWAP1 POP JUMP JUMPDEST PUSH1 0x0 DUP2 SWAP1 POP SWAP3 SWAP2 POP POP JUMP JUMPDEST PUSH1 0x0 DUP2 SWAP1 POP SWAP2 SWAP1 POP JUMP JUMPDEST PUSH1 0x0 DUP3 DUP3 MSTORE PUSH1 0x20 DUP3 ADD SWAP1 POP SWAP3 SWAP2 POP POP JUMP JUMPDEST PUSH1 0x0 PUSH2 0x1C6E DUP4 DUP6 PUSH2 0x1C51 JUMP JUMPDEST SWAP4 POP PUSH2 0x1C79 DUP3 PUSH2 0x14F6 JUMP JUMPDEST DUP1 PUSH1 0x0 JUMPDEST DUP6 DUP2 LT ISZERO PUSH2 0x1CB2 JUMPI PUSH2 0x1C8F DUP3 DUP5 PUSH2 0xCFE JUMP JUMPDEST PUSH2 0x1C99 DUP9 DUP3 PUSH2 0x1500 JUMP JUMPDEST SWAP8 POP PUSH2 0x1CA4 DUP4 PUSH2 0x1518 JUMP JUMPDEST SWAP3 POP POP PUSH1 0x1 DUP2 ADD SWAP1 POP PUSH2 0x1C7D JUMP JUMPDEST POP DUP6 SWAP3 POP POP POP SWAP4 SWAP3 POP POP POP JUMP JUMPDEST PUSH1 0x0 PUSH2 0x1CCC DUP5 DUP5 DUP5 PUSH2 0x1C62 JUMP JUMPDEST SWAP1 POP SWAP4 SWAP3 POP POP POP JUMP JUMPDEST PUSH1 0x0 DUP1 DUP4 CALLDATALOAD PUSH1 0x1 PUSH1 0x20 SUB DUP5 CALLDATASIZE SUB SUB DUP2 SLT PUSH2 0x1CF2 JUMPI PUSH2 0x1CF1 PUSH2 0xCD1 JUMP JUMPDEST JUMPDEST DUP4 DUP2 ADD SWAP3 POP DUP3 CALLDATALOAD SWAP2 POP PUSH1 0x20 DUP4 ADD SWAP3 POP PUSH8 0xFFFFFFFFFFFFFFFF DUP3 GT ISZERO PUSH2 0x1D1A JUMPI PUSH2 0x1D19 PUSH2 0xE62 JUMP JUMPDEST JUMPDEST PUSH1 0x20 DUP3 MUL CALLDATASIZE SUB DUP4 SGT ISZERO PUSH2 0x1D30 JUMPI PUSH2 0x1D2F PUSH2 0xE67 JUMP JUMPDEST JUMPDEST POP SWAP3 POP SWAP3 SWAP1 POP JUMP JUMPDEST PUSH1 0x0 PUSH1 0x20 DUP3 ADD SWAP1 POP SWAP2 SWAP1 POP JUMP JUMPDEST PUSH1 0x0 PUSH2 0x1D50 DUP3 PUSH2 0x1C31 JUMP JUMPDEST PUSH2 0x1D5A DUP2 DUP6 PUSH2 0x1C3C JUMP JUMPDEST SWAP4 POP DUP4 PUSH1 0x20 DUP3 MUL DUP6 ADD PUSH2 0x1D6C DUP6 PUSH2 0x1C47 JUMP JUMPDEST DUP1 PUSH1 0x0 JUMPDEST DUP6 DUP2 LT ISZERO PUSH2 0x1DB2 JUMPI DUP5 DUP5 SUB DUP10 MSTORE PUSH2 0x1D87 DUP3 DUP5 PUSH2 0x1CD5 JUMP JUMPDEST PUSH2 0x1D92 DUP7 DUP3 DUP5 PUSH2 0x1CBF JUMP JUMPDEST SWAP6 POP PUSH2 0x1D9D DUP5 PUSH2 0x1D38 JUMP JUMPDEST SWAP4 POP PUSH1 0x20 DUP12 ADD SWAP11 POP POP POP PUSH1 0x1 DUP2 ADD SWAP1 POP PUSH2 0x1D70 JUMP JUMPDEST POP DUP3 SWAP8 POP DUP8 SWAP6 POP POP POP POP POP POP SWAP3 SWAP2 POP POP JUMP JUMPDEST PUSH1 0x0 PUSH1 0x20 DUP3 ADD SWAP1 POP DUP2 DUP2 SUB PUSH1 0x0 DUP4 ADD MSTORE PUSH2 0x1DDE DUP2 DUP5 PUSH2 0x1D45 JUMP JUMPDEST SWAP1 POP SWAP3 SWAP2 POP POP JUMP JUMPDEST PUSH1 0x0 DUP2 SWAP1 POP DUP3 PUSH1 0x20 PUSH1 0x4 MUL DUP3 ADD GT ISZERO PUSH2 0x1E02 JUMPI PUSH2 0x1E01 PUSH2 0xB3A JUMP JUMPDEST JUMPDEST SWAP3 SWAP2 POP POP JUMP JUMPDEST PUSH1 0x0 PUSH1 0x80 DUP3 DUP5 SUB SLT ISZERO PUSH2 0x1E1E JUMPI PUSH2 0x1E1D PUSH2 0xB26 JUMP JUMPDEST JUMPDEST PUSH1 0x0 PUSH2 0x1E2C DUP5 DUP3 DUP6 ADD PUSH2 0x1DE6 JUMP JUMPDEST SWAP2 POP POP SWAP3 SWAP2 POP POP JUMP JUMPDEST PUSH1 0x0 DUP2 SWAP1 POP SWAP3 SWAP2 POP POP JUMP JUMPDEST PUSH2 0x1E49 DUP2 PUSH2 0x1A8F JUMP JUMPDEST PUSH2 0x1E53 DUP2 DUP5 PUSH2 0x1E35 JUMP JUMPDEST SWAP3 POP PUSH2 0x1E5E DUP3 PUSH2 0x1AA5 JUMP JUMPDEST DUP1 PUSH1 0x0 JUMPDEST DUP4 DUP2 LT ISZERO PUSH2 0x1E97 JUMPI PUSH2 0x1E74 DUP3 DUP5 PUSH2 0xCFE JUMP JUMPDEST PUSH2 0x1E7E DUP8 DUP3 PUSH2 0x1500 JUMP JUMPDEST SWAP7 POP PUSH2 0x1E89 DUP4 PUSH2 0x1AAF JUMP JUMPDEST SWAP3 POP POP PUSH1 0x1 DUP2 ADD SWAP1 POP PUSH2 0x1E62 JUMP JUMPDEST POP POP POP POP POP POP JUMP JUMPDEST PUSH1 0x0 PUSH1 0x80 DUP3 ADD SWAP1 POP PUSH2 0x1EB4 PUSH1 0x0 DUP4 ADD DUP5 PUSH2 0x1E40 JUMP JUMPDEST SWAP3 SWAP2 POP POP JUMP JUMPDEST PUSH1 0x0 DUP1 DUP4 PUSH1 0x1F DUP5 ADD SLT PUSH2 0x1ED0 JUMPI PUSH2 0x1ECF PUSH2 0xB30 JUMP JUMPDEST JUMPDEST DUP3 CALLDATALOAD SWAP1 POP PUSH8 0xFFFFFFFFFFFFFFFF DUP2 GT ISZERO PUSH2 0x1EED JUMPI PUSH2 0x1EEC PUSH2 0xB35 JUMP JUMPDEST JUMPDEST PUSH1 0x20 DUP4 ADD SWAP2 POP DUP4 PUSH1 0x20 DUP3 MUL DUP4 ADD GT ISZERO PUSH2 0x1F09 JUMPI PUSH2 0x1F08 PUSH2 0xB3A JUMP JUMPDEST JUMPDEST SWAP3 POP SWAP3 SWAP1 POP JUMP JUMPDEST PUSH1 0x0 DUP1 PUSH1 0x20 DUP4 DUP6 SUB SLT ISZERO PUSH2 0x1F27 JUMPI PUSH2 0x1F26 PUSH2 0xB26 JUMP JUMPDEST JUMPDEST PUSH1 0x0 DUP4 ADD CALLDATALOAD PUSH8 0xFFFFFFFFFFFFFFFF DUP2 GT ISZERO PUSH2 0x1F45 JUMPI PUSH2 0x1F44 PUSH2 0xB2B JUMP JUMPDEST JUMPDEST PUSH2 0x1F51 DUP6 DUP3 DUP7 ADD PUSH2 0x1EBA JUMP JUMPDEST SWAP3 POP SWAP3 POP POP SWAP3 POP SWAP3 SWAP1 POP JUMP JUMPDEST PUSH1 0x0 DUP3 DUP3 MSTORE PUSH1 0x20 DUP3 ADD SWAP1 POP SWAP3 SWAP2 POP POP JUMP JUMPDEST PUSH1 0x0 DUP2 SWAP1 POP SWAP2 SWAP1 POP JUMP JUMPDEST PUSH1 0x0 PUSH1 0x20 DUP3 ADD SWAP1 POP SWAP2 SWAP1 POP JUMP JUMPDEST PUSH1 0x0 PUSH2 0x1F91 DUP4 DUP6 PUSH2 0x1F5D JUMP JUMPDEST SWAP4 POP DUP4 PUSH1 0x20 DUP5 MUL DUP6 ADD PUSH2 0x1FA3 DUP5 PUSH2 0x1F6E JUMP JUMPDEST DUP1 PUSH1 0x0 JUMPDEST DUP8 DUP2 LT ISZERO PUSH2 0x1FE9 JUMPI DUP5 DUP5 SUB DUP10 MSTORE PUSH2 0x1FBE DUP3 DUP5 PUSH2 0x1CD5 JUMP JUMPDEST PUSH2 0x1FC9 DUP7 DUP3 DUP5 PUSH2 0x1CBF JUMP JUMPDEST SWAP6 POP PUSH2 0x1FD4 DUP5 PUSH2 0x1F78 JUMP JUMPDEST SWAP4 POP PUSH1 0x20 DUP12 ADD SWAP11 POP POP POP PUSH1 0x1 DUP2 ADD SWAP1 POP PUSH2 0x1FA7 JUMP JUMPDEST POP DUP3 SWAP8 POP DUP8 SWAP5 POP POP POP POP POP SWAP4 SWAP3 POP POP POP JUMP JUMPDEST PUSH1 0x0 PUSH1 0x20 DUP3 ADD SWAP1 POP DUP2 DUP2 SUB PUSH1 0x0 DUP4 ADD MSTORE PUSH2 0x2016 DUP2 DUP5 DUP7 PUSH2 0x1F85 JUMP JUMPDEST SWAP1 POP SWAP4 SWAP3 POP POP POP JUMP JUMPDEST PUSH1 0x0 DUP1 PUSH1 0x20 DUP4 DUP6 SUB SLT ISZERO PUSH2 0x2036 JUMPI PUSH2 0x2035 PUSH2 0xB26 JUMP JUMPDEST JUMPDEST PUSH1 0x0 DUP4 ADD CALLDATALOAD PUSH8 0xFFFFFFFFFFFFFFFF DUP2 GT ISZERO PUSH2 0x2054 JUMPI PUSH2 0x2053 PUSH2 0xB2B JUMP JUMPDEST JUMPDEST PUSH2 0x2060 DUP6 DUP3 DUP7 ADD PUSH2 0xB3F JUMP JUMPDEST SWAP3 POP SWAP3 POP POP SWAP3 POP SWAP3 SWAP1 POP JUMP JUMPDEST PUSH1 0x0 PUSH1 0x20 DUP3 ADD SWAP1 POP DUP2 DUP2 SUB PUSH1 0x0 DUP4 ADD MSTORE PUSH2 0x2087 DUP2 DUP5 DUP7 PUSH2 0x1338 JUMP JUMPDEST SWAP1 POP SWAP4 SWAP3 POP POP POP JUMP JUMPDEST PUSH1 0x0 DUP1 DUP4 PUSH1 0x1F DUP5 ADD SLT PUSH2 0x20A6 JUMPI PUSH2 0x20A5 PUSH2 0xB30 JUMP JUMPDEST JUMPDEST DUP3 CALLDATALOAD SWAP1 POP PUSH8 0xFFFFFFFFFFFFFFFF DUP2 GT ISZERO PUSH2 0x20C3 JUMPI PUSH2 0x20C2 PUSH2 0xB35 JUMP JUMPDEST JUMPDEST PUSH1 0x20 DUP4 ADD SWAP2 POP DUP4 PUSH1 0x80 DUP3 MUL DUP4 ADD GT ISZERO PUSH2 0x20DF JUMPI PUSH2 0x20DE PUSH2 0xB3A JUMP JUMPDEST JUMPDEST SWAP3 POP SWAP3 SWAP1 POP JUMP JUMPDEST PUSH1 0x0 DUP1 PUSH1 0x20 DUP4 DUP6 SUB SLT ISZERO PUSH2 0x20FD JUMPI PUSH2 0x20FC PUSH2 0xB26 JUMP JUMPDEST JUMPDEST PUSH1 0x0 DUP4 ADD CALLDATALOAD PUSH8 0xFFFFFFFFFFFFFFFF DUP2 GT ISZERO PUSH2 0x211B JUMPI PUSH2 0x211A PUSH2 0xB2B JUMP JUMPDEST JUMPDEST PUSH2 0x2127 DUP6 DUP3 DUP7 ADD PUSH2 0x2090 JUMP JUMPDEST SWAP3 POP SWAP3 POP POP SWAP3 POP SWAP3 SWAP1 POP JUMP JUMPDEST PUSH1 0x0 DUP3 DUP3 MSTORE PUSH1 0x20 DUP3 ADD SWAP1 POP SWAP3 SWAP2 POP POP JUMP JUMPDEST PUSH1 0x0 DUP2 SWAP1 POP SWAP2 SWAP1 POP JUMP JUMPDEST PUSH1 0x0 PUSH1 0x80 DUP3 ADD SWAP1 POP SWAP2 SWAP1 POP JUMP JUMPDEST PUSH1 0x0 PUSH2 0x2167 DUP4 DUP6 PUSH2 0x2133 JUMP JUMPDEST SWAP4 POP PUSH2 0x2172 DUP3 PUSH2 0x2144 JUMP JUMPDEST DUP1 PUSH1 0x0 JUMPDEST DUP6 DUP2 LT ISZERO PUSH2 0x21AB JUMPI PUSH2 0x2188 DUP3 DUP5 PUSH2 0x1B33 JUMP JUMPDEST PUSH2 0x2192 DUP9 DUP3 PUSH2 0x1B1B JUMP JUMPDEST SWAP8 POP PUSH2 0x219D DUP4 PUSH2 0x214E JUMP JUMPDEST SWAP3 POP POP PUSH1 0x1 DUP2 ADD SWAP1 POP PUSH2 0x2176 JUMP JUMPDEST POP DUP6 SWAP3 POP POP POP SWAP4 SWAP3 POP POP POP JUMP JUMPDEST PUSH1 0x0 PUSH1 0x20 DUP3 ADD SWAP1 POP DUP2 DUP2 SUB PUSH1 0x0 DUP4 ADD MSTORE PUSH2 0x21D3 DUP2 DUP5 DUP7 PUSH2 0x215B JUMP JUMPDEST SWAP1 POP SWAP4 SWAP3 POP POP POP JUMP JUMPDEST PUSH1 0x0 DUP1 PUSH1 0x0 DUP1 PUSH1 0x0 PUSH1 0x60 DUP7 DUP9 SUB SLT ISZERO PUSH2 0x21F8 JUMPI PUSH2 0x21F7 PUSH2 0xB26 JUMP JUMPDEST JUMPDEST PUSH1 0x0 DUP7 ADD CALLDATALOAD PUSH8 0xFFFFFFFFFFFFFFFF DUP2 GT ISZERO PUSH2 0x2216 JUMPI PUSH2 0x2215 PUSH2 0xB2B JUMP JUMPDEST JUMPDEST PUSH2 0x2222 DUP9 DUP3 DUP10 ADD PUSH2 0x15EE JUMP JUMPDEST SWAP6 POP SWAP6 POP POP PUSH1 0x20 PUSH2 0x2235 DUP9 DUP3 DUP10 ADD PUSH2 0xBB6 JUMP JUMPDEST SWAP4 POP POP PUSH1 0x40 DUP7 ADD CALLDATALOAD PUSH8 0xFFFFFFFFFFFFFFFF DUP2 GT ISZERO PUSH2 0x2256 JUMPI PUSH2 0x2255 PUSH2 0xB2B JUMP JUMPDEST JUMPDEST PUSH2 0x2262 DUP9 DUP3 DUP10 ADD PUSH2 0xBCB JUMP JUMPDEST SWAP3 POP SWAP3 POP POP SWAP3 SWAP6 POP SWAP3 SWAP6 SWAP1 SWAP4 POP JUMP JUMPDEST PUSH2 0x227A DUP2 PUSH2 0xD24 JUMP JUMPDEST DUP3 MSTORE POP POP JUMP JUMPDEST PUSH1 0x0 PUSH1 0x80 DUP3 ADD SWAP1 POP DUP2 DUP2 SUB PUSH1 0x0 DUP4 ADD MSTORE PUSH2 0x229B DUP2 DUP9 DUP11 PUSH2 0x16A2 JUMP JUMPDEST SWAP1 POP PUSH2 0x22AA PUSH1 0x20 DUP4 ADD DUP8 PUSH2 0x13AC JUMP JUMPDEST DUP2 DUP2 SUB PUSH1 0x40 DUP4 ADD MSTORE PUSH2 0x22BD DUP2 DUP6 DUP8 PUSH2 0x13CC JUMP JUMPDEST SWAP1 POP PUSH2 0x22CC PUSH1 0x60 DUP4 ADD DUP5 PUSH2 0x2271 JUMP JUMPDEST SWAP8 SWAP7 POP POP POP POP POP POP POP JUMP JUMPDEST PUSH32 0x4E487B7100000000000000000000000000000000000000000000000000000000 PUSH1 0x0 MSTORE PUSH1 0x11 PUSH1 0x4 MSTORE PUSH1 0x24 PUSH1 0x0 REVERT JUMPDEST PUSH1 0x0 PUSH2 0x2311 DUP3 PUSH2 0xB95 JUMP JUMPDEST SWAP2 POP PUSH32 0x7FFFFFFFFFFFFFFFFFFFFFFFFFFFFFFFFFFFFFFFFFFFFFFFFFFFFFFFFFFFFFFF DUP3 SUB PUSH2 0x2343 JUMPI PUSH2 0x2342 PUSH2 0x22D7 JUMP JUMPDEST JUMPDEST PUSH1 0x1 DUP3 ADD SWAP1 POP SWAP2 SWAP1 POP JUMP JUMPDEST PUSH32 0x4E487B7100000000000000000000000000000000000000000000000000000000 PUSH1 0x0 MSTORE PUSH1 0x22 PUSH1 0x4 MSTORE PUSH1 0x24 PUSH1 0x0 REVERT JUMPDEST PUSH1 0x0 PUSH1 0x2 DUP3 DIV SWAP1 POP PUSH1 0x1 DUP3 AND DUP1 PUSH2 0x2395 JUMPI PUSH1 0x7F DUP3 AND SWAP2 POP JUMPDEST PUSH1 0x20 DUP3 LT DUP2 SUB PUSH2 0x23A8 JUMPI PUSH2 0x23A7 PUSH2 0x234E JUMP JUMPDEST JUMPDEST POP SWAP2 SWAP1 POP JUMP INVALID LOG2 PUSH5 0x6970667358 0x22 SLT KECCAK256 AND 0x4F DUP8 0xCD DUP2 SWAP5 PUSH19 0xF4816F8677A8AD3EE8F43AC023DB31A6D5EE0F LT 0xC2 SUB 0xE8 CREATE 0xE6 PUSH5 0x736F6C6343 STOP ADDMOD XOR STOP CALLER "
        },
        "methodIdentifiers": {
          "counter()": "61bc221a",
          "read00()": "ea7b16af",
          "read01(int256)": "fc367111",
          "read02(int256[4])": "981676b3",
          "read03(int256[])": "0eabcb57",
          "read04(int256[4][4])": "5ae136ae",
          "read05(int256[4][])": "e6903da6",
          "read06(int256[][4])": "a4097ead",
          "read07(int256[][])": "a515dd65",
          "read08((int256,uint256,address,bool,bytes,string))": "bce4256f",
          "read09((int256,uint256,address,bool,bytes,string)[])": "2eca00c5",
          "read10(((int256,uint256,address,bool,bytes,string),(int256,uint256,address,bool,bytes,string)[4],(int256,uint256,address,bool,bytes,string)[]))": "648eb823",
          "read11(((int256,uint256,address,bool,bytes,string),(int256,uint256,address,bool,bytes,string)[4],(int256,uint256,address,bool,bytes,string)[])[])": "cce89307",
          "read12(((int256,uint256,address,bool,bytes,string),(int256,uint256,address,bool,bytes,string)[4],(int256,uint256,address,bool,bytes,string)[])[],int256,string)": "01c19285",
          "version()": "54fd4d50",
          "write00()": "125ebfba",
          "write01(int256)": "26a984f9",
          "write02(int256[4])": "eaa53fe3",
          "write03(int256[])": "b6683b5c",
          "write04(int256[4][4])": "6aea3329",
          "write05(int256[4][])": "d1e7ac03",
          "write06(int256[][4])": "934a2a2b",
          "write07(int256[][])": "e0778f11",
          "write08((int256,uint256,address,bool,bytes,string))": "44da1de1",
          "write09((int256,uint256,address,bool,bytes,string)[])": "e37b7485",
          "write10(((int256,uint256,address,bool,bytes,string),(int256,uint256,address,bool,bytes,string)[4],(int256,uint256,address,bool,bytes,string)[]))": "4a3390f4",
          "write11((int256,uint256,address,bool,bytes,string)[])": "e15715b5",
          "write12((int256,uint256,address,bool,bytes,string)[],int256,string)": "f25240dd"
        }
      }
    }
  }
}